:020000040800F2
:10000000682B002099010008C32A0008FD2400087D
:10001000C12A0008E1030008213C0008000000009C
:1000200000000000000000000000000001010008C6
:100030008F0600080000000045010008B9360008DE
:10004000B3010008B3010008B3010008B3010008C0
:10005000B3010008B3010008B3010008B9060008A5
:10006000B3010008B3010008B3010008410600080D
:10007000B3010008B30100084D0600085906000846
:10008000B3010008B301000891020008B3010008A1
:10009000B3010008B3010008B3010008BF0600085F
:1000A000B3010008B3010008B3010008B301000860
:1000B000B3010008B301000851370008B30100087C
:1000C000B3010008B3010008B3010008B301000840
:1000D000B3010008153C0008B3010008B301000893
:1000E000B3010008B3010008B3010008DFF80CD029
:1000F00000F0BCF800480047EB3D0008682B0020EA
:10010000224B19680868B0E8F00F80F30988BFF344
:100110006F8F4FF0000080F311884EF00D0E704786
:100120000000000006480068006880F3088862B696
:1001300061B6BFF34F8FBFF36F8F00DF00BF00BF0B
:1001400008ED00E0EFF30980BFF36F8F0F4B1A68E3
:1001500020E9F00F106008B54FF0500080F31188CF
:10016000BFF34F8FBFF36F8F05F066F94FF00000BC
:1001700080F31188BDE8084019680868B0E8F00FFE
:1001800080F30988BFF36F8F704700BF50000020D5
:10019000EFF3058070470000064880470648004797
:1001A000FEE7FEE7FEE7FEE7FEE7FEE7FEE7FEE727
:1001B000FEE7FEE74D370008ED00000840EA0103C6
:1001C0009B0703D009E008C9121F08C0042AFAD20D
:1001D00003E011F8013B00F8013B521EF9D27047D1
:1001E000D2B201E000F8012B491EFBD27047002279
:1001F000F6E710B513460A4604461946FFF7F0FF26
:10020000204610BD421C10F8011B0029FBD1801AAA
:10021000704710B5002200E0521C835C8C5CA34246
:1002200001D1002BF8D1D8B2E1B2401A10BD03467B
:1002300011F8012B00F8012B002AF9D1184670475C
:1002400030B50B46014600202022012409E021FAA6
:1002500002F59D4205D303FA02F5491B04FA02F5A3
:100260002844151EA2F10102F1DC30BD064C074DF9
:1002700006E0E06840F0010394E807009847103476
:10028000AC42F6D3FFF736FFE86A0008086B0008B7
:10029000014800F0B9BA0000E404002070B504463B
:1002A00000688168C943C90717D1816821F001013D
:1002B000816000F061FF05460AE000BF00F05CFFCE
:1002C000401B022804D920688068C043C00706D0BC
:1002D00020688068C043C007F0D0002070BDA06ACD
:1002E00040F01000A062E06A40F00100E0620120EE
:1002F00070BD10B50146406A826A12F0500F05D0F9
:10030000006A026BBDE8104008461047816A41F45C
:100310000071816201688968C1F3424107290CD1EB
:10032000017B51B9816A21F480718162816AC904BB
:1003300003D4816A41F00101816200F045FA10BDE9
:1003400010B5406A816A41F040018162C16A41F0A2
:100350000401C16200F057FA10BD10B5406A00F008
:1003600051FA10BDF8B50026044600960068816871
:10037000C943C9072DD0816841F001018160164849
:1003800016490068B0FBF1F000E0401E0090002824
:10039000FBD100F0F1FE054616E000BF00F0ECFED8
:1003A000401B022810D920688068C043C0070BD0CA
:1003B000A06A40F01000A062E06A40F00100E06234
:1003C00084F824600120F8BD20688068C043C0071D
:1003D000E4D10020F8BD00004C00002040420F0096
:1003E000FEE710B50278AA2A0AD1441814F8012CA5
:1003F000552A05D100F008F814F8021C884201D0F3
:10040000002010BD012010BD034610B500200222BF
:10041000891E03E09C5C6040521CD2B28A42F9DB28
:1004200010BD00000348002302221946C06805F0F1
:100430008DBE0000000000202DE9F0414FF4FA6469
:1004400025464FF48056144F03E06D1E2D042D0CED
:100450001FD03146384600F07DFE0128F5D02546F4
:1004600003E06D1E2D042D0C13D03146384600F0EC
:1004700071FE0028F5D003E0641E2404240C08D08B
:100480003146384600F066FE0128F5D00120BDE86F
:10049000F0810020FBE70000000C014000B585B0B2
:1004A0000020019003900A48816941F008018161B0
:1004B0008069694600F0080004904FF48050009075
:1004C00001200290034800F055FD05B000BD00007A
:1004D00000100240000C014070B586B000241048A6
:1004E0000094019402940394816941F008018161B0
:1004F00080690C4E00F008004FF4805504902246AD
:100500002946304600F033FE01200095CDE9010474
:10051000032003906946304600F02CFD06B070BD04
:1005200000100240000C014010B54FF48051034808
:1005300000F010FE002800D0012010BD000C01408A
:100540002DE9FC4700248A468146A0466E46802756
:1005500006F804800025002000F064F8282000F050
:1005600097F8FFF7E1FF012807D1305D27FA05F181
:1005700008433055012000F055F86D1CEDB2082DF0
:10058000E9D3641CE4B2052CE2D39DF800109DF879
:1005900001009DF803300A189DF8020003441A4434
:1005A0009DF804309A4206D189F800008AF80010BC
:1005B0000120BDE8FC870020FBE770B50D4606462C
:1005C00000F018F804F080FC012000F01FF81B2058
:1005D00000F05EF8FFF762FF0024FFF72DFF01280F
:1005E00004D129463046FFF7ABFF044604F08CFCEB
:1005F000204670BD10B5FFF76FFF002000F006F831
:10060000BDE81040192003F007BC0000044B4FF474
:10061000805118B10122184600F0A9BD0022FAE766
:10062000000C014070B505464FF4FA6401E0641E09
:10063000A4B2FFF779FFA84201D1002CF7D170BD19
:10064000014800F04DBB000014050020014800F0F7
:1006500047BB000080060020014800F041BB0000BD
:100660003C06002030B590F840500124AC40C56BEA
:100670006C60046863604368102B036803D0996062
:100680000068C26030BD9A600068C16030BD7047CC
:1006900070B5084C0546002021684862204601F0EC
:1006A00045FB2068416AA942FCD3BDE8704001487F
:1006B00001F090BBAC050020022000F04FBC4020B0
:1006C00000F04CBC72B6FEE770470000F8B500249D
:1006D000009490F824202546012A12D0012280F8A7
:1006E00024204A681F23072A0DD20668776B521E02
:1006F00002EB820293409F430B6893401F43776352
:1007000019E00220F8BD06680D2A0AD2376BD21F05
:1007100002EB820293409F430B6893401F43376371
:1007200009E0F76A0D3A02EB820293409F430B689F
:1007300093401F43F7620A68072306680A2A0AD310
:10074000F7680A3A02EB420293409F438B6893405A
:100750001F43F76008E0376902EB420293409F4372
:100760008B6893401F4337610A68102A01D0112A11
:1007700020D1124B02689A4217D193681B0219D4F8
:10078000936843F4000393600968102912D10C495F
:100790000C4A0968B1FBF2F101EB8101490000E06C
:1007A000491E00910029FBD104E0816A41F020013B
:1007B0008162012480F824502046F8BD00240140C5
:1007C0004C00002040420F0008B500680A498842EA
:1007D00011D10020009009486946006B05F0F1F93D
:1007E0000098002807D006494FF080500860BFF3FA
:1007F0004F8FBFF36F8F08BD002401400000002021
:1008000004ED00E07047704770B504460068066864
:100810004568A90625D5B10723D5A16AC90603D421
:10082000A16A41F40071A1628168C1F342410729C4
:1008300010D1217B71B9416821F020014160A06A8B
:1008400020F48070A062A06AC00403D4A06A40F0C3
:100850000100A0622046FFF7B7FF21686FF0120089
:10086000086028062ED570072CD5A06AC00603D4D0
:10087000A06A40F40050A06220688168C1F3023190
:10088000072909D04168490515D48168C1F342415F
:10089000072910D1217B71B9416821F080014160A5
:1008A000A06A20F48050A062A06AC00503D4A06AA8
:1008B00040F00100A0622046FFF706FF21686FF0BC
:1008C0000C00086068060CD5F0070AD0A06A40F456
:1008D0008030A062204600F093F821686FF001009C
:1008E000086070BD2DE9F0414FF0000704003D465F
:1008F0007ED0A06A002628B9E66284F824602046EB
:1009000000F080F82046FFF7C9FCA16AC90600D4B0
:1009100020B1A06A40F01000A06269E0A16A21F451
:10092000885141F00201A1626268E169237B0A43B8
:1009300047EA43010A43A1684FF48077B94209D0DE
:10094000012907D05FF0000194F814C0BCF1010F39
:1009500002D00AE03946F7E7F3B1A36A43F0200377
:10096000A362E36A43F00103E3622368D3F804C09F
:100970002CF4694C4CEA010CC3F804C021688B6864
:10098000DFF870C003EA0C0313438B60A168B9421F
:100990000BD0012909D00CE0DFF85CC0A3690CEB97
:1009A00043330B4343F40061DFE7218A0D05A5F5CE
:1009B00080152168CB6A23F470032B43CB62216836
:1009C00089680E4B1940914208D1E662A16A21F074
:1009D000020141F00101A162BDE8F081A06A20F0AE
:1009E000020040F01000A062E06A40F00100E06206
:1009F0000120F1E7FDF7E1FF00E0FFFFFE0E1FFF22
:100A00007047000070B586B0002506460095019538
:100A10000295039500681D49884235D11C498869B3
:100A200040F400708861886900F40070049088695F
:100A300040F0040088618869694600F00400049071
:100A40000120009003200190124800F093FA134C0B
:100A50001148C4E900058020C4E90250400020612B
:100A60008000C4E905052046E56100F0E3F908B11E
:100A7000FFF728FE3462002205211220666200F092
:100A8000ABFD122000F09AFD06B070BD00240140BD
:100A90000010024000080140080002401405002038
:100AA0002DE9F047894604463B4900683B4F0E1D3F
:100AB0009046884201D0B84207D1306810F4702FB8
:100AC00003D001252846BDE8F08794F824000128CA
:100AD0000CD0012084F824002046FFF743FC0500D9
:100AE0004FF0000004D084F82400EBE70220EAE78E
:100AF000A16A40F60162914341F48071A1622168CC
:100B0000B94218D1326812F4702F14D0A16A41F49E
:100B10008011A1623168490505D5A16A21F400510F
:100B200041F48051A162A16AC9040AD5E16A21F0A9
:100B30000601E16206E0A26A22F48012A26249681C
:100B4000E9E7E06284F82400216A15488862216A96
:100B50001448C862216A1448086321686FF00200D3
:100B600008602068816841F4807181602168434693
:100B70004A464C31206A00F08BF920688168C1F345
:100B800042410729816803D041F48011816099E7CF
:100B900041F4A001FAE700000024014000280140D0
:100BA000F30200085B0300084103000810B5044687
:100BB00090F82400012807D0012084F82400204662
:100BC000FFF76CFB10B113E0022010BD21688A68AA
:100BD00022F480728A60216A91F82120022A07D1CA
:100BE000084600F00EF8A16A30B141F04001A16260
:100BF000002184F8241010BD21F4885141F0010136
:100C0000F5E710B590F821100022022905D0042143
:100C1000816380F82020012010BD01680B6823F05B
:100C20000E030B6001680B6823F001030B6090F862
:100C30004030C46B012101FA03F3636080F8211096
:100C400080F82020104610BD10B590F82110002427
:100C5000022903D00421816301243DE001680A6870
:100C600022F00E020A6001680A6822F001020A609E
:100C70001A4A0168914201D1012121E0174A143238
:100C8000914201D110211BE0144A2832914201D136
:100C9000891515E0114A3C32914201D189140FE0C7
:100CA0000E4A5032914202D14FF4803108E00B4A93
:100CB0006432914202D14FF4801101E04FF0807113
:100CC000064A083A5160012180F82110002180F87D
:100CD0002010416B01B18847204610BD080002403A
:100CE0002DE9F05FC16B0C6801680B68D0F840C05B
:100CF000042202FA0CF2494DDFF824A1494E4A4F72
:100D0000DFF828B1DFF828E122422CD05A072AD593
:100D10000A68920603D40A6822F004020A60016895
:100D2000A94201D1042219E0514501D1402215E028
:100D3000B14202D14FF4806210E0B94202D14FF4C7
:100D400080420BE0594502D14FF4802206E0714504
:100D500002D14FF4800201E04FF080622F49083940
:100D60004A60C16A3BE04FF0020808FA0CF818EA42
:100D7000040F4FF000094FF0010235D05FEA83788D
:100D800032D50B689B0605D40B6823F00A030B6071
:100D900080F821200168A94201D1022219E05145C1
:100DA00001D1202215E0B14202D14FF4007210E0CF
:100DB000B94202D14FF400520BE0594502D14FF431
:100DC000003206E0714502D14FF4001201E04FF00D
:100DD0000072124908394A6080F82090816A00291F
:100DE0001AD0BDE8F05F0847082505FA0CF5254242
:100DF00012D01B0710D50B6823F00E030B6090F880
:100E00004010C36B02FA01F15960826380F821201F
:100E100080F82090016BE2E7BDE8F09F08000240F7
:100E20001C000240300002404400024058000240D2
:100E30006C00024030B528B308C813491422194485
:100E4000B1FBF2F18900C16310498163022141774E
:100E50001A6843F6F0718A43D0E900142143D0E9BF
:100E600002452C4321430469214344692143846999
:100E70002143114319600021416301224277017728
:100E8000084630BD012030BDF8FFFDBF0000024024
:100E900070B5044690F82000002501280CD00120F0
:100EA00084F8200094F821600020012E06D084F8F8
:100EB00020000225284670BD022070BD022684F85D
:100EC0002160A0632068066826F0010606602046BF
:100ED000FFF7C8FBE06A00282068016802D041F0F3
:100EE0000E0106E021F0040101602068016841F074
:100EF0000A0101602068016841F001010160D9E741
:100F000070B5044600F038F90546601C02D004486C
:100F10000078044400F030F9401BA042FAD370BDC1
:100F20004000002008B5022801D0402811D100203F
:100F3000009008486946C06904F0FEF8009800284F
:100F400007D005494FF080500860BFF34F8FBFF3C3
:100F50006F8F08BD0000002004ED00E0044910B5CB
:100F60000A68024202D00860FFF7DCFF10BD0000F3
:100F7000140401402DE9F84FDFF8B8910024A9F1DD
:100F8000040B23460F2709F1040AABF1040EC9E054
:100F90000125A5402A40AA427DD1674ED1F804C060
:100FA000ACEB0608B44532D014DCBCF1030F3AD0E8
:100FB00009DCBCF1000F2AD0BCF1010F1CD0BCF140
:100FC000020F31D11DE0BCF1110F17D0BCF1120F8F
:100FD0002AD119E0B8F5881F19D006DCB8F5803F92
:100FE00015D0B8F5801F1FD111E0B8F5001F0ED045
:100FF000B8F5041F18D10AE0CB6815E0CB681B1DBB
:1010000012E0CB6808330FE0CB680C330CE08B6840
:101010002BB1012B4FF0080303D0456104E00423FA
:1010200002E0056100E00023FF2A01D8064601E046
:1010300000F104064FEA840501D9A5F12005D6F890
:10104000008007FA05FC28EA0C0803FA05F548EACF
:101050000508C6F800804D68ED0062D5374DAE69D1
:1010600046F00106AE61AD6924F0030605F0010506
:101070000095334D06EB050CDCF80850A607360F3B
:1010800007FA06F825EA0805DFF8B880404503D1DD
:101090004FF0000817E044E0DFF8AC80404502D193
:1010A0004FF001080FE0DFF8A480404502D14FF077
:1010B000020808E0DFF89880404502D14FF00308AD
:1010C00001E04FF0040808FA06F848EA0508CCF8F1
:1010D00008804D68D9F80060ED024D4601D51643F1
:1010E00000E096432E604D68DAF80060AD02554688
:1010F00001D5164300E096432E604D68DBF8006092
:10110000AD035D4601D5164300E096432E604D6861
:10111000DEF80060ED03754601D5164300E0964306
:101120002E60641C0D682A46E5407FF431AFBDE8AF
:10113000F88F000008040140000011100010024068
:101140000000014000080140000C01400010014077
:10115000001401408068084000D001207047C26838
:1011600021EA02030A4043EA0241016170470AB1E1
:10117000016170470904FBE701488068704700007F
:101180004000002070B5040025D094F83D000025F3
:1011900020B984F83C50204600F04EF9242084F811
:1011A0003D002068016821F00101016020680168AC
:1011B00041F4004101602068016821F400410160B0
:1011C00000F068FB4D4A6168914201D84C4900E04B
:1011D0004C49884201D2012070BD4B492368B0FBC5
:1011E000F1F15E6826F03F060E435E60636893424D
:1011F00006D94FF4967359434FF47A73B1FBF3F168
:101200002368491C1E6A26F03F0631431962616853
:10121000914210D84900401EB0FBF1F2521CC2F3BB
:101220000B02042A01D2042022E0B0FBF1F0401CA2
:10123000C0F30B001CE0A268F2B301EBC10303EBA7
:101240000116431EB3FBF6F35B1C43F480431B05FE
:1012500049D092B301EBC10202EB0111401EB0FB79
:10126000F1F0401CC0F30B0040F4804040F400401B
:101270002168CA694CF6FF739A431043C861D4E9E8
:10128000071001432068026822F0C0021143016088
:10129000D4E9030101432068826848F2FF339A438E
:1012A00011438160D4E9050108432168CA6822F02E
:1012B000FF021043C86001E00EE016E020680168FC
:1012C00041F0010101602564202084F83D00256380
:1012D00084F83E50002070BD01EB4106431EB3FB75
:1012E000F6F35B1CB3E70120C2E701EB4101401EAE
:1012F000B0FBF1F0401CC0F30B00B7E7A086010083
:1013000080841E0000093D0040420F002DE9F84F87
:101310001F4690468A460446DDF82890FFF72CFFCA
:10132000054694F83D0020287FD119230122404929
:101330002046009501F074F9002876D194F83C001D
:10134000012872D0012084F83C0020680168C90798
:1013500003D1016841F0010101602068016821F4B6
:1013600000610160212084F83D00102084F83E00D7
:1013700000262664C4F824806785608D20852D486A
:10138000E0622B464A465146204601F0CFF890B91C
:10139000206841698069009036E02A464946204627
:1013A00001F0E4F950B1206C042804D120680168F0
:1013B00041F4007101600120BDE8F88F606A216886
:1013C00000780861606A401C6062618D491E618519
:1013D000218D491E89B2218522685369DB435B0751
:1013E0000BD451B100781061606A401C6062608D5E
:1013F000401E6085208D401E20852A464946204695
:1014000001F0E2F80028CED1208D0028C5D154F893
:101410003D0B016841F400710160202004F81E09B1
:10142000E67766770020C7E7FFE70220C4E7000001
:10143000020010000000FFFF10B586B000210091EF
:1014400001910291039100681349884222D1134C03
:10145000A06940F00800A061A069694600F008009A
:1014600004904FF4407000901220019003200390EC
:101470000B48FFF77FFD0B48416841F0E06141F008
:1014800002014160E06940F40010E061E06900F4AD
:101490000010049006B010BD00540040001002403F
:1014A000000C0140000001400248816802781144AC
:1014B0008160704740000020074810B5016841F086
:1014C00010010160032000F0A7F80F2000F006F8DB
:1014D00000F050F8002010BD0020024030B5054655
:1014E0001F4887B0C16941F00401C161C06906A904
:1014F00000F00400009001A800F0ACF90498B0B12D
:1015000000F0C8F940001749174AB0FBF1F117483D
:10151000491E0260416040F2E7320021C0E9032128
:101520008160816100F0C2FB040003D015E000F08F
:10153000B1F9E8E70D4800F021FC04000DD11E20B0
:1015400000F03CF8102D07D2002229461E2000F0A2
:1015500043F80748056000E0012407B0204630BD8D
:101560000010024040420F0000080040C406002066
:10157000440000200F4808B5816941F001018161F4
:10158000816901F001010091C16941F08051C1619F
:10159000C069002200F0805000900F21901E00F0E2
:1015A0001BF80548416821F0E06141F0007141609D
:1015B00008BD00000010024000000140002809DBC7
:1015C00000F01F02012191404009800000F1E0205D
:1015D000C0F8001170470000F0B40E4B1B680C46B9
:1015E000C3F30223C3F10705042D00D90425191DF7
:1015F000072901D2002300E0DB1E012606FA05F1CF
:10160000491E214099409E40761E16403143F0BC51
:1016100002F01CBB0CED00E0064900F00702086870
:101620004FF6FF03184040EA0220034A10430860C7
:10163000704700000CED00E00000FA052DE9F843CA
:1016400005460078354CC00754D0E0690026C0003C
:1016500008D4E06940F08050E061E069012600F0C4
:10166000805000902E480168C90512D40168804658
:1016700041F480710160FFF77FFD074605E000BF80
:10168000FFF77AFDC01B642823D8D8F80000C005F6
:10169000F6D5206A10F4407021D0A98801F4407179
:1016A00081421CD0206A1F49012220F440700A6048
:1016B00000220A602062C00711D0FFF75DFD0746D7
:1016C00041F2883808E000BFFFF756FDC11B4145D5
:1016D00002D90320BDE8F883206A8007F4D5206A88
:1016E000696820F44070084320621EB1E06920F070
:1016F0008050E0612878800705D56068A96820F4EB
:101700004040084360602878C00605D56068E968F5
:1017100020F48000084360600020DBE700100240F6
:1017200000700040400442422DE9F0470F4605009A
:1017300061D0434E306800F00700B84209D23068EB
:1017400020F0070038433060306800F00700B842EE
:1017500051D128683B4C810712D5400703D56068FA
:1017600040F4E06060602878000703D5606840F4CA
:10177000605060606068A96820F0F0000843606015
:101780002878C00728D06868012810D0216802286E
:1017900010D0890700292EDA616821F00301014386
:1017A0006160FFF7E9FC804641F288390DE021686D
:1017B0008903EFE78901EDE7FFF7DEFCA0EB080105
:1017C000494502D90320BDE8F0876068696800F0E8
:1017D0000C00B0EB810FEFD1306800F00700B84289
:1017E0000BD9306820F0070038433060306800F0D3
:1017F0000700B84201D00120E5E72878400705D569
:101800006068E96820F4E0600843606028780007B9
:1018100006D56068296920F4605040EAC100606024
:1018200000F058F86168084AC1F30311515CC840E0
:101830000649086006480068FFF750FE0020C2E72E
:101840000020024000100240426A00084C000020C4
:10185000440000200F2202600C4A536803F0030387
:101860004360536803F0F0038360536803F4E0635C
:10187000C36052684FF4E06303EAD2020261044895
:10188000006800F007000860704700000010024088
:10189000002002400448054900684968044AC1F331
:1018A0000221515CC84070474C00002000100240EB
:1018B000526A00080448054900684968044AC1F3AF
:1018C000C221515CC84070474C000020001002400B
:1018D000526A00080E4A51680E4801F00C03042BAE
:1018E00011D0082B0FD10C48C1F38343C903C05C4E
:1018F0000AD55168084AC1F34041921E515C054A1D
:101900005043B0FBF1F07047044948437047000072
:101910000010024000127A00326A000800093D00FF
:101920002DE9F84F040070D02078C04DC00749D091
:101930006868C0F38100012807D06868C0F381009F
:10194000022809D16868C00306D52868800339D504
:1019500060680028E7D035E06068B0F5803F0BD0C4
:1019600010B1B0F5A02F11D0286820F48030286085
:10197000286820F4802002E0286840F48030286045
:10198000606890B1FFF7F8FB06460AE0286840F46B
:1019900080202860F0E700BFFFF7EEFB801B642883
:1019A00073D828688003F7D50CE0FFF7E5FB0646FF
:1019B00005E000BFFFF7E0FB801B6428F0D8286833
:1019C0008003F7D420789A4E80074FF001094FF03A
:1019D000000839D5686810F00C0F07D06868C0F3AC
:1019E0008100022809D16868C00306D428688007EE
:1019F00014D52069012808D110E02069B0B1C6F8DB
:101A00000090FFF7B9FB074605E00AE1FFF7B4FBDA
:101A1000C01B0228C4D828688007F7D528686169E8
:101A200020F0F80040EAC10028600DE0C6F8008010
:101A3000FFF7A2FB074604E0FFF79EFBC01B02284E
:101A400023D828688007F7D4207800072CD5794858
:101A5000A169D9B1C0F80090FFF78EFB074604E0FA
:101A6000FFF78AFBC01B02280FD8686A8007F7D5EA
:101A700071484FF4FA510068B0FBF1F0009000BFDC
:101A80000098411E0091FAD20EE080E0C0F800807C
:101A9000FFF772FB074604E0FFF76EFBC01B02284E
:101AA00075D8686A8007F7D42078400760D5E86960
:101AB0000027C00008D4E86940F08050E861E86978
:101AC000012700F0805000905C480168C90513D4DC
:101AD0000168834641F480710160FFF74DFB824647
:101AE00006E000BFFFF748FBA0EB0A0064284ED8D1
:101AF000DBF80000C005F5D5E06801280AD008B180
:101B0000052813D0286A20F001002862286A20F0F6
:101B1000040002E0286A40F001002862E06841F217
:101B2000883B98B1FFF728FB82460BE0286A40F01B
:101B300004002862EEE700BFFFF71EFBA0EB0A01DE
:101B400059455AD8286A8007F6D50CE0FFF714FBF0
:101B5000824605E0FFF710FBA0EB0A0159454CD87F
:101B6000286A8007F6D41FB1E86920F08050E86148
:101B7000E06988B36968C1F38101022944D0022871
:101B8000C6F8608004D0FFF7F7FA044638E034E086
:101B9000FFF7F2FA074604E0FFF7EEFAC01B02284F
:101BA0002BD828688001F7D4206AB0F5803F05D192
:101BB0006868A16820F4003008436860D4E908012F
:101BC0000843696821F4741108436860C6F860909E
:101BD000FFF7D2FA044606E025E000BFFFF7CCFA93
:101BE000001B022809D828688001F7D51BE000BF38
:101BF000FFF7C2FA001B022802D90320BDE8F88FC4
:101C000028688001F4D40EE00128F7D06868226AC1
:101C100000F48031914204D1616A00F4701088426E
:101C200001D00120EAE70020E8E7000000100240B0
:101C300000004242800442424C00002000700040FC
:101C40007047704770B590F83C20012A26D00124D7
:101C500080F83C40022280F83D2003685A689D6865
:101C600022F070060A6832435A600D4B02689A42AD
:101C700008D0B2F1804F05D00A4B9A4202D00A4BED
:101C80009A4204D1496825F080031943916080F895
:101C90003D40002180F83C10084670BD022070BD18
:101CA000002C0140000400400008004010B5040072
:101CB00003D094F83D0010B107E0012010BD0020D2
:101CC00084F83C00204600F01FF8022084F83D0014
:101CD000211D206801F042FD012084F8460084F8AF
:101CE0003E0084F83F0084F8400084F8410084F806
:101CF000420084F8430084F8440084F8450084F8E6
:101D00003D00002010BD000008B50068B0F1804F14
:101D100008D10548C16941F00101C161C06900F005
:101D20000100009008BD00000010024090F83D1036
:101D3000012901D001207047022180F83D10006880
:101D40000B49884208D0B0F1804F05D0094988423C
:101D500002D00949884204D1816801F007010629AF
:101D600003D0016841F001010160002070470000CC
:101D7000002C0140000400400008004090F83D1095
:101D8000012901D001207047022180F83D1001682F
:101D9000CA6842F00102CA6000680B49884208D054
:101DA000B0F1804F05D00949884202D008498842E5
:101DB00004D1816801F00701062903D0016841F0D0
:101DC0000101016000207047002C01400004004028
:101DD0000008004001680A6A41F211131A4207D153
:101DE0000A6A9B101A4203D10A6822F001020A60B3
:101DF000012180F83D100020704770B5044690F82E
:101E00003C000025012817D0012684F83C60022000
:101E100084F83D002068826822F0770222F47F4235
:101E200082600868502838D00DDC20284FD005DCAF
:101E300090B3102811D14AE0022070BD302846D05E
:101E400040280AD13BE060282FD070280DD0B0F593
:101E5000805F03D0B0F5005F12D0012584F83D60AB
:101E6000002084F83C00284670BDCB68D1E90121F0
:101E7000206801F0AFFC2068816841F0770109E03B
:101E8000CB68D1E90121206801F0A4FC20688168B9
:101E900041F480418160E1E719E0CA68496820683F
:101EA00001F0AAFC5021206806E0CA684968206851
:101EB00001F0B3FC6021206801F096FCCEE7CA680F
:101EC0004968206801F098FC40212068F4E7226806
:101ED00001461046F0E770472DE9F04104460068DE
:101EE000C66805694FF00007A90713D5B10711D5DA
:101EF000F91E016101202077206880698007204653
:101F000002D0FFF7E8FF04E000F07EF8204600F082
:101F10007CF82777680716D5700714D521686FF00D
:101F200004000861022020772068806910F4407F57
:101F3000204602D0FFF7CFFF04E000F065F820460E
:101F400000F063F82777280715D5300713D52168E7
:101F50006FF008000861042020772068C0698007BE
:101F6000204602D0FFF7B7FF04E000F04DF820460E
:101F700000F04BF82777E80616D5F00614D521684F
:101F80006FF010000861082020772068C06910F405
:101F9000407F204602D0FFF79EFF04E000F034F8B7
:101FA000204600F032F82777E80708D0F00706D07F
:101FB00021686FF001000861204600F027F828062C
:101FC00008D5300606D521686FF0800008612046EC
:101FD000FFF736FE680608D5700606D521686FF053
:101FE00040000861204600F01BF8A8060AD5B0069C
:101FF00008D521686FF0200008612046BDE8F04157
:10200000FFF71FBEBDE8F0817047704700680349C5
:10201000884201D1FFF748BA70470000000800402D
:10202000704738B5044690F84200202801D00220BD
:1020300038BD51B14AB101202063002060632046C1
:1020400001F0A0FD216B012901D0012038BD2168DC
:102050000A684968009121680C3151E8002F42F06C
:10206000100241E80023002BF5D138BD08B5006807
:10207000114A90421ED100291CD0002000900F4828
:102080006946C06A03F09DFD009838B10C494FF0D5
:1020900080500860BFF34F8FBFF36F8F1422094940
:1020A0000948FFF7BEFF0848C06B0068016821F0CF
:1020B0000401016008BD000000380140000000205C
:1020C00004ED00E0D0040020F4050020704700007B
:1020D000F8B5016804460868CA684B6910F00F0F2C
:1020E0004FF0000559D003F0010602F49077374312
:1020F00065D0C10705D0D10503D5616C41F0010160
:102100006164410705D5D90703D0616C41F0020134
:102110006164810705D5D90703D0616C41F00401E2
:102120006164010707D502F02001314303D0616CDF
:1021300041F008016164616C00293AD0800604D541
:10214000900602D5204601F060FC20684069616C71
:10215000C0F38010090700D460B3204601F020FCD2
:1021600020684069400621D52068143050E8001FDF
:1021700021F0400140E80012002AF5D1E06BA8B13F
:102180006D494163E06BFEF75FFD002811D0E06B05
:10219000416B01B0BDE8F040084783060FD59306B8
:1021A0000DD52046BDE8F84001F02FBC2046FFF7D2
:1021B0008DFFF8BD2046FFF789FF6564F8BD266BEB
:1021C0002023012E7CD1C6067AD5D60678D508689C
:1021D0004868009048694FF00206400640D5E16B20
:1021E000086840680004000CE8D0A28D8242E5D95E
:1021F000E085886920282DD020680C3050E8001F29
:1022000021F4807140E80012002AF5D120681430D2
:1022100050E8001F21F0010140E80012002AF5D12A
:102220002068143050E8001F21F0400140E80012FF
:10223000002AF5D184F84230256320680C3050E83C
:10224000001F21F0100140E80012002AF5D1E06BD8
:10225000FEF7D7FC6663A08DE18D401A81B22AE0BB
:10226000A08DE18D401A81B2E08D0028A6D0002912
:10227000A4D022680C3252E8000F20F4907042E89B
:102280000007002FF5D12068143050E8002F22F00D
:10229000010240E80027002FF5D184F84230256381
:1022A00020680C3050E8002F22F0100240E8002394
:1022B000002BF5D166632046FFF7D8FEF8BDFFE797
:1022C00005062BD5150629D594F841002128F5D10E
:1022D000A068B0F5805F01D12069B0B1206A411CCF
:1022E0002162216800784860E08C401E0004000CE8
:1022F000E084E3D12068C16821F08001C1602068DA
:10230000C16841F04001C160D8E7206A0088C0F38D
:1023100008004860206A801C2062E5E74006CDD5B1
:102320005006CBD5CA68204622F04002CA6084F825
:10233000413000F0E1F8C1E75738000870B50400FB
:1023400004D094F84100002510B106E0012070BDD2
:1023500084F84050204600F023F8242084F84100FF
:102360002068C16821F40051C160204601F0AEFB35
:102370002068016921F4904101612068416921F0E0
:102380002A0141612068C16841F40051C16065645F
:10239000202084F8410084F842006563002070BD6D
:1023A000F0B585B00024064600940194029403948D
:1023B00000682D49884254D12C48816941F48041FC
:1023C0008161816901F480410491816941F00401D6
:1023D00081618069264D00F0040004904FF4007084
:1023E0000090022001900320039069462846FEF7E2
:1023F000C1FD2815CDE90004694628460294FEF780
:10240000B9FD1D4D1B488027C5E90004C5E90247F9
:102410002C616C61AC612846EC61FEF70BFD08B1E4
:10242000FEF750F9F5636E62134D124844351438C7
:1024300001C5102091C5104845F8104944306C6121
:10244000AC61EC61FEF7F6FC08B1FEF73BF9B56351
:102450000022052125206E62FFF7BEF82520FFF738
:10246000ADF805B0F0BD000000380140001002409A
:1024700000080140580002403C06002070477047A9
:1024800070B5044690F84100202801D0022070BDAC
:1024900049B342B32162A284E28400206064212314
:1024A00084F84130A56B114BAB62A56B104BEB620E
:1024B000A56B104B2B63A36B5863256813462A1D2D
:1024C000A06BFEF7E5FC21686FF040000860206813
:1024D000143050E8001F41F0800140E80012002A4B
:1024E000F5D1002070BD012070BD000055390008F5
:1024F000973900086738000870477047FEE70168A1
:102500004A69D24352050FD46FF480624A610021B8
:1025100040F8301F202242738173026942F00402A6
:10252000026101730120704700207047F8B504462E
:10253000C06A1E460D461746082807D0012805D058
:1025400010F5803F02D0206B122804D1206801686A
:1025500041F480710160134600224FF001112046C2
:10256000009600F05DF840B120680068C00502D513
:102570004FF4007020640320F8BD2069B0F5804F4F
:102580000ED00620216800EAD51040F0F000086166
:1025900033463A460B49204600F08AF878B902E003
:1025A00005F0FE0000E0E8B2216808610549334605
:1025B0003A46891F204600F07BF80028DCD0012035
:1025C000F8BD00000800010070B516460D4604462F
:1025D0001EE02046FFF793FF08B1012070BD681C84
:1025E00016D0FEF7C9FD801BA84200D885B9206827
:1025F0004069C04340070BD5002044F8300F20212C
:102600006173A073216941F0200121612073E4E727
:1026100020684069C0434007DBD4002070BD000043
:102620002DE9F047984617460D460446C1F3074684
:10263000DDF820902AE000BFB8F1FF3F26D0FEF77A
:102640009BFDA0EB0901414502D8B8F1000F1DD157
:102650002068012E16D0806925EA00000004000CD5
:1026600012D00020B84211D1002044F8300F2021B0
:102670006173A073216941F0200121612073012061
:10268000BDE8F0874069E7E70120EBE72068012E0D
:102690000AD0806925EA00000004000C06D0002062
:1026A000B842C9D00020EBE74069F3E70120F7E723
:1026B0002DE9F047984616460D4604464FF00009AE
:1026C0004FF0200AC1F3074723E020684069C04368
:1026D000400515D42068016841F40071016021684B
:1026E0006FF480604861C4F8309084F83DA084F8AD
:1026F0003E90216C41F00401216484F83C9021E07B
:10270000701C06D0FEF738FDA0EB0800B04203D8DD
:1027100016B1012F1FD021E02068012F15D080694C
:1027200025EA00000004000C18D000BF44F8309FD8
:1027300084F80DA084F80E90216941F020012161F8
:1027400084F80C900120BDE8F087406925EA00007C
:102750000004000CEAD12068406901E0206880692B
:1027600025EA00000004000CAFD1ECE770B5164676
:102770000D4604461EE02046FFF7C1FE08B10120C9
:1027800070BD681C16D0FEF7F7FC801BA84200D86D
:1027900085B920684069C04300060BD5002044F885
:1027A000300F20216173A073216941F02001216164
:1027B0002073E4E720684069C0430006DBD40020B2
:1027C00070BD00003EB500241048009401940294AE
:1027D0000D498460016004730475012505614FF49F
:1027E00060214460C161FEF77DF808B1FDF76AFF22
:1027F000CDE90045694605480294FDF767FF0028CA
:1028000001D0FDF75FFF3EBD00240140E40400203D
:10281000114808B5416941F0010141614069002258
:1028200000F00100009005210B20FEF7D5FE0B20E3
:10283000FEF7C4FE002205210E20FEF7CDFE0E207D
:10284000FEF7BCFE002205210F20FEF7C5FEBDE805
:1028500008400F20FEF7B2BE0010024010B500F095
:1028600031F9254801F05FFC244C234A0021A06285
:102870001032012001F0DAFC1F4AE0622032002110
:10288000012001F0D3FC1C4B2063103B00220121EE
:102890001B4801F05DFD184A6062283A3C21042083
:1028A00001F0B8FB144A2062DC3A0021154801F01F
:1028B00009FD114AE060B83A0021134801F002FD19
:1028C0000D4A2061943A0021104801F0FBFC0A4AAD
:1028D0006061703A00210E4801F0F4FC064AA061E4
:1028E0004C3A00210B4801F0EDFCE0610248303029
:1028F00001F0BEFA606310BDF0690008000000201E
:1029000025040008412D0008CD34000839310008A5
:10291000D92C0008392F0008F0B585B000252C48C7
:102920000095019502950395816941F0200181612F
:10293000816901F020010491816941F00401816104
:10294000816901F004010491816941F0080181610C
:102950008069204F00F008000490002208213846CA
:10296000FEF705FC082001248DE8310003200390C8
:1029700069463846FEF7FEFA174E4020CDE90006BC
:10298000694602943846FEF7F5FA0220CDE90006C2
:10299000124E694602943046FEF7ECFA2003CDE968
:1029A0000005694602943046FEF7E4FA002205214C
:1029B0000720FEF711FE0720FEF700FE0022062189
:1029C0001720FEF709FE1720FEF7F8FD05B0F0BD51
:1029D000001002400008014000002110000C0140DE
:1029E0000D4810B50B4901600C49416000214FF4BE
:1029F00080428160C0E9031241618161C16101626D
:102A0000FEF7C0FB002803D0BDE81040FDF75ABE1A
:102A100010BD00000054004058050020A0860100B1
:102A200010B586B0002417480094019402940394D2
:102A300004944FF08041059401604721C0E90114DE
:102A40004FF6FF71C0E9031480218161FFF72EF971
:102A500008B1FDF737FE4FF48050009069460948F1
:102A6000FFF7CBF908B1FDF72DFE049404A9054842
:102A70000594FFF7E7F8002801D0FDF723FE06B024
:102A800010BD0000AC0500200C4810B50A490160DB
:102A90004FF4E1314160002181600C22C160C0E946
:102AA00004128161C161FFF749FC002803D0BDE831
:102AB0001040FDF707BE10BD00380140F4050020AE
:102AC000FEE7FEE710B51420FEF71AFAAE2000F07C
:102AD00053F8202000F050F8102000F04DF840206E
:102AE00000F04AF8A12000F047F8C82000F044F8B0
:102AF000812000F041F8CF2000F03EF8A62000F041
:102B00003BF8A82000F038F83F2000F035F8A4206A
:102B100000F032F8D32000F02FF8002000F02CF85D
:102B2000D52000F029F8802000F026F8D92000F008
:102B300023F8F12000F020F8DA2000F01DF8122030
:102B400000F01AF8DB2000F017F8402000F014F82D
:102B50008D2000F011F8142000F00EF8BDE81040B0
:102B6000AF2000F009B800004FF480610148FDF784
:102B70003EBB0000D00000201CB500218DF80410E1
:102B80008DF80500481E0090022301AA7821024812
:102B9000FEF7BCFB1CBD00005805002000EB400008
:102BA00030B54006030E203A5F2A15D2072913D804
:102BB000981D802810D8D2B2084C02EB420204EBD8
:102BC0004202074C002004EBC111145C1D18401C8C
:102BD000C0B24C550628F8D330BD0000D8660008B6
:102BE000D0000020F0B5A3B040200024134E8DF893
:102BF000040001AD671E002006EBC4112B180A5C0F
:102C0000401CC0B25A708028F8D304F1B000C0B2A2
:102C1000FFF7B2FF0020FFF7AFFF1020FFF7ACFF78
:102C2000812301AA782106480097FEF76FFB641CF8
:102C3000E4B2082CDFD323B0F0BD0000D0000020A8
:102C4000580500202DE9F04300241D46164688460D
:102C500081460A2715E0281B401E81B20A2000F099
:102C600031F8B6FBF0F0B0FBF7F107FB110209EB0E
:102C7000040008F0FF01C0B23032FFF78FFF641C80
:102C8000E4B2AC42E7D3BDE8F083F0B500EB40001E
:102C90004006040E16460D4606270FE0A01D8028AC
:102CA00004D96D1C0024EDB2072D0AD8B4FBF7F04F
:102CB0002946FFF773FFA41DE4B2761C3278002A80
:102CC000ECD1F0BD0246012001E0504380B2491E24
:102CD00089B2FAD270470000174CDFF860A04FF0BD
:102CE000FF3999274FF000084FF4967603223346B8
:102CF0001146606B01F0FCF805464946A06A01F0F8
:102D0000E9F9E843800710D084F805806579A06A66
:102D100001F03DFA992D0AD0002208215046FEF715
:102D200026FA304601F078F8E0E76771EEE708210F
:102D30005046FEF714FAF4E70000002000080140B6
:102D4000A4B001273C216846FDF751FA5A4C0025F2
:102D50004FF47A71606A01F037FB4FF4FA794FF063
:102D6000FF386E464146012002F00EF84946A06A3F
:102D700001F0B0F9E07887420AD0606A01F03DFBCB
:102D8000E1784FF47A704143606A01F01DFBE77807
:102D90000A2D0FD35FF0000006EB40014A8826F8A9
:102DA0001020CA8A8A82401C4A8DC0B20A8509282E
:102DB000F2D30925607920B9002208213F48FEF7A7
:102DC000D6F90021206B01F003FA3B4901220831BA
:102DD0003B48FDF765FE4146206B01F0F9F93848A4
:102DE000FDF7E4FE3449491C481EFDF7E6FB40218F
:102DF0000FA8FDF7FCF9304832A13830FDF709FA89
:102E000000281CD140210FA8FDF7F1F9607999281D
:102E100007D12278A3789A4203D28320E0712AA1B5
:102E20000AE02278A3789A4203D28120E0712FA190
:102E300002E08220E07136A10FA800F0F3FE2078B6
:102E4000A1788842606B4FF0010102D301F026F8AF
:102E500001E000F0EEFF208940F6E441484340F6EF
:102E6000FF71B0FBF1F0217826F8151006EB450153
:102E700062788A820885A06A01F089F90E4811A15A
:102E80003830FDF7C6F968B92A4800BF90F84110FC
:102E90002129FBD00FA8FDF7B5F982B20FA925486B
:102EA000FFF7EEFA6D1C0023EDB21A466946206A60
:102EB00001F0DCF856E700000000002000080140A7
:102EC000E40400204F4E00005B434C4541525D201E
:102ED00054656D703A256443205468726573686F59
:102EE0006C643A2564430D0A000000005B4E4F52AB
:102EF0004D414C5D2054656D703A25644320546803
:102F0000726573686F6C643A2564430D0A000000B3
:102F10005B414C41524D5D2054656D703A256443D0
:102F2000205468726573686F6C643A2564430D0AB7
:102F300000000000F4050020DFF8E8917A4DDFF88A
:102F4000ECA14FF4FA774FF0010B4FF0FF384146F8
:102F5000012001F019FF02214C464846FEF7FAF81D
:102F6000F8B90F2000F058FF0221A1462046FEF7D5
:102F7000F1F8B0B90024FEF7FFF886B207E000BF11
:102F8000FEF7FAF880B2801BB8420BDA78240221EF
:102F90004846FEF7DFF80028F2D0562C02D0782CF5
:102FA00015D019E041465446DAF8280001F092F8AD
:102FB0002079012802D0022803D004E002202071E9
:102FC00001E084F804B0A06A01F0E1F804E09AF8A6
:102FD00004005446022813D040212846FEF7BAF8D0
:102FE0000028B4D10F2000F017FF40212846FEF73B
:102FF000B1F80028ABD10024FEF7BEF886B214E089
:103000004146A06A01F066F8A079072801D10020A6
:10301000A071C0B2401CA071D5E700BFFEF7ACF8AC
:1030200080B2801BB8421EDA782440212846FEF781
:1030300091F80028F2D0562C15D0782C87D19AF828
:1030400004005446022882D1A079012839D00228F0
:1030500044D00328C5D14146A06A01F03BF8E0788E
:10306000802859D05AE09AF8040054460228B8D172
:10307000A079012809D002280ED00328B1D14146F9
:10308000A06A01F027F81E204AE04146A06A01F03C
:1030900021F884F803B010E04146A06A01F01AF864
:1030A000224823A13830FDF7C2F8A06A01F06FF87A
:1030B0000221606B00F0BDFE49E7A06A01F067F8ED
:1030C00045E74146A06A01F005F8E078802801D183
:1030D0000020E070C0B2401CE070EEE74146A06AFC
:1030E00000F0F8FF114812A13830FDF792F848B10E
:1030F0000E480FA13830FDF79AF80221606B00F0FE
:1031000098FEDAE709480BA13830FDF790F8022164
:10311000606B00F0C3FED0E71E20A070A078401CBA
:10312000A070CAE7000C0140000801400000002028
:103130004F4646004F4E0000ACB01422AF49B04895
:10314000FEF76FFFDFF8B8A2DAF83C00006801680C
:1031500021F004010160DFF8ACB2AB4D0DF198092C
:1031600021AF4FF0FF384146E86A01F031F8002402
:1031700026461422A14926A8FDF720F814219F48CD
:10318000FDF735F8142121A8FDF731F8494603E091
:10319000641CE4B2142C02D2085DAA28F8D10E2CCB
:1031A000E1D800200A5D641C3A54E4B20A1912F80E
:1031B000012C552A05D0142C03D2401CC0B214286F
:1031C000F0D3402102A8FDF712F80020761C395CEC
:1031D000B6B2552903D0401CC0B21428F6D3F1B2C0
:1031E00021A8FDF7FEF848B19DF88600072875D2A2
:1031F000DFE800F0FD0A30435884BA00402102A8FD
:10320000FCF7F5FF81A1D1E0402102A8FCF7EFFF18
:103210004146A86A00F05EFF288940F6E441484331
:1032200040F6FF71B0FBF1F083B2E978A878CDE900
:1032300000012A787AA102A800F0F4FCA86A00F044
:10324000A6FF02A8FCF7DEFF82B202A96C48FFF7D6
:1032500017F988E79DF88700401E3B2807D84146AC
:10326000A86A00F037FF9DF88700E87011E0402160
:1032700002A8FCF7BCFF78A198E09DF88700401EEB
:103280007E28F4D84146A86A00F024FF9DF8870004
:10329000A870A86A00F07BFF402102A8FCF7A7FFF6
:1032A0006FA183E09DF8870068B1012817D002283C
:1032B000CFD14146A86A00F00DFF99206871A86A35
:1032C00000F065FF4FE74146A86A00F003FF0020C9
:1032D0006871A86A00F05BFF00220AE087E04146BF
:1032E000A86A00F0F7FE88206871A86A00F04FFF16
:1032F000012208215846FDF73AFF34E7402102A891
:10330000FCF775FF3C2112A8FCF771FFC8230022CF
:1033100012A9286A00F04CFE0024564696F8410097
:103320002128FBD002A8FCF76DFF014602A8FCF79C
:103330005EFF12A800EB44010A8D898ACDE90012D4
:1033400030F81430621C48A102A800F06BFC02A8FF
:10335000FCF758FF82B202A92948FFF791F8641CD4
:10336000E4B20A2CDAD3FEE69DF887004146012834
:10337000A86A1FD000F0AEFE234845A13830FCF704
:1033800056FFA86A00F003FF0221686B00F051FDB0
:103390004FEA0A0090F841102129FBD002A8FCF75F
:1033A00031FF014602A8FCF722FF3AA102A800F073
:1033B00039FC46E700F08EFE13483AA13830FCF79E
:1033C00036FFA86A00F0E3FE0221686B00F066FD9C
:1033D0004FEA0A0090F841102129FBD002A8FCF71F
:1033E00011FF014602A8FCF702FF2FA1DEE74021F2
:1033F00002A8FCF7FCFE30A1D8E70000D0040020B2
:10340000F4050020000801400000002043616C69C1
:10341000526563656976652065726F72720D0A0088
:1034200054656D703A2564E28483204C6967687442
:103430003A25646D76205468726573686F6C643ADF
:103440002564E2848320496E74657276616C3A2546
:1034500064730D0A000000004552520D0A0000007E
:103460004F4B0D0A0000000025643A2054656D7032
:103470003A2564E284832048756D693A25642525E0
:103480005248204C696768743A25646D760D0A00CD
:103490004F4646004175746F416C61726D204F4616
:1034A000460D0A004F4E00004175746F416C617209
:1034B0006D204F4E0D0A0000436D64206973207724
:1034C00061726E696E670D0A000000000027664C8D
:1034D0003E463D464FF0FF3B7F1C3C2F02D300276A
:1034E000761CB6B23C2E02D300266D1CEDB2182D10
:1034F00000D300255946A06A00F0ECFD208940F673
:10350000E4414843594994F80480B0FBF1F101F0DB
:10351000FF0A49F6F671B0FBF1F26420B2FBF0F15C
:1035200000FB1129A06A00F032FEB8F1010F03D0B0
:10353000B8F1020F57D091E0FFF716FB4CA2002123
:103540000120FFF7A2FB4CA202210120FFF79DFB07
:103550004BA203210120FFF798FB4BA2042101207D
:10356000FFF793FB6421A06A00F0B4FD02232278E8
:1035700003210820FFF766FB022362781946082022
:10358000FFF760FBA06A00F002FE0123524604210F
:103590000820FFF757FB2E2204210920FFF7FEFA2F
:1035A00002234A4604210A20FFF74CFB02232A4645
:1035B00000210620FFF746FB0223324600210920A6
:1035C000FFF740FB02233A4600210C20FFF73AFBAD
:1035D0003A2200210820FFF7E1FA3A2200210B20CD
:1035E000FFF7DCFA38E0FFF7BFFA5946A06A00F0AF
:1035F00071FD0223A27803210B20FFF723FB3C225D
:10360000A1791120FFF7CAFA174A022138320C209B
:10361000FFF73BFB0223E27801210820FFF712FBB2
:10362000A06A00F0B4FD1AA200210520FFF72DFBCF
:1036300019A201210020FFF728FB732201210A2093
:10364000FFF7ACFA16A203210020FFF71EFB17A21A
:1036500002210020FFF719FBFFF7C4FA40F2E73020
:1036600000F0DAFB38E7000000000020187C3E0084
:1036700054696D653A00000048756D693A000000B4
:1036800054656D703A0000004C696768743A000038
:10369000434F4E4649470000506572696F643A00D7
:1036A0005468726573686F6C643A00004175746F9A
:1036B000416C61726D3A000010B54FF0E020006976
:1036C00002F0BAFD012803D0BDE8104002F066B850
:1036D00010BD30B593B028216846FCF788FD142151
:1036E0000AA8FCF784FD002501210F951095080418
:1036F000CDE9001011951295029502240491CDE9AF
:1037000007404FF4E01009906846FEF709F908B148
:1037100072B6FEE70AA90F2081E831004FF48060FD
:103720000D900E9002210AA8FDF7FEFF08B172B6B7
:10373000FEE74FF4804011900F940FA8FDF77EFF35
:10374000002801D072B6FEE713B030BD704700000C
:103750000148FEF7C1BB0000C4060020F0B50268B6
:10376000194B1A4C1A4D4FF08047984205D0B84279
:1037700003D0A04201D0A84203D122F070064A68CB
:103780003243984205D0B84203D0A04201D0A842AB
:1037900003D122F44074CA6822434C6922F08002AB
:1037A000224302608A68C2620A688262984201D13A
:1037B00009690163012141610169C90703D00169F8
:1037C00021F001010161F0BD002C01400004004026
:1037D0000008004010B5846842EA032224F47F44C4
:1037E0000A432243826010BD826822F070020A43BD
:1037F00042F007018160704710B5036A046A24F043
:1038000001040462846924F0F00444EA021423F001
:103810000A020A438461026210BD10B5036A046A99
:1038200024F010040462846923F0A00324F470449B
:1038300044EA023243EA01118261016210BD10B50F
:1038400001F07EFA002805D0D0E90021BDE8104043
:103850000846104710BD10B5406A0021C185C184DB
:10386000FEF734FC10BD70B5446A2068406994F8D6
:103870004110C0F3C0100025212904D118B1E584FE
:10388000204600F0B4F82068406994F84210C0F374
:103890008010222904D118B1E585204600F080F877
:1038A000606C40F0100060642046FEF70FFC70BDB5
:1038B00010B50146406A096809684FF000028906A0
:1038C0002ED4C28501680C3151E8003F23F4807387
:1038D00041E80034002CF5D10168143151E8003F73
:1038E00023F0010341E80034002CF5D101681431C4
:1038F00051E8003F23F0400341E80034002CF5D1AB
:10390000202180F84210016B012909D101680C3196
:1039100051E8003F23F0100341E80034002CF5D1BA
:103920004263016B012902D0FEF7A8FD10BD818D15
:10393000FEF79CFB10BD10B5406A01214163016B8D
:10394000012902D0FEF79BFD10BD818D4908FEF7CD
:103950008DFB10BD10B50146406A096809688906EB
:1039600016D40021C1840168143151E8002F22F0DF
:10397000800241E80023002BF5D101680C3151E8A9
:10398000002F42F0400241E80023002BF5D110BD8A
:10399000FEF7B2FD10BD10B5406AFEF7AEFD10BDDA
:1039A00001680C3151E8002F22F4907241E80023A5
:1039B000002BF5D10168143151E8002F22F00102EB
:1039C00041E80023002BF5D1016B012909D10168E1
:1039D0000C3151E8002F22F0100241E80023002BA7
:1039E000F5D1202180F84210002101637047016861
:1039F0000C3151E8002F22F0C00241E80023002BD7
:103A0000F5D1202180F84110704708B590F8421098
:103A1000222901D0022008BD82684FF480539A42C7
:103A200001D1016921B1816A9A421BD04AB10AE0F1
:103A30000268816A5268C2F308020A80816A891C9E
:103A400008E0026972B10268526802F07F020A70EF
:103A5000816A491C8162C18D491E0904090CC18516
:103A600003D01BE002685268F1E70168CA6822F0DF
:103A70002002CA600168CA6822F48072CA600168C4
:103A80004A6922F001024A61202180F84210002197
:103A90004163026B012A03D0FEF7F0FC002008BD51
:103AA000016301680C3151E8002F22F0100241E857
:103AB0000023002BF5D101680A68D20602D50A68F6
:103AC00049680091818DFEF7D1FAE7E770B50446A9
:103AD00000680169E26821F44051114301612169E4
:103AE000A0680843616908432168CA6841F20C6311
:103AF0009A430243CA6020684169A26921F4407177
:103B0000114341611E492068884202D1FDF7D2FE6F
:103B100001E0FDF7BFFE00EBC00101EB00126068A1
:103B200064218000B2FBF0F3B3FBF1F36FF01806F1
:103B30007343B2FBF0F5B2FBF0F605EB83053223DD
:103B400003EB0515B5FBF1F5B6FBF1F605F0F00555
:103B500005EB0615B2FBF0F6B2FBF0F0B0FBF1F0AE
:103B60006FF01802504306EB800003EB0010B0FB2F
:103B7000F1F0216800F00F002844886070BD00005B
:103B80000038014038B58162044682850020134622
:103B90006064222284F84220E56B1B4AAA62E56B2E
:103BA0001A4AEA62E56B1A4A2A63E26B50630A46D4
:103BB0002168E06B091DFDF76BF92068016840681A
:103BC0000090206948B120680C3050E8001F41F493
:103BD000807140E80012002AF5D12068143050E8C6
:103BE000001F41F0010140E80012002AF5D12068D1
:103BF000143050E8001F41F0400140E80012002A54
:103C0000F5D1002038BD0000B13800083739000870
:103C1000673800080148FEF75BBA0000F405002091
:103C2000FEE700000FB4084B10B504A902AA0398E0
:103C300000F02CF8044602A9002000F0D1F820463C
:103C400010BC5DF814FB0000E13D00080907090EF7
:103C5000002804DB00F1E02080F80014704700F039
:103C60000F0000F1E02080F8141D704702E008C842
:103C7000121F08C1002AFAD170477047002001E0E6
:103C800001C1121F002AFBD1704700002DE9FF4F30
:103C900089B09B460446002506E025280BD05A46ED
:103CA0000B999047641C6D1C20780028F5D10DB04D
:103CB0002846BDE8F08F0027B8460122474900E0BA
:103CC000074314F8013F203B02FA03F00842F7D102
:103CD00020782E2819D114F8010F47F004072A285C
:103CE0000ED06FF02F022078A0F1300109290CD8F6
:103CF00008EB880102EB410100EB0108641CF2E7CC
:103D00000A98641C50F8048B0A9020780028CED0C2
:103D1000642808D0692806D075281ED05A460B9909
:103D200090476D1C58E00A994FF00A0901C90A91A1
:103D3000002802DA40422D2102E0390504D52B216A
:103D40008DF82010012103E0F90704D02021F7E7C6
:103D50008A4608AE0DE00021FAE70A994FF00A09F9
:103D600001C90A91F7E74946FCF76AFA303106F8CB
:103D7000011D0028F7D1ADEB060000F120097807FE
:103D800001D44FF00108C84502DDA8EB090000E0AE
:103D900000208046002706E008A85A46C05D0B991F
:103DA00090476D1C7F1C5745F6DB04E030205A46D7
:103DB0000B9990476D1CB8F10001A8F10108F5DCE2
:103DC00005E016F8010B5A460B9990476D1CB9F1A6
:103DD0000001A9F10109F4DC641C65E70928010070
:103DE0000A68531C0B6010707047FDF765FBFFF706
:103DF00070FCFEF791FDFEF70BFDFEF7F1FDFEF7FF
:103E000043FEFEF70DFEFEF7DDFC00F0A3F8FEF723
:103E100025FD00F0B1F8FEE710B5EFF3058111B113
:103E20006FF0050403E0002408B101F051F92046C9
:103E300010BD70B50E46050002D0300E002802D02D
:103E40006FF0030412E0EFF30580002828460AD043
:103E500001F070FB04463146284601F03FFB28B9CB
:103E60006FF0020402E001F019FB0446204670BD29
:103E700010B54FF00001EFF305826AB948B1D0E9FF
:103E800002202AB1202807D3104601F03DFB02E0B2
:103E900010B901F02BFB0146084610BD38B50C46A1
:103EA00010B1210E002902D06FF0030038BDEFF3EE
:103EB0000581B1B1002100916A46214601F08EFBD7
:103EC00060B1009920460029F0D0084A4FF0805197
:103ED0001160BFF34F8FBFF36F8F38BD6FF00200DB
:103EE00038BD214601F033FB38BD000004ED00E091
:103EF000F8B51D4616460C4610B1210E002902D019
:103F00006FF00300F8BDEFF3058111B16FF005000C
:103F1000F8BDF10701D0012300E00023B10701D56E
:103F2000002200E001222146009501F05FFBF3072B
:103F30006FF001016FF0020206D0844306D1F8BD94
:103F40000846F8BD1046F8BD0442FCD1002DF9D05A
:103F5000F6E70000EFF3058010B16FF00500704741
:103F60000448016811B14FF0FF3070470121016032
:103F700000207047A000002010B5EFF3058010B1BD
:103F80006FF0050010BD08480168012902D04FF00C
:103F9000FF3010BD054A002182F8141D0221016086
:103FA00001F0FEF9002010BDA00000200BE000E0B1
:103FB000F8B51D466FF003026FF002064FF00004E3
:103FC000EFF30583A3B1F0B1E9B1E5B900220092A6
:103FD0006A4601F0FFFE012817D10098B0B10C49E4
:103FE0004FF080500860BFF34F8FBFF36F8F0DE02D
:103FF00048B141B12A4601F051FE012806D025B151
:104000006FF0010402E0144600E034462046F8BD9B
:1040100004ED00E0F8B514464FF00005EFF305821B
:1040200012BB08B301B3A4B1D4E9023263B1502A80
:104030001AD32269C2B1676900FB01F6B74213D3F4
:10404000009501F037FC07E072B9226962B9626934
:1040500052B9002201F00DFC050005D00CB1216819
:1040600000E0002100F0D2FF2846F8BDF8B51D465B
:104070006FF003026FF002064FF00004EFF30583C8
:10408000ABB100B3F9B1F5B90022134600926A460C
:1040900001F038FD012818D10098B8B10C494FF053
:1040A00080500860BFF34F8FBFF36F8F0EE050B1A9
:1040B00049B100232A4601F075FC012806D025B13C
:1040C0006FF0010402E0144600E034462046F8BDDB
:1040D00004ED00E02DE9F0410D46014621F001001C
:1040E00001F001014FF00004EFF305820AB1A41FB3
:1040F00016E048B100296FF001066FF0020729466B
:1041000008D001F071FF07E06FF0030408E035B15B
:10411000344605E001F0ACFE0128F8D100E03C4651
:104120002046BDE8F08170B505464FF00004EFF37E
:10413000058050BB0DB1686800E00020C10701D0C8
:10414000012600E0002600071FD46DB1D5E902105A
:1041500021B1502819D31EB1042002E020B114E08F
:10416000012001F079FB05E00EB1042000E0012000
:1041700001F067FB040008D00DB1296800E00021C0
:1041800000F044FF0EB144F00104204670BD70B54C
:10419000014621F0010001F001014FF00004EFF3AE
:1041A00005820AB1A41F11E028B16FF0020529B100
:1041B00001F055FD07E06FF0030407E000231A4605
:1041C000194601F0EFFB012800D02C46204670BDB7
:1041D000F8B50D460024211F4E1C002804D000BF56
:1041E000EFF30582A2B10DB10C461BE000216A4637
:1041F000009101F0EFFD012813D1009890B10A4918
:104200004FF080500860BFF34F8FBFF36F8F09E00E
:10421000294601F02DFE012804D015B16FF00104EC
:1042200000E034462046F8BD04ED00E0F8B5144641
:1042300003460E464FF00005EFF3058098BB93B39D
:104240009E423DD84CB1A0680028E06803D05028B9
:1042500036D3012002E008B132E00020012B05D066
:1042600010B31846A26801F0CCFA20E040B1032058
:104270000090002211460120A36801F01BFB04E01E
:1042800003220021012001F0F4FA050018D086B1C4
:1042900000231A46194601F085FB012809D028465B
:1042A00000F0C8FE00250BE0184601F08DFA05006D
:1042B00006D00CB1216800E00021284600F0A6FEDF
:1042C0002846F8BD2DE9FF414FEA01034FF00005F4
:1042D000EFF30581039549BB40B3802718210024E3
:1042E0004AB3166806B1344696691EB13146761E49
:1042F000382E02D21679F60703D0002004B0BDE8AC
:10430000F081566906B1B708D2F808C0BCF1000FB9
:104310000DD0D5685C2D18D312693AB136B18DE84D
:1043200006103A46214601F0E6FE03900DE0D668FD
:104330005EB912694AB903AACDE90012BAB22146A0
:1043400001F0ACFE012800D003950398D6E70000E9
:104350002DE9FC471C469046894607464FF000066B
:10436000EFF3058058BB57B3082000F06FFC050041
:1043700025D0C5E90078B9F1000F12D00122114B08
:10438000002094B1216801B10846A16859B1E468E0
:104390002C2C11D3CDE900312B46012102F0F4F889
:1043A00008E00022EBE7E16831B900932B460121D8
:1043B00002F0D0F8060002D1284600F0B9FD3046E0
:1043C000BDE8FC873F38000808B5EFF3058212B15D
:1043D0006FF0050008BD58B10022134600920A464E
:1043E000042102F019F9012805D06FF0020008BD80
:1043F0006FF0030008BD002008BD38B50446EFF398
:10440000058010B16FF0050038BD84B1204602F080
:1044100037F978B100200346024600900321204678
:1044200002F0FAF8012808D04FF0FF3038BD6FF0E5
:10443000030038BD6FF0020038BD002038BD000019
:104440002DE9F041134C0F460546E6682068001D33
:1044500000F0CEFC681C07D137B12168BDE8F041FF
:104460000D48091D00F024BD20683544B542456063
:10447000216805D2A06BBDE8F041091D00F000BD28
:10448000606B091D00F0FCFCA06A854200D2A562A9
:10449000BDE8F08150000020FC0B00202DE9F04128
:1044A000054600F011FD2D4CA068401CA06020685E
:1044B0002B4F10B1606930B32BE02560A068012854
:1044C00027D1002606EB860007EB800000F0CAFC2F
:1044D000761C382EF6D3234800F0C4FC2148143053
:1044E00000F0C0FC1F48283000F0BCFC1D483C30E8
:1044F00000F0B8FC1B48503000F0B4FC1948606371
:104500001430A06305E02068E96AC06A884200D8D8
:104510002560606A401C60626864E86A21698842BC
:1045200000D9206100EB800007EB8000291D00F01E
:10453000BFFC00F0E9FC606900280CD02068E96A43
:10454000C06A884207D208494FF080500860BFF324
:104550004F8FBFF36F8FBDE8F08100005000002047
:104560004C070020AC0B002004ED00E038B500F053
:10457000ABFC104C2068C8B90F4800F073FC0E4823
:10458000143000F06FFC0C48E060143020610A4BDE
:104590000020F03B009003F1500210210A2001F0AE
:1045A00089F9206010B105A100F030FDBDE8384068
:1045B00000F0AABC8C000020000D0020546D725148
:1045C0000000000030B4026C0B46002A0BD0C1681A
:1045D0001144C1608468A14201D30168C16030BC4C
:1045E0001846FBF7EBBD30BC70472DE9F041856BF9
:1045F000174604460026026C82B1C7B1E068FBF79B
:10460000DDFDE168206C091AE1602268914202D266
:10461000A168081AE060022F16D017E02068A8B938
:10462000A06801F081FE06460020A0600EE06068F0
:10463000FBF7C4FD216C606808446060A168884293
:1046400004D32068606001E005B16D1E6D1CA56398
:104650003046BDE8F08110B5044690F8590058B1D5
:1046600001280CD002280FD0502080F31188BFF30E
:104670004F8FBFF36F8FFEE7206B00F059FC204691
:10468000BDE8104000F054BC10BD00000F4841F2DE
:104690008831420705D0C01D0C4A20F00700821A5D
:1046A000891A0B4A00230144C2E900030839183A69
:1046B00021F0070111604B600B600B1AC0E9001379
:1046C00093604FF00040536050617047E01300204A
:1046D000BC000020144E154CA6F29C474FF08058A9
:1046E000DFF84C9012E000BF00F0EEFBF068C56808
:1046F000281D00F07DFBA068401EA0606068401E81
:10470000606000F001FC2846FFF7A5FF6068002804
:10471000EAD138680128F9D9C9F80080BFF34F8F72
:10472000BFF36F8FF2E70000E80B0020500000207D
:1047300004ED00E0002807D00021816001600B46F5
:104740000A46C16001F02EB97047000070B51D46E1
:10475000049C51B1C4F80020C4E90F010121204696
:1047600001F0DCF884F84C5070BD2460F4E70000E0
:104770002DE9F05F8846DDE90B94154683469100EC
:104780009A460A9EA522206BFBF72AFD6FF00301D3
:10479000206B01EB8501084420F00707780707D05C
:1047A000502080F31188BFF34F8FBFF36F8FFEE768
:1047B0000025B8F1000F0FD05FF00000221818F8A4
:1047C000001082F8341018F8001011B1401C1028A5
:1047D000F4D384F8435001E084F83450382E00D3E9
:1047E0003726E662C4E91365201D00F046FB04F19C
:1047F000180000F042FB2461C6F138006462A06139
:10480000656584F8585052465946384600F0AAFA71
:104810002060B9F1000F01D0C9F80040BDE8F09F59
:104820002DE9F0471E46DDE9089417460D00804645
:1048300015D0002C11D0FFF799FE04F11801C4F82F
:10484000008081E86002201D00F017FB002F04D0DB
:1048500014F8280F40F004002070BDE8F0875020C5
:1048600080F31188BFF34F8FBFF36F8FFEE7000017
:1048700030B5114900E011460A688242FBD34B680B
:104880005C18844203D14068184448600846436875
:104890001C18944209D1084C183C2468A24209D043
:1048A00052681A4442600A6812680260814200D06D
:1048B000086030BD0460F9E7BC00002070B500243A
:1048C00041600B4D0061914206D8D11A8269914234
:1048D00006D2011D286907E09A4203D2994201D30A
:1048E000012403E0011DE86800F0CAFA204670BD0B
:1048F0008C00002010B5044600F0E6FAA06B28B149
:104900005FF0000400F000FB204610BD0124F9E731
:1049100030B589B03C4D6EE00498002806DADDE938
:104920000601059A90470498002864DB069C60699C
:1049300010B1201D00F05CFA03A800F0D7F8024681
:1049400004980A2857D2DFE800F00505052D334A00
:1049500005052D3394F8280040F0010084F8280064
:104960000599A069059B01442046FFF7A7FF68B39E
:10497000216A2046884794F8280040073BD500204C
:1049800000900598A169002342181946204601F0BD
:1049900043FED8B9502080F31188BFF34F8FBFF387
:1049A0006F8FFEE714F8280F20F00100207022E03E
:1049B00094F8280040F0010084F828000598A061D0
:1049C00028B1811813462046FFF778FF13E05020E6
:1049D00080F31188BFF34F8FBFF36F8FFEE794F81A
:1049E0002800810703D4204600F0A2FA03E020F05B
:1049F000010084F82800002204A9286801F04EF97B
:104A0000002889D109B030BD8C0000202DE9FC417F
:104A10000F46054600F008FD01A800F067F80446BF
:104A2000019818B101F034FDBDE8FC81254EAFB10D
:104A300030690068D0B30027291B3A46306800F07F
:104A400025FB01F025FD0028EED11F494FF08050D5
:104A50000860BFF34F8FBFF36F8FE5E7A542EBD838
:104A600001F016FDF0682746C068C468201D00F0FC
:104A7000BFF994F82800410719D5A0692B464119C0
:104A80003A462046FFF71AFFA8B100200346014628
:104A900000902A46204601F0BFFD60B9502080F307
:104AA0001188BFF34F8FBFF36F8FFEE707E020F051
:104AB000010084F82800216A20468847B4E70127CE
:104AC000BAE700008C00002004ED00E00648416BCE
:104AD000096829B1416BC968C96849688162704732
:104AE0004FF0FF31FAE700005000002070B5054696
:104AF00001F0B0FB064E0446B068844203D200F0D9
:104B000009F8012000E0002028602046B46070BD54
:104B10008C000020F8B5194D20E0C068C468066814
:104B2000201D00F065F9216A2046884794F8280086
:104B3000400713D5A0693044B04206D924616060B3
:104B4000211DE86800F09CF908E0002003460146BA
:104B500000903246204601F05FFD38B1E8680168F8
:104B60000029DAD12969C5E90310F8BD502080F386
:104B70001188BFF34F8FBFF36F8FFEE78C000020CB
:104B800008484068401C4FF0500080F3118804D062
:104B9000BFF34F8FBFF36F8FFEE7BFF34F8FBFF3AE
:104BA0006F8FFEE7C40000200346002012B1994336
:104BB00002D070470B42FCD001207047074CE068E0
:104BC000016841B1C0680021D0F80000FFF71EFF66
:104BD000FFF79EFEF3E701210020F7E78C0000209D
:104BE0002DE9F041044600F06FF994F9455004F1C5
:104BF000240609E0606A48B1304601F011FC08B1B2
:104C000000F094FA6D1E6DB2002DF3DC4FF0FF360C
:104C100084F8456000F078F900F056F994F94450B2
:104C200004F1100709E0206948B1384601F0F8FBAB
:104C300008B100F07BFA6D1E6DB2002DF3DC84F834
:104C40004460BDE8F04100F05FB900002DE9F0419B
:104C50000546002700F0E8FB324E306808B9FFF740
:104C600015FD706905424ED1C5B3083568070ED0F1
:104C700005F00700C0F108000544680707D0502080
:104C800080F31188BFF34F8FBFF36F8FFEE72DB313
:104C90007068854237D82348183001460C6801E017
:104CA00020460C466168A94202D221680029F7D14A
:104CB00031688C4227D00768216801606068083736
:104CC000411B10290FD96019420708D0502080F3EA
:104CD0001188BFF34F8FBFF36F8FFEE713E0416082
:104CE0006560FFF7C5FD61687068401A7060B26862
:104CF000904200D2B060706901430020C4E9000115
:104D0000F068401CF06001F0C3FB780707D050202A
:104D100080F31188BFF34F8FBFF36F8FFEE73846E4
:104D2000BDE8F081A40000200449086818B10868B3
:104D3000026D521C02650868704700005000002098
:104D400010B5040006D000F0BFF8E46900F0DCF80C
:104D5000204610BD502080F31188BFF34F8FBFF362
:104D60006F8FFEE710B5031F4FF080741C601B1F90
:104D700021F001011960191F024B0B6014394038F2
:104D80000A6010BD814B000870B50C46064600F065
:104D90009BF8154D2868406D80B92968012081F87D
:104DA00058005CB101212046FFF74AFB0F494FF044
:104DB00080500860BFF34F8FBFF36F8F00F0A4F8EF
:104DC00000F082F82868446D002034B116B12968DB
:104DD000486502E02A68611E5165296881F858001B
:104DE00000F092F8204670BD5000002004ED00E075
:104DF000D0E9013201699A60D0E901235A604A681A
:104E0000824201D182684A60002202610868401E25
:104E10000860086870470000044908680A688069EB
:104E2000D26A0968C2F138028A61704750000020D6
:104E3000034B036003F15C00086080201060704742
:104E4000280D0020044B036003F15C0008604FF460
:104E50008070106070470000840F002000F01EBBBF
:104E600000F075BB00F108014FF0FF32C0E90112FC
:104E7000C16001610021016070470021016170473C
:104E800030B50B685A1C02D000F1080202E002693A
:104E900004E02246546825689D42FAD953684B6065
:104EA00099608A60516008610168491C016030BDE9
:104EB00042684A6093688B609368596091600861AA
:104EC0000168491C01607047502080F31188BFF3CE
:104ED0004F8FBFF36F8F0A494868401C4860012814
:104EE0000CD10848006810F0FF0F07D0502080F365
:104EF0001188BFF34F8FBFF36F8FFEE7704700003D
:104F0000C400002004ED00E00849486828B1401EB4
:104F1000486001D180F311887047502080F31188D8
:104F2000BFF34F8FBFF36F8FFEE70000C400002078
:104F300070B500282AD0164DA0F108046068696990
:104F4000084207D1502080F31188BFF34F8FBFF381
:104F50006F8FFEE722683AB1502080F31188BFF3CB
:104F60004F8FBFF36F8FFEE78843606000F05CFAFD
:104F700060686968084468602046FFF779FC286922
:104F8000401C2861BDE8704001F082BA70BD00008D
:104F9000A40000204FF0E02000210161816105495B
:104FA0004FF47A720968B1FBF2F1491E41610721A1
:104FB000016170474C00002010B5FBF7E9F811497A
:104FC00010280ED300F1E02090F8F0030A78904208
:104FD00007D2502080F31188BFF34F8FBFF36F8F3C
:104FE000FEE709480068896800F4E060884207D954
:104FF000502080F31188BFF34F8FBFF36F8FFEE710
:1050000010BD0000C40000200CED00E010B5084BFE
:10501000002200BF53F832401CB1521C082AF9D3B9
:1050200010BD43F8321003EBC201486010BD000010
:105030000C07002010B504000AD000F013F894F813
:10504000460000280CD12046BDE81040FFF770BF95
:10505000502080F31188BFF34F8FBFF36F8FFEE7AF
:1050600010BD0000084A002102EBC1035B688342C7
:1050700006D1002042F8310002EBC10148607047C0
:10508000491C0829F0D370470C07002070B515465D
:105090000E460446FFF718FF94F944100020491CFF
:1050A00001D184F8440094F94510491C01D184F8D9
:1050B0004500FFF729FFA06B28B92A46314604F1C5
:1050C000240000F0A9F82046BDE87040FFF788BD35
:1050D00010B5020014D00F48006B38B1502080F397
:1050E0001188BFF34F8FBFF36F8FFEE700F09CF97D
:1050F00000211046FFF7A4F901F0CAF9002807D1F2
:1051000005494FF080500860BFF34F8FBFF36F8F9A
:1051100010BD00005000002004ED00E002490A6AC2
:105120000260C968416070475000002001490120B9
:10513000C8617047500000202DE9F0410E46040080
:1051400015D0FFF739FF5020EFF3118580F3118858
:10515000BFF34F8FBFF36F8F94F85800022184F88C
:105160005810616D491C6165012808D031E050205C
:1051700080F31188BFF34F8FBFF36F8FFEE7A06AF4
:1051800038B1502080F31188BFF34F8FBFF36F8F7A
:10519000FEE7124F386B18B104F1180110480DE00A
:1051A000201DFFF725FEE06A3969884200D9386181
:1051B0000C4900EB800001EB8000211DFFF778FE19
:1051C000E06A3968C96A884203D9012006B13060B3
:1051D000F86185F31188BDE8F081000050000020DF
:1051E000D40B00204C07002010B50C4650B10949E3
:1051F00009681831FFF744FE2046BDE81040012140
:10520000FFF71EB9502080F31188BFF34F8FBFF313
:105210006F8FFEE75000002070B514460D4668B150
:105220000A4909681831FFF743FE0CB14FF0FF350A
:1052300021462846BDE87040FFF702B9502080F3B0
:105240001188BFF34F8FBFF36F8FFEE75000002030
:1052500010B51446030011D01048026BB2B10268B9
:1052600041F000419161016818461831FFF720FEB6
:105270002046BDE810400121FFF7E2B8502080F33E
:105280001188BFF34F8FBFF36F8FFEE7502080F37D
:105290001188BFF34F8FBFF36F8FFEE750000020E0
:1052A00070B504003ED0226DA2B1E06C884200D3FC
:1052B0000146E06A884235D0012A33D11A4D2A6866
:1052C00094420FD1502080F31188BFF34F8FBFF36A
:1052D0006F8FFEE7502080F31188BFF34F8FBFF32D
:1052E0006F8FFEE7E162A269002A02DBC1F138019B
:1052F000A1610E4E00EB8000616906EB80008142E7
:1053000010D1201DFFF774FDE06A2969884200D999
:10531000286100EB800006EB8000211DBDE8704095
:10532000FFF7C6BD70BD0000500000204C070020F4
:1053300070B5194D2A6BF2B141F000410160C468AB
:105340000CB3FFF755FD201DFFF752FDE06A2969F8
:10535000884200D92861114900EB800001EB8000F0
:10536000211DFFF7A5FDE06A2968C96A884201D9B5
:105370000120E86170BD502080F31188BFF34F8F8A
:10538000BFF36F8FFEE7502080F31188BFF34F8F7C
:10539000BFF36F8FFEE70000500000204C07002095
:1053A00030B587B00024039405AA04A903A8049487
:1053B000FFF73EFDDDE903010094CDE90110002374
:1053C00015A11748059A00F096FE164D0028E862D0
:1053D0001FD001F0F1F8012809D0401C19D150204C
:1053E00080F31188BFF34F8FBFF36F8FFEE750201C
:1053F00080F31188BFF34F8FBFF36F8F4FF0FF30F3
:10540000A86201206861EC6007B0BDE8304000F0A0
:1054100071B907B030BD000049444C4500000000A0
:10542000D5460008500000200248016B491C01636A
:105430007047000050000020164810B5016B11B1F4
:105440000121C16110BD0021C1610169124A01E061
:10545000B9B1491E01EB810352F82330002BF7D07C
:1054600001EB810302EB830202F1080453685B68DD
:105470005360A34201D15B685360DA680260016146
:1054800010BD502080F31188BFF34F8FBFF36F8F93
:10549000FEE70000500000204C07002070B50E46CB
:1054A000040009D0300E0FD0502080F31188BFF3D4
:1054B0004F8FBFF36F8FFEE7502080F31188BFF34B
:1054C0004F8FBFF36F8FFEE7FFF7FEFC256825EADD
:1054D00006002060FFF718FD284670BD0A46014609
:1054E0000023014801F0E4B85D4E000870B52020AB
:1054F000FFF7ACFB040005D00025201D2560FFF759
:10550000B1FC2577204670BD38B558B1202104463E
:10551000002000912060201DFFF7A4FC01202077CF
:10552000204638BD502080F31188BFF34F8FBFF362
:105530006F8FFEE75022EFF3118182F31188BFF3E2
:105540004F8FBFF36F8F006881F3118870472DE98B
:10555000F0410027884604000AD05FEA18600FD0A7
:10556000502080F31188BFF34F8FBFF36F8FFEE79A
:10557000502080F31188BFF34F8FBFF36F8FFEE78A
:10558000261D04F10C05FFF74FFF2168F06841EA82
:105590000801216017E0D0E9001601F07F425301B5
:1055A000236821F07F4102D40B4203D10AE031EAA3
:1055B000030307D1D20100D50F43216841F00071E8
:1055C000FFF7B6FE3046A842E5D12068B843206018
:1055D00000F05EFF2068BDE8F081000013460A4637
:1055E0000146014801F064B8614E00082DE9F0471A
:1055F0009A46DDF8209090460D4604004FF00007D3
:1056000009D0280E0FD0502080F31188BFF34F8FA0
:10561000BFF36F8FFEE7502080F31188BFF34F8FE9
:10562000BFF36F8FFEE71DB100F006FE40B112E040
:10563000502080F31188BFF34F8FBFF36F8FFEE7C9
:10564000B9F1000F07D0502080F31188BFF34F8FBE
:10565000BFF36F8FFEE7FFF7E7FE26685246294645
:105660003046FFF7A1FA30B1B8F1000F1AD0206828
:10567000A843206016E0B9F1000F13D0B8F1000F75
:1056800001D04FF08077BAF1000F01D047F080676A
:1056900045EA07014A46201DFFF7DAFD00F0F8FE53
:1056A00018B10AE000F0F4FE1FE011494FF08050FD
:1056B0000860BFF34F8FBFF36F8FFFF7ADFB064658
:1056C000800110D4FFF700FC266852462946304678
:1056D000FFF76AFA28B1B8F1000F02D02068A8439A
:1056E0002060FFF711FC26F07F463046BDE8F087CA
:1056F00004ED00E01CB5264908780190FF200870F1
:1057000008788DF800009DF800009DF8002000F05A
:10571000F000904207D0502080F31188BFF34F8FE4
:10572000BFF36F8FFEE79DF800001A4C00F05000A9
:1057300020700720A06005E09DF8002052008DF841
:105740000020401E9DF800201206F5D4A06003281A
:1057500007D0502080F31188BFF34F8FBFF36F8FB6
:10576000FEE74FF44070A060019808700A48016895
:1057700041F470010160016841F070410160FFF780
:1057800009FC00206060FAF7CDFC00201CBD000081
:1057900000E400E0C400002020ED00E010B550203F
:1057A00080F31188BFF34F8FBFF36F8F00F058FD68
:1057B00018B104494FF080500860002080F3118830
:1057C00010BD000004ED00E010B50C4648B1844265
:1057D0000FD9502080F31188BFF34F8FBFF36F8F25
:1057E000FEE7502080F31188BFF34F8FBFF36F8F18
:1057F000FEE70222002100F03CF8002800D084637C
:1058000010BD38B50C4648B184420FD9502080F302
:105810001188BFF34F8FBFF36F8FFEE7502080F3E7
:105820001188BFF34F8FBFF36F8FFEE7022113463E
:1058300000220091114600F03DF8002800D084635A
:1058400038BD10B502460021012000F012F80446D0
:10585000FEF770FF204610BD38B50B4600220090C1
:105860001146012000F026F80446FEF763FF2046AB
:1058700038BDF8B517460E46050013D005FB06F0F7
:105880005030FFF7E3F904000AD0002084F8460006
:1058900004F150023B46314628460094FEF756FF7D
:1058A0002046F8BD502080F31188BFF34F8FBFF31F
:1058B0006F8FFEE738B5049D18B153B1CAB181B1FD
:1058C00020E0502080F31188BFF34F8FBFF36F8F1C
:1058D000FEE7502080F31188BFF34F8FBFF36F8F27
:1058E000FEE7502080F31188BFF34F8FBFF36F8F17
:1058F000FEE739B1502080F31188BFF34F8FBFF31B
:105900006F8FFEE750241C46012384F846302B4657
:105910000094FEF71BFF204638BD000070B50D4611
:10592000040025D0FFF7D0FAD4E90F20216802FB4C
:105930000011A1600021A163216861600A46D4E9D9
:105940000F01401E00FB0121E16021464FF0FF30B6
:1059500001F8440F487004F110008DB1FFF782FA8E
:1059600004F12400FFF77EFAFFF7CEFA012070BDA4
:10597000502080F31188BFF34F8FBFF36F8FFEE786
:1059800021690029F0D000F04BFD0028ECD004493B
:105990004FF080500860BFF34F8FBFF36F8FE3E786
:1059A00004ED00E02DE9FF4782B01D468A464FF026
:1059B0000008040003D0BAF1000F08D011E0502015
:1059C00080F31188BFF34F8FBFF36F8FFEE7206C1A
:1059D00038B1502080F31188BFF34F8FBFF36F8F22
:1059E000FEE7022D0AD1E06B012807D0502080F39A
:1059F0001188BFF34F8FBFF36F8FFEE700F01CFCE1
:105A00003F4F4FF000094FF0805648B9049838B125
:105A1000502080F31188BFF34F8FBFF36F8FFEE7E5
:105A2000FFF752FAA06BE16B884207D3022D05D035
:105A30000498D0B1B8F1000F1AD01EE02A465146A2
:105A40002046FEF7D2FD616A19B104F1240000F08E
:105A5000E7FC20B13E60BFF34F8FBFF36F8FFFF7BE
:105A600053FA012006B0BDE8F087FFF74DFA22E0B7
:105A70006846FFF753FB4FF00108FFF745FAFFF7C1
:105A8000D3FCFFF721FA94F94400401C01D184F8BB
:105A9000449094F94500401C01D184F84590FFF7EB
:105AA00033FA04A9684600F0BFFA30B12046FFF788
:105AB00097F800F0EDFC0020D4E7FFF705FAA06BA3
:105AC000E16B884213D1FFF71FFA04F1100004992B
:105AD000FFF78AFB2046FFF783F800F0D9FC002887
