:020000040800F2
:10000000B0390020990100081F340008672C00084F
:100010001D34000815070008913C0008000000008E
:1000200000000000000000000000000001010008C6
:10003000930900080000000045010008013700088E
:10004000B3010008B3010008B3010008B3010008C0
:10005000B3010008B3010008B3010008E10C000877
:10006000B3010008B3010008B30100084509000806
:10007000B3010008B3010008510900085D09000838
:10008000B3010008B301000865020008B3010008CD
:10009000B3010008B3010008B3010008B301000870
:1000A000B3010008B3010008B3010008B301000860
:1000B000B3010008B301000899370008B301000834
:1000C000B3010008B3010008B3010008B301000840
:1000D000B3010008853C0008B3010008B301000823
:1000E000D90C0008B3010008B3010008DFF80CD0F8
:1000F00000F0A6F800480047F93E0008B03900209B
:10010000224B19680868B0E8F00F80F30988BFF344
:100110006F8F4FF0000080F311884EF00D0E704786
:100120000000000006480068006880F3088862B696
:1001300061B6BFF34F8FBFF36F8F00DF00BF00BF0B
:1001400008ED00E0EFF30980BFF36F8F0F4B1A68E3
:1001500020E9F00F106008B54FF0500080F31188CF
:10016000BFF34F8FBFF36F8F05F052FA4FF00000CF
:1001700080F31188BDE8084019680868B0E8F00FFE
:1001800080F30988BFF36F8F704700BF38000020ED
:10019000EFF3058070470000064880470648004797
:1001A000FEE7FEE7FEE7FEE7FEE7FEE7FEE7FEE727
:1001B000FEE7FEE795370008ED00000840EA01037E
:1001C0009B0703D009E008C9121F08C0042AFAD20D
:1001D00003E011F8013B00F8013B521EF9D27047D1
:1001E000D2B201E000F8012B491EFBD27047002279
:1001F000F6E710B513460A4604461946FFF7F0FF26
:10020000204610BD421C10F8011B0029FBD1801AAA
:10021000704730B50B46014600202022012409E03A
:1002200021FA02F59D4205D303FA02F5491B04FAAF
:1002300002F52844151EA2F10102F1DC30BD0000D8
:10024000064C074D06E0E06840F0010394E8070023
:1002500098471034AC42F6D3FFF74CFF9C6C000873
:10026000BC6C0008014800F0DFBD0000C8000020A1
:1002700070B5044600688168C943C90717D1816811
:1002800021F00101816001F089FA05460AE000BF12
:1002900001F084FA401B022804D920688068C0431A
:1002A000C00706D020688068C043C007F0D0002097
:1002B00070BDA06A40F01000A062E06A40F001004A
:1002C000E062012070BD10B50146406A826A12F0FA
:1002D000500F05D0006A026BBDE810400846104779
:1002E000816A41F40071816201688968C1F3424109
:1002F00007290CD1017B51B9816A21F48071816297
:10030000816AC90403D4816A41F00101816200F06D
:100310006BFD10BD10B5406A816A41F040018162F9
:10032000C16A41F00401C16200F07DFD10BD10B54D
:10033000406A00F077FD10BDF8B50026044600962F
:1003400000688168C943C9072DD0816841F0010167
:100350008160164816490068B0FBF1F000E0401ECD
:1003600000900028FBD101F019FA054616E000BF05
:1003700001F014FA401B022810D920688068C0439D
:10038000C0070BD0A06A40F01000A062E06A40F005
:100390000100E06284F824600120F8BD20688068D4
:1003A000C043C007E4D10020F8BD000034000020A5
:1003B00040420F00DFF868801A4C1B4D4FF0FF3BA6
:1003C0004FF099094FF0000A4FF4967703223B460D
:1003D0001146D8F8000003F015FE0646594620687D
:1003E00003F002FFF043800711D0504685F800A0CB
:1003F000C6B2206803F055FF992E0CD000220821C8
:100400000A4803F04DFD384603F08FFDDEE748460D
:1004100085F80090ECE70821044803F03FFDF2E77F
:10042000240000201C000020C30000200008014020
:10043000F0B50446837860480025691E5C4E5D4F28
:100440000268A1B0072B7BD2DFE803F0AF042633AC
:1004500042608C000446104603F0C6FE574840F642
:10046000E4410088484340F6FF71B0FBF1F083B2ED
:1004700031783878CDE90001514852A1027802A8BC
:1004800003F008FC206803F00CFF02A8FFF7BAFE97
:100490000146C82202A87DE0E3785B1E3B2B06D80C
:1004A0000546104603F0A0FEE07830700BE052A441
:1004B0006AE0E3785B1E7E2BF9D80546104603F010
:1004C00093FEE0783870286803F0EBFE4CA45BE004
:1004D0000646104603F088FEE1784B4A4B4821B1AE
:1004E000012905D002290AD00BE01570002202E094
:1004F000882111700122082103F0D2FC01E099202B
:100500001070306803F0CDFE21B0F0BD3C2112A880
:10051000FFF76DFE3E48C823002212A9006803F0D1
:10052000D1FD0028F0D100240DF1480505EB440071
:10053000621C018D808ACDE9000135F8143000E09D
:1005400033E034A102A803F0A5FB02A8FFF75AFE8E
:100550000146C82202A803F0BFFC641CE4B20A2CC6
:10056000E4D3D1E70646104603F03EFEE178334877
:10057000334A012911D005700221106803F0E2FC12
:1005800030A4306803F08DFE2046FFF73BFE0146A5
:10059000C822204603F0A0FCB6E701210170022129
:1005A000106803F005FD2BA4EBE72EA4ECE7000098
:1005B000C1000020C00000201C000020BE00002060
:1005C000BC00002054656D703A256443204C696777
:1005D00068743A25646D76205468726573686F6C30
:1005E000643A25644320496E74657276616C3A25DD
:1005F00064730D0A000000004552520D0A0000000D
:100600004F4B0D0A00000000C3000020000801400D
:100610001400002025643A2054656D703A25644327
:100620002048756D693A256425255248204C696734
:1006300068743A25646D760D0A000000C50000203C
:10064000240000204175746F416C61726D204F462B
:10065000460D0A004175746F416C61726D204F4EFA
:100660000D0A0000436D64206973207761726E6922
:100670006E670D0A0000000070B588B006460020C5
:1006800000900190049021480D46816941F00801D5
:100690008161806902A900F0080006904FF4805043
:1006A00002900120039003200590194800F074FF88
:1006B000002000F0EDF9142003F0CFFB04F0F0FC73
:1006C000684600F073F9040015D19DF800009DF80C
:1006D00001109DF8032001449DF8020002441144DA
:1006E0009DF80420914204D130709DF800002870DC
:1006F00001E06FF0030404F0F3FC00F09DF9012029
:1007000000F0C6F908B0204670BD0000001002409D
:10071000000C0140FEE700000348002302221946B6
:10072000006805F0FFBD000000000020A8B0012611
:100730003C216846FFF75BFD594800244FF47A716D
:10074000006803F0CBFEDFF85CB100BF4FF0FF356F
:100750002946012004F004FC2946DBF8000003F0E0
:1007600043FD514F387886420BD04D4E306803F030
:10077000CEFE39784FF47A704143306803F0AEFE14
:100780003E780A2C10D300204FEA0D0202EB400104
:100790004B8822F81030CB8A8B82401C4B8DC0B224
:1007A0000B850928F2D30924DFF8008198F80000AE
:1007B00020B9002208213E4803F072FB3D4F002182
:1007C000386803F08FFD01223B493C4800F078FC7B
:1007D0002946386803F086FD384800F0F7FC3849B0
:1007E0003848FFF749FF374840F6E4410578344878
:1007F00090F800903448077898F800002690334825
:1008000090F800A02C480088484340F6FF71B0FBE8
:10081000F1F01FFA80F82E48BD424FF00101006848
:1008200002D303F0C5FB01E003F08CFB684600EB4C
:1008300044002DF81450A0F81490A0F82880DBF89C
:10084000000003F02EFDBAF1010F1ED140210FA8C8
:10085000FFF7CDFC2698992805D1BD4203D23B462F
:100860002A461CA106E0BD423B462A4601D222A1EF
:1008700000E02AA10FA803F00DFA0FA8FFF7C2FCB1
:100880000146C8220FA803F027FB2D4800231A4673
:100890006946006803F074FC641CE4B256E700008B
:1008A000180000201C000020C1000020C300002010
:1008B0000008014020000020BE000020C8000020E9
:1008C000BD000020BC000020C0000020C5000020AA
:1008D000240000205B434C4541525D2054656D70FF
:1008E0003A256443205468726573686F6C643A25D6
:1008F00064430D0A000000005B4E4F524D414C5DB9
:100900002054656D703A256443205468726573689D
:100910006F6C643A2564430D0A0000005B414C4152
:10092000524D5D2054656D703A25644320546872C1
:100930006573686F6C643A2564430D0A000000001B
:1009400014000020014800F0DBBC0000F80000208B
:10095000014800F0D5BC0000BC020020014800F0B6
:10096000CFBC00007802002030B590F84050012440
:10097000AC40C56B6C60046863604368102B03680F
:1009800003D099600068C26030BD9A600068C160A1
:1009900030BD704710B54FF48051034800F0ECFEB5
:1009A000012800D0002010BD000C01402DE9F047C7
:1009B0000546012000F06CF81B2003F059FA00F006
:1009C0003BF842F210763146002000F053F86FF009
:1009D000010970B33146012000F04CF848B33146AC
:1009E000002000F047F820B30024A04605F804805A
:1009F0000027285D314640002855012000F03AF8D4
:100A0000B8B1242003F034FAFFF7C4FF18B1285D11
:100A100040F0010028553146002000F02BF840B18D
:100A20007F1C082FE5D3641C052CDFD30020BDE814
:100A3000F087FFE74846FAE700B585B0002001904F
:100A400003900A48816941F0080181618069694623
:100A500000F0080004904FF48050009001200290B4
:100A6000034800F099FD05B000BD000000100240F1
:100A7000000C014070B50C46054605E0FFF78AFF03
:100A8000A84201D1012070BD2046641EF6D270BD7F
:100A900008B1012200E000224FF48051014800F02B
:100AA00078BE0000000C01400026DFF8B4B13446E7
:100AB0003546761C3C2E0AD3641C0026A4B23C2C7E
:100AC00005D36D1C0024EDB2182D00D300259BF832
:100AD0000000012802D0022871D0BAE061486421E8
:100AE000006803F081FB604840F6E44190F800A004
:100AF0005E4890F800905E48008848435D49B0FB2E
:100B0000F1F11FFA81F849F6F671B0FBF1F06421BA
:100B1000B0FBF1F201FB12075248006803F0C1FB81
:100B200002F0D0FC54A20021012002F064FD54A286
:100B30000221012002F05FFD53A20321012002F0F7
:100B40005AFD53A20421012002F055FD0223524612
:100B50000321082002F024FD02234A4619460820FA
:100B600002F01EFD012342460421082002F018FD78
:100B70002E220421092002F0BFFC02233A46042160
:100B80000A2002F00DFD02232A460021062002F071
:100B900007FD022322460021092002F001FD022365
:100BA000324600210C2002F0FBFC3A2200210820F2
:100BB00002F0A2FC3A2200210B2046E0FFE7294880
:100BC0006421006803F010FB334890F800A033481C
:100BD00090F80090324890F8008032480078012860
:100BE0003CD031A71F48006803F05BFB02F06AFCB1
:100BF0002EA20021052002F0FEFC2EA201210020E1
:100C000002F0F9FC2DA20221002002F0F4FC2EA239
:100C10000321002002F0EFFC0223524603210B20A7
:100C200002F0BEFC3C224146112002F065FC3A462F
:100C300002210C2002F0DFFC02234A460121082099
:100C400002F0AEFC732201210A2002F055FC02F0F2
:100C500077FC40F2E73003F068F92AE71DA7C1E707
:100C6000C20000201C000020BC000020BD000020AD
:100C7000BE000020187C3E0054696D653A000000FB
:100C800048756D693A00000054656D703A000000C7
:100C90004C696768743A0000C0000020C100002061
:100CA000C4000020C50000204F464600434F4E467A
:100CB00049470000506572696F643A004175746F6E
:100CC000416C61726D3A00005468726573686F6CB4
:100CD000643A00004F4E00004FF4006000F050BC3A
:100CE000022000F04DBC72B6FEE77047F8B5002454
:100CF000009490F824202546012A12D0012280F881
:100D000024204A681F23072A0DD20668776B521EDB
:100D100002EB820293409F430B6893401F4377632B
:100D200019E00220F8BD06680D2A0AD2376BD21FDF
:100D300002EB820293409F430B6893401F4337634B
:100D400009E0F76A0D3A02EB820293409F430B6879
:100D500093401F43F7620A68072306680A2A0AD3EA
:100D6000F7680A3A02EB420293409F438B68934034
:100D70001F43F76008E0376902EB420293409F434C
:100D80008B6893401F4337610A68102A01D0112AEB
:100D900020D1124B02689A4217D193681B0219D4D2
:100DA000936843F4000393600968102912D10C4939
:100DB0000C4A0968B1FBF2F101EB8101490000E046
:100DC000491E00910029FBD104E0816A41F0200115
:100DD0008162012480F824502046F8BD002401409F
:100DE0003400002040420F0008B500680A498842DC
:100DF00011D10020009009486946006804F0CDFF39
:100E00000098002807D006494FF080500860BFF3D3
:100E10004F8FBFF36F8F08BD0024014020000020DA
:100E200004ED00E07047704770B50446006806683E
:100E30004568A90625D5B10723D5A16AC90603D4FB
:100E4000A16A41F40071A1628168C1F3424107299E
:100E500010D1217B71B9416821F020014160A06A65
:100E600020F48070A062A06AC00403D4A06A40F09D
:100E70000100A0622046FFF7B7FF21686FF0120063
:100E8000086028062ED570072CD5A06AC00603D4AA
:100E9000A06A40F40050A06220688168C1F302316A
:100EA000072909D04168490515D48168C1F3424139
:100EB000072910D1217B71B9416821F0800141607F
:100EC000A06A20F48050A062A06AC00503D4A06A82
:100ED00040F00100A0622046FFF707FF21686FF095
:100EE0000C00086068060CD5F0070AD0A06A40F430
:100EF0008030A062204600F093F821686FF0010076
:100F0000086070BD2DE9F0414FF0000704003D4638
:100F10007ED0A06A002628B9E66284F824602046C4
:100F200000F080F82046FFF7A3F9A16AC90600D4B3
:100F300020B1A06A40F01000A06269E0A16A21F42B
:100F4000885141F00201A1626268E169237B0A4392
:100F500047EA43010A43A1684FF48077B94209D0B8
:100F6000012907D05FF0000194F814C0BCF1010F13
:100F700002D00AE03946F7E7F3B1A36A43F0200351
:100F8000A362E36A43F00103E3622368D3F804C079
:100F90002CF4694C4CEA010CC3F804C021688B683E
:100FA000DFF870C003EA0C0313438B60A168B942F9
:100FB0000BD0012909D00CE0DFF85CC0A3690CEB71
:100FC00043330B4343F40061DFE7218A0D05A5F5A8
:100FD00080152168CB6A23F470032B43CB62216810
:100FE00089680E4B1940914208D1E662A16A21F04E
:100FF000020141F00101A162BDE8F081A06A20F088
:10100000020040F01000A062E06A40F00100E062DF
:101010000120F1E7FDF7E1FF00E0FFFFFE0E1FFFFB
:101020007047000070B586B0002506460095019512
:101030000295039500681D49884235D11C4988698D
:1010400040F400708861886900F400700490886939
:1010500040F0040088618869694600F0040004904B
:101060000120009003200190124800F095FA134CE3
:101070001148C4E900058020C4E902504000206105
:101080008000C4E905052046E56100F0E3F908B1F8
:10109000FFF729FE3462002205211220666200F06B
:1010A000ADFD122000F09CFD06B070BD0024014093
:1010B000001002400008014008000240F800002033
:1010C0002DE9F047894604463B4900683B4F0E1D19
:1010D0009046884201D0B84207D1306810F4702F92
:1010E00003D001252846BDE8F08794F824000128A4
:1010F0000CD0012084F824002046FFF71DF90500DC
:101100004FF0000004D084F82400EBE70220EAE767
:10111000A16A40F60162914341F48071A1622168A5
:10112000B94218D1326812F4702F14D0A16A41F478
:101130008011A1623168490505D5A16A21F40051E9
:1011400041F48051A162A16AC9040AD5E16A21F083
:101150000601E16206E0A26A22F48012A2624968F6
:10116000E9E7E06284F82400216A15488862216A70
:101170001448C862216A1448086321686FF00200AD
:1011800008602068816841F480718160216843466D
:101190004A464C31206A00F08BF920688168C1F31F
:1011A00042410729816803D041F48011816099E7A9
:1011B00041F4A001FAE700000024014000280140AA
:1011C000C70200082F0300081503000810B50446E5
:1011D00090F82400012807D0012084F8240020463C
:1011E000FFF746F810B113E0022010BD21688A68AD
:1011F00022F480728A60216A91F82120022A07D1A4
:10120000084600F00EF8A16A30B141F04001A16239
:10121000002184F8241010BD21F4885141F001010F
:10122000F5E710B590F821100022022905D004211D
:10123000816380F82020012010BD01680B6823F035
:101240000E030B6001680B6823F001030B6090F83C
:101250004030C46B012101FA03F3636080F8211070
:1012600080F82020104610BD10B590F82110002401
:10127000022903D00421816301243DE001680A684A
:1012800022F00E020A6001680A6822F001020A6078
:101290001A4A0168914201D1012121E0174A143212
:1012A000914201D110211BE0144A2832914201D110
:1012B000891515E0114A3C32914201D189140FE0A1
:1012C0000E4A5032914202D14FF4803108E00B4A6D
:1012D0006432914202D14FF4801101E04FF08071ED
:1012E000064A083A5160012180F82110002180F857
:1012F0002010416B01B18847204610BD0800024014
:101300002DE9F05FC16B0C6801680B68D0F840C034
:10131000042202FA0CF2494DDFF824A1494E4A4F4B
:10132000DFF828B1DFF828E122422CD05A072AD56D
:101330000A68920603D40A6822F004020A6001686F
:10134000A94201D1042219E0514501D1402215E002
:10135000B14202D14FF4806210E0B94202D14FF4A1
:1013600080420BE0594502D14FF4802206E07145DE
:1013700002D14FF4800201E04FF080622F4908391A
:101380004A60C16A3BE04FF0020808FA0CF818EA1C
:10139000040F4FF000094FF0010235D05FEA837867
:1013A00032D50B689B0605D40B6823F00A030B604B
:1013B00080F821200168A94201D1022219E051459B
:1013C00001D1202215E0B14202D14FF4007210E0A9
:1013D000B94202D14FF400520BE0594502D14FF40B
:1013E000003206E0714502D14FF4001201E04FF0E7
:1013F0000072124908394A6080F82090816A0029F9
:101400001AD0BDE8F05F0847082505FA0CF525421B
:1014100012D01B0710D50B6823F00E030B6090F859
:101420004010C36B02FA01F15960826380F82120F9
:1014300080F82090016BE2E7BDE8F09F08000240D1
:101440001C000240300002404400024058000240AC
:101450006C00024030B528B308C81349142219445F
:10146000B1FBF2F18900C163104981630221417728
:101470001A6843F6F0718A43D0E900142143D0E999
:1014800002452C4321430469214344692143846973
:101490002143114319600021416301224277017702
:1014A000084630BD012030BDF8FFFDBF00000240FE
:1014B00070B5044690F82000002501280CD00120CA
:1014C00084F8200094F821600020012E06D084F8D2
:1014D00020000225284670BD022070BD022684F837
:1014E0002160A0632068066826F001060660204699
:1014F000FFF73AFAE06A00282068016802D041F05C
:101500000E0106E021F0040101602068016841F04D
:101510000A0101602068016841F001010160D9E71A
:1015200070B5044600F03AF90546601C02D0044844
:101530000078044400F032F9401BA042FAD370BD99
:101540002800002008B5022802D0B0F5006F11D1A4
:101550000020009008486946006803F0D9FE009812
:10156000002807D005494FF080500860BFF34F8F27
:10157000BFF36F8F08BD00001000002004ED00E0F5
:10158000044910B50A68024202D00860FFF7DAFF8A
:1015900010BD0000140401402DE9F84FDFF8B891A8
:1015A0000024A9F1040B23460F2709F1040AABF12B
:1015B000040EC9E00125A5402A40AA427DD1674E0C
:1015C000D1F804C0ACEB0608B44532D014DCBCF151
:1015D000030F3AD009DCBCF1000F2AD0BCF1010F97
:1015E0001CD0BCF1020F31D11DE0BCF1110F17D09E
:1015F000BCF1120F2AD119E0B8F5881F19D006DC0A
:10160000B8F5803F15D0B8F5801F1FD111E0B8F5AF
:10161000001F0ED0B8F5041F18D10AE0CB6815E002
:10162000CB681B1D12E0CB6808330FE0CB680C338E
:101630000CE08B682BB1012B4FF0080303D0456100
:1016400004E0042302E0056100E00023FF2A01D842
:10165000064601E000F104064FEA840501D9A5F130
:101660002005D6F8008007FA05FC28EA0C0803FAE2
:1016700005F548EA0508C6F800804D68ED0062D51A
:10168000374DAE6946F00106AE61AD6924F0030640
:1016900005F001050095334D06EB050CDCF808500C
:1016A000A607360F07FA06F825EA0805DFF8B8801E
:1016B000404503D14FF0000817E044E0DFF8AC806C
:1016C000404502D14FF001080FE0DFF8A48040450B
:1016D00002D14FF0020808E0DFF89880404502D1BF
:1016E0004FF0030801E04FF0040808FA06F848EA52
:1016F0000508CCF808804D68D9F80060ED024D4629
:1017000001D5164300E096432E604D68DAF800607C
:10171000AD02554601D5164300E096432E604D6854
:10172000DBF80060AD035D4601D5164300E096434B
:101730002E604D68DEF80060ED03754601D5164356
:1017400000E096432E60641C0D682A46E5407FF455
:1017500031AFBDE8F88F000008040140000011100F
:10176000001002400000014000080140000C014050
:1017700000100140001401408068084000D00120A2
:101780007047C26821EA02030A4043EA024101614C
:1017900070470AB1016170470904FBE7014880689E
:1017A000704700002800002070B5040025D094F890
:1017B0003D00002520B984F83C50204600F04EF949
:1017C000242084F83D002068016821F001010160B7
:1017D0002068016841F4004101602068016821F43B
:1017E0000041016000F068FB4D4A6168914201D8F8
:1017F0004C4900E04C49884201D2012070BD4B4960
:101800002368B0FBF1F15E6826F03F060E435E6090
:101810006368934206D94FF4967359434FF47A7331
:10182000B1FBF3F12368491C1E6A26F03F063143E1
:1018300019626168914210D84900401EB0FBF1F274
:10184000521CC2F30B02042A01D2042022E0B0FB96
:10185000F1F0401CC0F30B001CE0A268F2B301EBF6
:10186000C10303EB0116431EB3FBF6F35B1C43F409
:1018700080431B0549D092B301EBC10202EB011179
:10188000401EB0FBF1F0401CC0F30B0040F4804060
:1018900040F400402168CA694CF6FF739A43104334
:1018A000C861D4E9071001432068026822F0C00231
:1018B00011430160D4E9030101432068826848F2C2
:1018C000FF339A4311438160D4E90501084321683D
:1018D000CA6822F0FF021043C86001E00EE016E083
:1018E0002068016841F0010101602564202084F82E
:1018F0003D00256384F83E50002070BD01EB410699
:10190000431EB3FBF6F35B1CB3E70120C2E701EB18
:101910004101401EB0FBF1F0401CC0F30B00B7E7E3
:10192000A086010080841E0000093D0040420F0097
:101930002DE9F84F1F4690468A460446DDF8289068
:10194000FFF72CFF054694F83D0020287FD119238E
:10195000012240492046009501F018FA002876D16E
:1019600094F83C00012872D0012084F83C002068E3
:101970000168C90703D1016841F0010101602068D5
:10198000016821F400610160212084F83D001020ED
:1019900084F83E0000262664C4F824806785608DA4
:1019A00020852D48E0622B464A465146204601F0EC
:1019B00073F990B9206841698069009036E02A4641
:1019C0004946204601F088FA50B1206C042804D121
:1019D0002068016841F4007101600120BDE8F88FC2
:1019E000606A216800780861606A401C6062618DED
:1019F000491E6185218D491E89B22185226853695E
:101A0000DB435B070BD451B100781061606A401C66
:101A10006062608D401E6085208D401E20852A46B4
:101A20004946204601F086F90028CED1208D0028B5
:101A3000C5D154F83D0B016841F4007101602020CC
:101A400004F81E09E67766770020C7E7FFE7022063
:101A5000C4E70000020010000000FFFF10B586B0D0
:101A6000002100910191029103910068134988427D
:101A700022D1134CA06940F00800A061A06969461A
:101A800000F0080004904FF4407000901220019084
:101A9000032003900B48FFF77FFD0B48416841F09E
:101AA000E06141F002014160E06940F40010E06152
:101AB000E06900F40010049006B010BD005400402E
:101AC00000100240000C0140000001400248816803
:101AD000027811448160704728000020074810B543
:101AE000016841F010010160032000F0A7F80F2009
:101AF00000F006F800F050F8002010BD0020024071
:101B000030B505461F4887B0C16941F00401C16185
:101B1000C06906A900F00400009001A800F0ACF92B
:101B20000498B0B100F0C8F940001749174AB0FB5B
:101B3000F1F11748491E0260416040F2E73200218E
:101B4000C0E903218160816100F054FC040003D0EE
:101B500015E000F0B1F9E8E70D4800F0B3FC04002F
:101B60000DD11E2000F03CF8102D07D2002229468E
:101B70001E2000F043F80748056000E0012407B08C
:101B8000204630BD0010024040420F0000080040D7
:101B9000000300202C0000200F4808B5816941F0A7
:101BA00001018161816901F001010091C16941F088
:101BB0008051C161C069002200F0805000900F2167
:101BC000901E00F01BF80548416821F0E06141F0EB
:101BD0000071416008BD000000100240000001409B
:101BE000002809DB00F01F0201219140400980001C
:101BF00000F1E020C0F8001170470000F0B40E4B77
:101C00001B680C46C3F30223C3F10705042D00D95A
:101C10000425191D072901D2002300E0DB1E01263F
:101C200006FA05F1491E214099409E40761E164055
:101C30003143F0BC02F042B80CED00E0064900F080
:101C4000070208684FF6FF03184040EA0220034AE3
:101C500010430860704700000CED00E00000FA053A
:101C60002DE9F84305460078354CC00754D0E069AB
:101C70000026C00008D4E06940F08050E061E069CF
:101C8000012600F0805000902E480168C90512D44A
:101C90000168804641F480710160FFF77FFD0746CF
:101CA00005E000BFFFF77AFDC01B642823D8D8F8F1
:101CB0000000C005F6D5206A10F4407021D0A98834
:101CC00001F4407181421CD0206A1F49012220F496
:101CD00040700A6000220A602062C00711D0FFF73E
:101CE0005DFD074641F2883808E000BFFFF756FD6A
:101CF000C11B414502D90320BDE8F883206A800753
:101D0000F4D5206A696820F44070084320621EB14F
:101D1000E06920F08050E0612878800705D5606890
:101D2000A96820F44040084360602878C00605D5C3
:101D30006068E96820F48000084360600020DBE709
:101D40000010024000700040400442422DE9F0477C
:101D50000F46050061D0434E306800F00700B842DE
:101D600009D2306820F0070038433060306800F056
:101D70000700B84251D128683B4C810712D5400773
:101D800003D5606840F4E06060602878000703D500
:101D9000606840F4605060606068A96820F0F000FE
:101DA000084360602878C00728D06868012810D0F0
:101DB0002168022810D0890700292EDA616821F0F5
:101DC000030101436160FFF7E9FC804641F2883975
:101DD0000DE021688903EFE78901EDE7FFF7DEFCFD
:101DE000A0EB0801494502D90320BDE8F0876068EF
:101DF000696800F00C00B0EB810FEFD1306800F0A3
:101E00000700B8420BD9306820F007003843306033
:101E1000306800F00700B84201D00120E5E72878DB
:101E2000400705D56068E96820F4E0600843606019
:101E30002878000706D56068296920F4605040EAD8
:101E4000C100606000F058F86168084AC1F30311EE
:101E5000515CC8400649086006480068FFF750FE1C
:101E60000020C2E70020024000100240CE690008B6
:101E7000340000202C0000200F2202600C4A53681E
:101E800003F003034360536803F0F0038360536877
:101E900003F4E063C36052684FF4E06303EAD202E4
:101EA00002610448006800F0070008607047000005
:101EB00000100240002002400448054900684968BB
:101EC000044AC1F30221515CC8407047340000202D
:101ED00000100240DE6900080448054900684968AE
:101EE000044AC1F3C221515CC8407047340000204D
:101EF00000100240DE6900080E4A51680E4801F0E9
:101F00000C03042B11D0082B0FD10C48C1F38343D1
:101F1000C903C05C0AD55168084AC1F34041921E0A
:101F2000515C054A5043B0FBF1F070470449484307
:101F3000704700000010024000127A00BE690008DD
:101F400000093D002DE9F84F040070D02078C04D05
:101F5000C00749D06868C0F38100012807D06868CD
:101F6000C0F38100022809D16868C00306D528683B
:101F7000800339D560680028E7D035E06068B0F5A7
:101F8000803F0BD010B1B0F5A02F11D0286820F4FD
:101F900080302860286820F4802002E0286840F41F
:101FA00080302860606890B1FFF7F8FB06460AE0D1
:101FB000286840F480202860F0E700BFFFF7EEFBC0
:101FC000801B642873D828688003F7D50CE0FFF7DE
:101FD000E5FB064605E000BFFFF7E0FB801B642839
:101FE000F0D828688003F7D420789A4E80074FF005
:101FF00001094FF0000839D5686810F00C0F07D0C0
:102000006868C0F38100022809D16868C00306D45B
:102010002868800714D52069012808D110E02069BC
:10202000B0B1C6F80090FFF7B9FB074605E00AE13A
:10203000FFF7B4FBC01B0228C4D828688007F7D577
:102040002868616920F0F80040EAC10028600DE0CE
:10205000C6F80080FFF7A2FB074604E0FFF79EFBEF
:10206000C01B022823D828688007F7D420780007EF
:102070002CD57948A169D9B1C0F80090FFF78EFB43
:10208000074604E0FFF78AFBC01B02280FD8686AE6
:102090008007F7D571484FF4FA510068B0FBF1F0B2
:1020A000009000BF0098411E0091FAD20EE080E03F
:1020B000C0F80080FFF772FB074604E0FFF76EFBF5
:1020C000C01B022875D8686A8007F7D420784007BB
:1020D00060D5E8690027C00008D4E86940F0805066
:1020E000E861E869012700F0805000905C480168D1
:1020F000C90513D40168834641F480710160FFF77C
:102100004DFB824606E000BFFFF748FBA0EB0A004C
:1021100064284ED8DBF80000C005F5D5E06801283A
:102120000AD008B1052813D0286A20F001002862DF
:10213000286A20F0040002E0286A40F001002862CA
:10214000E06841F2883B98B1FFF728FB82460BE03C
:10215000286A40F004002862EEE700BFFFF71EFB8C
:10216000A0EB0A0159455AD8286A8007F6D50CE039
:10217000FFF714FB824605E0FFF710FBA0EB0A0116
:1021800059454CD8286A8007F6D41FB1E86920F079
:102190008050E861E06988B36968C1F38101022970
:1021A00044D00228C6F8608004D0FFF7F7FA04464E
:1021B00038E034E0FFF7F2FA074604E0FFF7EEFA02
:1021C000C01B02282BD828688001F7D4206AB0F5FC
:1021D000803F05D16868A16820F40030084368603A
:1021E000D4E908010843696821F474110843686060
:1021F000C6F86090FFF7D2FA044606E025E000BF7B
:10220000FFF7CCFA001B022809D828688001F7D50F
:102210001BE000BFFFF7C2FA001B022802D903200F
:10222000BDE8F88F28688001F4D40EE00128F7D0CB
:102230006868226A00F48031914204D1616A00F436
:102240007010884201D00120EAE70020E8E7000092
:10225000001002400000424280044242340000204C
:102260000070004070B5040009D0606A002540B1DC
:1022700025616561A56294F8510040B10CE0012030
:1022800070BD6068B0F5827FF4D0E561F2E784F854
:102290005050204600F040F8022084F85100206899
:1022A000016821F040010160A088218900F482705A
:1022B00001F404410843A18901F400610843217C31
:1022C00001F002010843217D01F001010843218B47
:1022D00001F400710843217F01F03801084394F8AC
:1022E000201001F080010843218D01F400510843C2
:1022F00021680860A069042101EA10402168486053
:102300002068C16921F40061C1616565012084F81C
:102310005100002070BD000030B585B0002400944D
:1023200001940294039400681449884223D114480C
:10233000816941F480518161816901F48051049186
:10234000816941F00401816180690E4D00F0040053
:102350000490A02000900220019003200390694681
:102360002846FFF719F94020CDE9000469462846C0
:102370000294FFF711F905B030BD000000300140B4
:1023800000100240000801407047704770B590F897
:102390003C20012A26D0012480F83C40022280F80B
:1023A0003D2003685A689D6822F070060A6832432F
:1023B0005A600D4B02689A4208D0B2F1804F05D0A6
:1023C0000A4B9A4202D00A4B9A4204D1496825F03E
:1023D00080031943916080F83D40002180F83C1053
:1023E000084670BD022070BD002C01400004004072
:1023F0000008004010B5040003D094F83D0010B16F
:1024000007E0012010BD002084F83C00204600F0C9
:102410001FF8022084F83D00211D206801F0C2F958
:10242000012084F8460084F83E0084F83F0084F8D8
:10243000400084F8410084F8420084F8430084F8A6
:10244000440084F8450084F83D00002010BD0000E1
:1024500008B50068B0F1804F08D10548C16941F066
:102460000101C161C06900F00100009008BD0000D9
:102470000010024090F83D10012901D00120704762
:10248000022180F83D1000680B49884208D0B0F165
:10249000804F05D00949884202D00949884204D1B9
:1024A000816801F00701062903D0016841F00101AC
:1024B0000160002070470000002C01400004004033
:1024C0000008004090F83D10012901D0012070471C
:1024D000022180F83D100168CA6842F00102CA601A
:1024E00000680B49884208D0B0F1804F05D00949F7
:1024F000884202D00849884204D1816801F007016E
:10250000062903D0016841F00101016000207047F5
:10251000002C0140000400400008004001680A6AE5
:1025200041F211131A4207D10A6A9B101A4203D1D1
:102530000A6822F001020A60012180F83D100020A3
:10254000704770B5044690F83C000025012817D06C
:10255000012684F83C60022084F83D0020688268EF
:1025600022F0770222F47F4282600868502838D037
:102570000DDC20284FD005DC90B3102811D14AE0A3
:10258000022070BD302846D040280AD13BE06028A8
:102590002FD070280DD0B0F5805F03D0B0F5005F6C
:1025A00012D0012584F83D60002084F83C002846C4
:1025B00070BDCB68D1E90121206801F02FF92068B6
:1025C000816841F0770109E0CB68D1E901212068F9
:1025D00001F024F92068816841F480418160E1E7DD
:1025E00019E0CA684968206801F02AF9502120687A
:1025F00006E0CA684968206801F033F96021206864
:1026000001F016F9CEE7CA684968206801F018F9A8
:1026100040212068F4E7226801461046F0E7704741
:102620002DE9F04104460068C66805694FF00007CF
:10263000A90713D5B10711D5F91E01610120207733
:10264000206880698007204602D0FFF7E8FF04E099
:1026500000F07EF8204600F07CF82777680716D552
:10266000700714D521686FF00400086102202077FC
:102670002068806910F4407F204602D0FFF7CFFF2A
:1026800004E000F065F8204600F063F8277728079B
:1026900015D5300713D521686FF0080008610420B4
:1026A00020772068C0698007204602D0FFF7B7FF77
:1026B00004E000F04DF8204600F04BF82777E806DC
:1026C00016D5F00614D521686FF0100008610820B7
:1026D00020772068C06910F4407F204602D0FFF7C1
:1026E0009EFF04E000F034F8204600F032F827772F
:1026F000E80708D0F00706D021686FF001000861F4
:10270000204600F027F8280608D5300606D52168AF
:102710006FF0800008612046FFF736FE680608D596
:10272000700606D521686FF040000861204600F071
:102730001BF8A8060AD5B00608D521686FF020005E
:1027400008612046BDE8F041FFF71FBEBDE8F081FB
:102750007047704700680349884201D1FFF7B6B956
:102760007047000000080040704738B5044690F8F4
:102770004200202801D0022038BD51B14AB10120C9
:10278000206300206063204601F0FAF9216B0129E3
:1027900001D0012038BD21680A684968009121688C
:1027A0000C3151E8002F42F0100241E80023002BC9
:1027B000F5D138BD08B50068104A90421DD10029F6
:1027C0001BD010480A460E49006802F0B0FB802179
:1027D0000B4801F067FB002000900B486946006839
:1027E00002F096FD0098002807D008494FF080506D
:1027F0000860BFF34F8FBFF36F8F08BD00380140F3
:1028000030350020B80000200800002004ED00E072
:1028100070470000F8B5016804460868CA684B694B
:1028200010F00F0F4FF0000559D003F0010602F42D
:102830009077374365D0C10705D0D10503D5616CCA
:1028400041F001016164410705D5D90703D0616CEE
:1028500041F002016164810705D5D90703D0616C9D
:1028600041F004016164010707D502F02001314302
:1028700003D0616C41F008016164616C00293AD0B9
:10288000800604D5900602D5204601F0BCF82068E9
:102890004069616CC0F38010090700D460B3204622
:1028A00001F07CF820684069400621D5206814308A
:1028B00050E8001F21F0400140E80012002AF5D145
:1028C000E06BA8B16D494163E06BFEF7CDFC0028D9
:1028D00011D0E06B416B01B0BDE8F04008478306C2
:1028E0000FD593060DD52046BDE8F84001F08BB812
:1028F0002046FFF78DFFF8BD2046FFF789FF65648E
:10290000F8BD266B2023012E7CD1C6067AD5D606CB
:1029100078D508684868009048694FF0020640067C
:1029200040D5E16B086840680004000CE8D0A28D37
:102930008242E5D9E085886920282DD020680C30B6
:1029400050E8001F21F4807140E80012002AF5D100
:102950002068143050E8001F21F0010140E8001207
:10296000002AF5D12068143050E8001F21F0400102
:1029700040E80012002AF5D184F84230256320682F
:102980000C3050E8001F21F0100140E80012002A2E
:10299000F5D1E06BFEF745FC6663A08DE18D401A32
:1029A00081B22AE0A08DE18D401A81B2E08D00282D
:1029B000A6D00029A4D022680C3252E8000F20F4DF
:1029C000907042E80007002FF5D12068143050E8DD
:1029D000002F22F0010240E80027002FF5D184F8F3
:1029E0004230256320680C3050E8002F22F010029E
:1029F00040E80023002BF5D166632046FFF7DAFE9E
:102A0000F8BDFFE705062BD5150629D594F841003A
:102A10002128F5D1A068B0F5805F01D12069B0B15F
:102A2000206A411C2162216800784860E08C401EC9
:102A30000004000CE084E3D12068C16821F080012B
:102A4000C1602068C16841F04001C160D8E7206AD8
:102A50000088C0F308004860206A801C2062E5E717
:102A60004006CDD55006CBD5CA68204622F040029C
:102A7000CA6084F8413000F0F5F8C1E79F380008DB
:102A800070B5040004D094F84100002510B106E0B0
:102A9000012070BD84F84050204600F023F8242027
:102AA00084F841002068C16821F40051C1602046CB
:102AB00001F00AF82068016921F490410161206861
:102AC000416921F02A0141612068C16841F4005147
:102AD000C1606564202084F8410084F84200656389
:102AE000002070BDF0B585B0002406460094019426
:102AF0000294039400682D49884254D12C4881697E
:102B000041F480418161816901F4804104918169CE
:102B100041F0040181618069264D00F004000490B9
:102B20004FF400700090022001900320039069464A
:102B30002846FEF731FD2815CDE9000469462846F0
:102B40000294FEF729FD1D4D1B488027C5E90004AE
:102B5000C5E902472C616C61AC612846EC61FEF767
:102B600079FC08B1FEF7BFF8F5636E62134D1248A9
:102B70004435143801C5102091C5104845F8104956
:102B800044306C61AC61EC61FEF764FC08B1FEF7A7
:102B9000AAF8B5630022052125206E62FFF72EF802
:102BA0002520FFF71DF805B0F0BD000000380140FA
:102BB0000010024000080140580002407802002046
:102BC000704770472DE9F843044690F84100984655
:102BD00016460D46202802D00220BDE8F88385B1B4
:102BE0007EB100206064212084F84100FEF7D6FD0C
:102BF000A6848146E684A0682027B0F5805F02D0D5
:102C000003E00120E9E7206910B12E4600250EE01F
:102C100000260CE08021204600F0FAFFA8B9C6B1DA
:102C200016F8010B21684860E08C401EE084E08CBF
:102C30004B464FF00002CDF800800028EAD14FF05B
:102C40004001204600F0E4FF40B184F841700320C9
:102C5000C3E735F8020BC0F30800E3E784F84170DE
:102C60000020BAE77047FEE701684A69D24352057F
:102C70000FD46FF480624A61002140F8301F202297
:102C800042738173026942F0040202610173012000
:102C90007047002070470000F8B50446C06A1E4621
:102CA0000D461746082807D0012805D010F5803FAB
:102CB00002D0206B122804D12068016841F4807191
:102CC0000160134600224FF001112046009600F0EB
:102CD0005DF840B120680068C00502D54FF400706F
:102CE00020640320F8BD2069B0F5804F0ED0062087
:102CF000216800EAD51040F0F000086133463A46FA
:102D00000B49204600F08AF878B902E005F0FE0091
:102D100000E0E8B221680861054933463A46891F58
:102D2000204600F07BF80028DCD00120F8BD000030
:102D30000800010070B516460D4604461EE0204608
:102D4000FFF792FF08B1012070BD681C16D0FEF796
:102D500025FD801BA84200D885B920684069C04382
:102D600040070BD5002044F8300F20216173A07379
:102D7000216941F0200121612073E4E72068406966
:102D8000C0434007DBD4002070BD00002DE9F047B0
:102D9000984617460D460446C1F30746DDF82090D5
:102DA0002AE000BFB8F1FF3F26D0FEF7F7FCA0EB0A
:102DB0000901414502D8B8F1000F1DD12068012E4C
:102DC00016D0806925EA00000004000C12D0002013
:102DD000B84211D1002044F8300F20216173A07354
:102DE000216941F02001216120730120BDE8F087B5
:102DF0004069E7E70120EBE72068012E0AD08069EF
:102E000025EA00000004000C06D00020B842C9D01A
:102E10000020EBE74069F3E70120F7E72DE9F047F1
:102E2000984616460D4604464FF000094FF0200A1A
:102E3000C1F3074723E020684069C043400515D42B
:102E40002068016841F40071016021686FF48060BE
:102E50004861C4F8309084F83DA084F83E90216C1D
:102E600041F00401216484F83C9021E0701C06D0FC
:102E7000FEF794FCA0EB0800B04203D816B1012F76
:102E80001FD021E02068012F15D0806925EA0000BD
:102E90000004000C18D000BF44F8309F84F80DA047
:102EA00084F80E90216941F02001216184F80C9092
:102EB0000120BDE8F087406925EA00000004000C0D
:102EC000EAD12068406901E02068806925EA0000B5
:102ED0000004000CAFD1ECE770B516460D46044671
:102EE0001EE02046FFF7C0FE08B1012070BD681C3F
:102EF00016D0FEF753FC801BA84200D885B9206885
:102F00004069C04300060BD5002044F8300F202153
:102F10006173A073216941F0200121612073E4E70E
:102F200020684069C0430006DBD4002070BD00006B
:102F3000524D534CDFF84C91DFF84CA1DFF84CB107
:102F4000DFF84C81EF144FF0FF363146012002F0DC
:102F500007F80221284600F09FFF50BB02212846B7
:102F600000F09CF8022802D001280DD021E0314663
:102F7000D8F8000001F038F92078012802D00120AB
:102F8000207012E00220FBE72078022811D13146A0
:102F9000D8F8000001F028F999F80000072801D3BB
:102FA000012000E0401C89F80000D8F8000001F082
:102FB00078F93946284600F06FFF0028C5D1394618
:102FC000284600F06BF8012812D00228BDD12078E5
:102FD0000228BAD13146D8F8000001F005F999F875
:102FE0000000012841D0022820D0032838D140E039
:102FF00020780228A9D13146D8F8000001F0F4F871
:1030000099F80000012804D002280CD0032827D109
:103010001EE09AF80010802901D3012100E0491C2C
:103020008AF800101CE09BF8001041B100211948FB
:103030008BF800100221006800F084FF10E00121ED
:1030400014488BF800100221006800F0B1FF07E07F
:10305000114908787F2801D3012000E0401C087046
:10306000D8F8000001F01DF96FE701208AF8000090
:10307000F6E709481E210170F2E70000000C01404C
:10308000C2000020C4000020C1000020C5000020B4
:103090001C00002024000020C00000202DE9F04189
:1030A00006460D460F2000F040FF2946304600F04E
:1030B000F3FE10B10020BDE8F081FEF76FFB04467F
:1030C0004FF4FA770AE000BFFEF768FB001BB84236
:1030D00001D30220EFE7012000F027FF2946304608
:1030E00000F0DAFE0028EFD00120E4E73EB500242E
:1030F00010480094019402940D49846001600473A7
:103100000475012505614FF460214460C161FDF73C
:10311000F9FE08B1FDF7E7FDCDE900456946054830
:103120000294FDF7E3FD002801D0FDF7DCFD3EBD74
:1031300000240140C8000020114808B5416941F051
:10314000010141614069002200F001000090052169
:103150000B20FEF753FD0B20FEF742FD0022052158
:103160000E20FEF74BFD0E20FEF73AFD0022052152
:103170000F20FEF743FDBDE808400F20FEF730BDED
:103180000010024010B500F04BF9224801F055F84C
:10319000214C204A0021E0611032012001F0D0F8DA
:1031A0001C4B2062103B002201211C4801F05AF9FF
:1031B000184AA061283A3C21042000F0B5FF154AC6
:1031C0006061DC3A0021164801F006F9114A2060DE
:1031D000B83A0021134801F0FFF80E4A6060943AB3
:1031E0000021114801F0F8F80A4AA060703A002165
:1031F0000E4801F0F1F8074AE0604C3A00210C4813
:1032000001F0EAF820610348203000F0BAFE606265
:1032100010BD00008C69000800000020190700089C
:10322000F1360008FD360008F9360008ED360008D2
:10323000F536000870B586B000242B480094019440
:1032400002940394816941F020018161816901F058
:1032500020010491816941F004018161816901F0DB
:1032600004010491816941F00801816180691F4E68
:1032700000F008000490002208213046FEF789FA89
:10328000012210213046FEF784FA18200125CDE9ED
:1032900000050320CDE9024069463046FEF77CF97F
:1032A00040F6020000901248CDE90105114E694632
:1032B0003046FEF771F928038DE831006946304643
:1032C000FEF76AF9002205210720FEF797FC072088
:1032D000FEF786FC002205212820FEF78FFC28201F
:1032E000FEF77EFC06B070BD0010024000080140F1
:1032F00000002110000C01400D4810B50B49016081
:103300000C49416000214FF480428160C0E9031202
:1033100041618161C1610162FEF746FA002803D074
:10332000BDE81040FDF7DFBC10BD000000540040B8
:103330003C010020A08601000F4810B50D49016036
:103340004FF48271416000218160C1604FF40072CE
:103350000161C0E90512C1610162416281620A2115
:10336000C162FEF77FFF002803D0BDE81040FDF7E3
:10337000BABC10BD003001409001002010B586B0ED
:1033800000241748009401940294039404944FF08D
:103390008041059401604721C0E901144FF6FF7197
:1033A000C0E9031480218161FFF724F808B1FDF71B
:1033B0009AFC4FF48050009069460948FFF7C1F825
:1033C00008B1FDF790FC049404A905480594FEF7A4
:1033D000DDFF002801D0FDF786FC06B010BD00001F
:1033E000E80100200C4810B50A4901604FF4E131B2
:1033F0004160002181600C22C160C0E9041281613A
:10340000C161FFF73DFB002803D0BDE81040FDF788
:103410006ABC10BD0038014030020020FEE7FEE724
:1034200010B51420FEF77CF8AE2000F053F82020F1
:1034300000F050F8102000F04DF8402000F04AF85D
:10344000A12000F047F8C82000F044F8812000F0E7
:1034500041F8CF2000F03EF8A62000F03BF8A8206D
:1034600000F038F83F2000F035F8A42000F032F8E2
:10347000D32000F02FF8002000F02CF8D52000F029
:1034800029F8802000F026F8D92000F023F8F12058
:1034900000F020F8DA2000F01DF8122000F01AF8F1
:1034A000DB2000F017F8402000F014F88D2000F029
:1034B00011F8142000F00EF8BDE81040AF2000F025
:1034C00009B800004FF480610148FCF790BE00008D
:1034D000303100201CB500218DF804108DF8050056
:1034E000481E0090022301AA78210248FEF720FA24
:1034F0001CBD00003C01002000EB400030B5400640
:10350000030E203A5F2A15D2072913D8981D802868
:1035100010D8D2B2084C02EB420204EB4202074C34
:10352000002004EBC111145C1D18401CC0B24C55A6
:103530000628F8D330BD0000E669000830310020CD
:10354000F0B5A3B040200024134E8DF8040001AD67
:10355000671E002006EBC4112B180A5C401CC0B289
:103560005A708028F8D304F1B000C0B2FFF7B2FF60
:103570000020FFF7AFFF1020FFF7ACFF812301AA67
:10358000782106480097FEF7D3F9641CE4B2082CB2
:10359000DFD323B0F0BD0000303100203C0100201B
:1035A0002DE9F0411D4616460F46804600241EE0D8
:1035B000281B401E81B201204FF6FF7204E000BFBD
:1035C00000EB800002EA4000491E89B2F8D2B6FB47
:1035D000F0F00A21B0FBF1F201FB120208EB04004B
:1035E000F9B2C0B23032FFF787FF641CE4B2AC42DC
:1035F000DED3BDE8F081F0B500EB40004006040EDC
:1036000016460D4606270FE0A01D802804D96D1C24
:103610000024EDB2072D0AD8B4FBF7F02946FFF7D6
:103620006BFFA41DE4B2761C3278002AECD1F0BD09
:103630002C4D86B04FF480722949286801F038FC7F
:103640008021294800F02EFC002426464FF0FF3848
:103650006F464146012001F083FC3BE005A9286844
:1036600001F039FC0028F4D19DF814003EB1385522
:10367000641CA4B2552809D0142C2BD328E0AA2806
:1036800028D101268DF80000344623E06B46204601
:10369000052C1DD39DF80010AA2919D11E1816F863
:1036A000011C552914D100220221A01E06E000BFF2
:1036B00013F801C0491C8CEA020289B28142F7DB8F
:1036C00016F8020C824203D121461846FCF7B0FEE0
:1036D00000263446286801F0E3FB0028B9D0BDE796
:1036E00030300020B800002030350020FCF762BEEA
:1036F000FDF71CB8FFF71CBCFFF79ABFFDF7D4B964
:1037000010B54FF0E020006902F082FE012803D0DE
:10371000BDE8104002F02EB910BD30B593B028219D
:103720006846FCF764FD14210AA8FCF760FD00253B
:1037300001210F9510950804CDE9001011951295FF
:10374000029502240491CDE907404FF4E01009905E
:103750006846FEF7F7FB08B172B6FEE70AA90F202C
:1037600081E831004FF480600D900E9002210AA88C
:10377000FEF7ECFA08B172B6FEE74FF48040119004
:103780000F940FA8FEF76CFA002801D072B6FEE77E
:1037900013B030BD704700000148FEF741BF000084
:1037A00000030020F0B50268194B1A4C1A4D4FF077
:1037B0008047984205D0B84203D0A04201D0A84229
:1037C00003D122F070064A683243984205D0B842CD
:1037D00003D0A04201D0A84203D122F44074CA68A9
:1037E00022434C6922F08002224302608A68C2624E
:1037F0000A688262984201D109690163012141612D
:103800000169C90703D0016921F001010161F0BD1F
:10381000002C0140000400400008004010B58468FE
:1038200042EA032224F47F440A432243826010BD0B
:10383000826822F070020A4342F0070181607047FB
:1038400010B5036A046A24F001040462846924F058
:10385000F00444EA021423F00A020A43846102627B
:1038600010BD10B5036A046A24F010040462846970
:1038700023F0A00324F4704444EA023243EA011125
:103880008261016210BD10B501F0E6FA002805D092
:10389000D0E90021BDE810400846104710BD10B522
:1038A000406A0021C185C184FEF7B2FF10BD70B52A
:1038B000446A2068406994F84110C0F3C0100025A4
:1038C000212904D118B1E584204600F08EF8206843
:1038D000406994F84210C0F38010222904D118B135
:1038E000E585204600F05AF8606C40F010006064F6
:1038F0002046FEF78DFF70BD10B50146406A09688D
:1039000009684FF0000289062ED4C28501680C3187
:1039100051E8003F23F4807341E80034002CF5D1D6
:103920000168143151E8003F23F0010341E80034FD
:10393000002CF5D10168143151E8003F23F0400319
:1039400041E80034002CF5D1202180F84210016BB1
:10395000012909D101680C3151E8003F23F010031F
:1039600041E80034002CF5D14263016B012902D0FB
:10397000FFF726F910BD818DFEF71CFF10BD10B5B5
:10398000406A01214163016B012902D0FFF719F957
:1039900010BD818D4908FEF70DFF10BD01680C3187
:1039A00051E8002F22F4907241E80023002BF5D15A
:1039B0000168143151E8002F22F0010241E8002390
:1039C000002BF5D1016B012909D101680C3151E8B7
:1039D000002F22F0100241E80023002BF5D1202116
:1039E00080F8421000210163704701680C3151E8F2
:1039F000002F22F0C00241E80023002BF5D1202146
:103A000080F84110704708B590F84210222901D083
:103A1000022008BD82684FF480539A4201D10169A7
:103A200021B1816A9A421BD04AB10AE00268816AD8
:103A30005268C2F308020A80816A891C08E00269A0
:103A400072B10268526802F07F020A70816A491CF2
:103A50008162C18D491E0904090CC18503D01BE098
:103A600002685268F1E70168CA6822F02002CA6061
:103A70000168CA6822F48072CA6001684A6922F04B
:103A800001024A61202180F8421000214163026B4B
:103A9000012A03D0FFF794F8002008BD01630168F4
:103AA0000C3151E8002F22F0100241E80023002BD6
:103AB000F5D101680A68D20602D50A684968009102
:103AC000818DFEF777FEE7E770B50446006801696F
:103AD000E26821F44051114301612169A068084363
:103AE000616908432168CA6841F20C639A43024342
:103AF000CA6020684169A26921F4407111434161A3
:103B00001E492068884202D1FEF7E6F901E0FEF77F
:103B1000D3F900EBC00101EB001260686421800062
:103B2000B2FBF0F3B3FBF1F36FF018067343B2FB93
:103B3000F0F5B2FBF0F605EB8305322303EB051538
:103B4000B5FBF1F5B6FBF1F605F0F00505EB061552
:103B5000B2FBF0F6B2FBF0F0B0FBF1F06FF0180240
:103B6000504306EB800003EB0010B0FBF1F021683E
:103B700000F00F002844886070BD0000003801404C
:103B800038B5816204468285002013466064222293
:103B900084F84220E56B1B4AAA62E56B1A4AEA6286
:103BA000E56B1A4A2A63E26B50630A462168E06BB0
:103BB000091DFDF77DFC20680168406800902069C0
:103BC00048B120680C3050E8001F41F4807140E893
:103BD0000012002AF5D12068143050E8001F41F08F
:103BE000010140E80012002AF5D12068143050E8A5
:103BF000001F41F0400140E80012002AF5D10020EA
:103C000038BD0000F93800087F390008AF380008D7
:103C10002DE9F843984617460D460446089E24E0D1
:103C2000701C22D0FDF7BAFDA0EB0800B0421AD8F4
:103C3000CEB12068C168490717D5802D15D0402D19
:103C400013D00168C94309070FD4016800254068F3
:103C500000902046FFF7A2FE0820606484F84050E0
:103C60000120BDE8F8830320FBE72068006835EAFF
:103C7000000004D00020B842D2D00020F1E701209B
:103C8000F9E700000148FEF7C5BD00003002002042
:103C9000FEE700000FB4084B10B504A902AA039870
:103CA00000F02CF8044602A9002000F0D1F82046CC
:103CB00010BC5DF814FB0000513E00080907090E16
:103CC000002804DB00F1E02080F80014704700F0C9
:103CD0000F0000F1E02080F8141D704702E008C8D2
:103CE000121F08C1002AFAD170477047002001E076
:103CF00001C1121F002AFBD1704700002DE9FF4FC0
:103D000089B09B460446002506E025280BD05A467C
:103D10000B999047641C6D1C20780028F5D10DB0DC
:103D20002846BDE8F08F0027B8460122474900E049
:103D3000074314F8013F203B02FA03F00842F7D191
:103D400020782E2819D114F8010F47F004072A28EB
:103D50000ED06FF02F022078A0F1300109290CD885
:103D600008EB880102EB410100EB0108641CF2E75B
:103D70000A98641C50F8048B0A9020780028CED052
:103D8000642808D0692806D075281ED05A460B9999
:103D900090476D1C58E00A994FF00A0901C90A9131
:103DA000002802DA40422D2102E0390504D52B21FA
:103DB0008DF82010012103E0F90704D02021F7E756
:103DC0008A4608AE0DE00021FAE70A994FF00A0989
:103DD00001C90A91F7E74946FCF71BFA303106F8AA
:103DE000011D0028F7D1ADEB060000F1200978078E
:103DF00001D44FF00108C84502DDA8EB090000E03E
:103E000000208046002706E008A85A46C05D0B99AE
:103E100090476D1C7F1C5745F6DB04E030205A4666
:103E20000B9990476D1CB8F10001A8F10108F5DC71
:103E300005E016F8010B5A460B9990476D1CB9F135
:103E40000001A9F10109F4DC641C65E709280100FF
:103E50000A68531C0B601070704770B504464FF42D
:103E60007A7502E0284600F003F8641EFAD270BDAD
:103E700070B5084C05460020216848622046FEF7D0
:103E8000F9FA2068416AA942FCD3BDE870400148B4
:103E9000FEF744BBE8010020FDF76EBCFDF771BCE6
:103EA000FDF777BC10B548B141B10A460146094853
:103EB000FEF75BFC28B16FF0020010BD4FF0FF3041
:103EC00010BD0448C06B0068016821F00401016066
:103ED000002010BD3002002089B213460A4610B5FA
:103EE00001460448FEF76EFE002801D06FF0020084
:103EF00010BD000030020020FDF7F0FDFFF70DFCC3
:103F0000FFF798F9FFF718F9FFF7F6F9FFF76AFAE4
:103F1000FFF734FAFFF7EAF8FFF70EFA00F0A4F81B
:103F2000FFF730F900F0B2F8FEE710B5EFF30581C6
:103F300011B16FF0050403E0002408B101F0B4F9F9
:103F4000204610BD70B50E46050002D0300E002888
:103F500002D06FF0030412E0EFF30580002828463A
:103F60000AD001F0D3FB04463146284601F0A2FBFB
:103F700028B96FF0020402E001F07CFB0446204601
:103F800070BD10B54FF00001EFF305826AB948B17A
:103F9000D0E902202AB1202807D3104601F0A0FB67
:103FA00002E010B901F08EFB0146084610BD00008A
:103FB00038B50C4610B1210E002902D06FF0030075
:103FC00038BDEFF30581B1B1002100916A46214669
:103FD00001F0F0FB60B1009920460029F0D0084ABA
:103FE0004FF080511160BFF34F8FBFF36F8F38BD1B
:103FF0006FF0020038BD214601F095FB38BD00008E
:1040000004ED00E0F8B51D4616460C4610B1210E31
:10401000002902D06FF00300F8BDEFF3058111B164
:104020006FF00500F8BDF10701D0012300E0002387
:10403000B10701D5002200E001222146009501F0E0
:10404000C1FBF3076FF001016FF0020206D0844359
:1040500006D1F8BD0846F8BD1046F8BD0442FCD1B3
:10406000002DF9D0F6E70000EFF3058010B16FF0F6
:10407000050070470448016811B14FF0FF307047E8
:1040800001210160002070478800002010B5EFF387
:10409000058010B16FF0050010BD084801680129C6
:1040A00002D04FF0FF3010BD054A002182F8141DE8
:1040B0000221016001F060FA002010BD880000209C
:1040C0000BE000E0F8B51D466FF003026FF002064A
:1040D0004FF00004EFF30583A3B1F0B1E9B1E5B906
:1040E000002200926A4601F061FF012817D1009872
:1040F000B0B10C494FF080500860BFF34F8FBFF351
:104100006F8F0DE048B141B12A4601F0B3FE01289E
:1041100006D025B16FF0010402E0144600E03446F9
:104120002046F8BD04ED00E0F8B514464FF0000558
:10413000EFF3058212BB08B301B3A4B1D4E9023294
:1041400063B1502A1AD32269C2B1676900FB01F634
:10415000B74213D3009501F099FC07E072B92269C8
:1041600062B9626952B9002201F06FFC050005D006
:104170000CB1216800E0002101F034F82846F8BDB8
:10418000F8B51D466FF003026FF002064FF0000411
:10419000EFF30583ABB100B3F9B1F5B900221346D3
:1041A00000926A4601F09AFD012818D10098B8B132
:1041B0000C494FF080500860BFF34F8FBFF36F8FF3
:1041C0000EE050B149B100232A4601F0D7FC012886
:1041D00006D025B16FF0010402E0144600E0344639
:1041E0002046F8BD04ED00E02DE9F0410D46014602
:1041F00021F0010001F001014FF00004EFF305820E
:104200000AB1A41F16E048B100296FF001066FF053
:104210000207294608D001F0D3FF07E06FF003043E
:1042200008E035B1344605E001F00EFF0128F8D171
:1042300000E03C462046BDE8F08170B505464FF0F1
:104240000004EFF3058050BB0DB1686800E000206A
:10425000C10701D0012600E0002600071FD46DB180
:10426000D5E9021021B1502819D31EB1042002E073
:1042700020B114E0012001F0DBFB05E00EB10420C9
:1042800000E0012001F0C9FB040008D00DB129684D
:1042900000E0002100F0A6FF0EB144F0010420462A
:1042A00070BD70B5014621F0010001F001014FF031
:1042B0000004EFF305820AB1A41F11E028B16FF0EA
:1042C000020529B101F0B7FD07E06FF0030407E034
:1042D00000231A46194601F051FC012800D02C4653
:1042E000204670BDF8B50D460024211F4E1C002845
:1042F00004D000BFEFF30582A2B10DB10C461BE064
:1043000000216A46009101F051FE012813D1009866
:1043100090B10A494FF080500860BFF34F8FBFF350
:104320006F8F09E0294601F08FFE012804D015B1F6
:104330006FF0010400E034462046F8BD04ED00E0D3
:10434000F8B5144603460E464FF00005EFF305801E
:1043500098BB93B39E423DD84CB1A0680028E0685A
:1043600003D0502836D3012002E008B132E000200B
:10437000012B05D010B31846A26801F02EFB20E0F7
:1043800040B103200090002211460120A36801F0F3
:104390007DFB04E003220021012001F056FB050013
:1043A00018D086B100231A46194601F0E7FB012810
:1043B00009D0284600F02AFF00250BE0184601F03E
:1043C000EFFA050006D00CB1216800E00021284674
:1043D00000F008FF2846F8BD2DE9FF414FEA010330
:1043E0004FF00005EFF30581039549BB40B38027EB
:1043F000182100244AB3166806B1344696691EB1E6
:104400003146761E382E02D21679F60703D00020E8
:1044100004B0BDE8F081566906B1B708D2F808C00B
:10442000BCF1000F0DD0D5685C2D18D312693AB1DC
:1044300036B18DE806103A46214601F048FF039058
:104440000DE0D6685EB912694AB903AACDE9001237
:10445000BAB2214601F00EFF012800D0039503985F
:10446000D6E700002DE9FC471C46904689460746E2
:104470004FF00006EFF3058058BB57B3082000F05B
:1044800071FC050025D0C5E90078B9F1000F12D004
:104490000122114B002094B1216801B10846A168A6
:1044A00059B1E4682C2C11D3CDE900312B46012100
:1044B00002F056F908E00022EBE7E16831B9009319
:1044C0002B46012102F032F9060002D1284600F005
:1044D0001BFE3046BDE8FC878738000808B5EFF3BF
:1044E000058212B16FF0050008BD58B100221346D5
:1044F00000920A46042102F07BF9012805D06FF0F2
:10450000020008BD6FF0030008BD002008BD38B5EB
:104510000446EFF3058010B16FF0050038BD84B19B
:10452000204602F099F978B1002003460246009037
:104530000321204602F05CF9012808D04FF0FF303B
:1045400038BD6FF0030038BD6FF0020038BD0020A9
:1045500038BD00002DE9F041134C0F460546E668D2
:104560002068001D00F030FD681C07D137B12168BC
:10457000BDE8F0410D48091D00F086BD20683544B6
:10458000B5424560216805D2A06BBDE8F041091D28
:1045900000F062BD606B091D00F05EFDA06A8542FF
:1045A00000D2A562BDE8F081380000203808002064
:1045B0002DE9F041054600F073FD2D4CA068401C2C
:1045C000A06020682B4F10B1606930B32BE02560EC
:1045D000A068012827D1002606EB860007EB8000A3
:1045E00000F02CFD761C382EF6D3234800F026FD73
:1045F0002148143000F022FD1F48283000F01EFD35
:104600001D483C3000F01AFD1B48503000F016FDEC
:10461000194860631430A06305E02068E96AC06A45
:10462000884200D82560606A401C60626864E86A5D
:104630002169884200D9206100EB800007EB8000EF
:10464000291D00F021FD00F04BFD606900280CD011
:104650002068E96AC06A884207D208494FF0805052
:104660000860BFF34F8FBFF36F8FBDE8F08100008C
:104670003800002088030020E807002004ED00E057
:1046800038B500F00DFD104C2068C8B90F4800F097
:10469000D5FC0E48143000F0D1FC0C48E06014301A
:1046A00020610A4B0020F03B009003F150021021E2
:1046B0000A2001F0EBF9206010B105A100F092FD95
:1046C000BDE8384000F00CBD740000203C0900201B
:1046D000546D72510000000030B4026C0B46002A89
:1046E0000BD0C1681144C1608468A14201D3016844
:1046F000C16030BC1846FBF761BD30BC70472DE986
:10470000F041856B174604460026026C82B1C7B1A2
:10471000E068FBF753FDE168206C091AE16022684C
:10472000914202D2A168081AE060022F16D017E069
:104730002068A8B9A06801F0E3FE06460020A0604A
:104740000EE06068FBF73AFD216C60680844606029
:10475000A168884204D32068606001E005B16D1E45
:104760006D1CA5633046BDE8F08110B5044690F895
:10477000590058B101280CD002280FD0502080F3E6
:104780001188BFF34F8FBFF36F8FFEE7206B00F0F0
:10479000BBFC2046BDE8104000F0B6BC10BD0000D8
:1047A00010484FF40051420706D0C01D0D4920F0BB
:1047B0000700411AC1F500510B4A00230144C2E928
:1047C00000030839183A21F0070111604B600B60B3
:1047D0000B1AC0E9001393604FF000405360506122
:1047E000704700001C100020A4000020144E154C3F
:1047F000A6F29C474FF08058DFF84C9012E000BFC3
:1048000000F04EFCF068C568281D00F0DDFBA068D4
:10481000401EA0606068401E606000F061FC284699
:10482000FFF7A3FF60680028EAD138680128F9D9AA
:10483000C9F80080BFF34F8FBFF36F8FF2E700001E
:10484000240800203800002004ED00E0002807D0F4
:104850000021816001600B460A46C16001F08EB9FB
:104860007047000070B51D46049C51B1C4F800208B
:10487000C4E90F010121204601F03CF984F84C50B5
:1048800070BD2460F4E700002DE9F05F8846DDE9A3
:104890000B941546834691009A460A9EA522206BEA
:1048A000FBF79EFC6FF00301206B01EB85010844D0
:1048B00020F00707780707D0502080F31188BFF356
:1048C0004F8FBFF36F8FFEE70025B8F1000F0FD0B9
:1048D0005FF00000221818F8001082F8341018F861
:1048E000001011B1401C1028F4D384F8435001E0AB
:1048F00084F83450382E00D33726E662C4E91365B5
:10490000201D00F0A6FB04F1180000F0A2FB2461BA
:10491000C6F138006462A061656584F8585052465B
:104920005946384600F0AAFA2060B9F1000F01D0CC
:10493000C9F80040BDE8F09F2DE9F0471E46DDE9CB
:10494000089417460D00804615D0002C11D0FFF7B3
:1049500097FE04F11801C4F8008081E86002201D70
:1049600000F077FB002F04D014F8280F40F004006B
:104970002070BDE8F087502080F31188BFF34F8F7F
:10498000BFF36F8FFEE7000030B5114900E011461C
:104990000A688242FBD34B685C18844203D14068AA
:1049A00018444860084643681C18944209D1084CD2
:1049B000183C2468A24209D052681A4442600A682E
:1049C00012680260814200D0086030BD0460F9E7DF
:1049D000A400002070B5002441600B4D006191429D
:1049E00006D8D11A8269914206D2011D286907E0D2
:1049F0009A4203D2994201D3012403E0011DE868E1
:104A000000F02AFB204670BD7400002010B504465B
:104A100000F046FBA06B28B15FF0000400F060FBE3
:104A2000204610BD0124F9E730B589B03C4D6EE059
:104A30000498002806DADDE90601059A90470498F3
:104A4000002864DB069C606910B1201D00F0BCFAF0
:104A500003A800F0D7F8024604980A2857D2DFE8E6
:104A600000F00505052D334A05052D3394F828007F
:104A700040F0010084F828000599A069059B0144D5
:104A80002046FFF7A7FF68B3216A2046884794F8BD
:104A9000280040073BD5002000900598A16900231D
:104AA00042181946204601F0A3FED8B9502080F3E1
:104AB0001188BFF34F8FBFF36F8FFEE714F8280FF5
:104AC00020F00100207022E094F8280040F001005E
:104AD00084F828000598A06128B181181346204663
:104AE000FFF778FF13E0502080F31188BFF34F8F5A
:104AF000BFF36F8FFEE794F82800810703D42046A8
:104B000000F002FB03E020F0010084F828000022FE
:104B100004A9286801F0AEF9002889D109B030BD98
:104B2000740000202DE9FC410F46054600F068FDA9
:104B300001A800F067F80446019818B101F094FD4F
:104B4000BDE8FC81254EAFB130690068D0B30027C5
:104B5000291B3A46306800F085FB01F085FD0028EE
:104B6000EED11F494FF080500860BFF34F8FBFF365
:104B70006F8FE5E7A542EBD801F076FDF068274698
:104B8000C068C468201D00F01FFA94F8280041078F
:104B900019D5A0692B4641193A462046FFF71AFF5E
:104BA000A8B100200346014600902A46204601F0A5
:104BB0001FFE60B9502080F31188BFF34F8FBFF301
:104BC0006F8FFEE707E020F0010084F82800216ADB
:104BD00020468847B4E70127BAE7000074000020A8
:104BE00004ED00E00648416B096829B1416BC968D2
:104BF000C9684968816270474FF0FF31FAE70000E9
:104C00003800002070B5054601F010FC064E044641
:104C1000B068844203D200F009F8012000E00020CF
:104C200028602046B46070BD74000020F8B5194DAE
:104C300020E0C068C4680668201D00F0C5F9216A3C
:104C40002046884794F82800400713D5A0693044CF
:104C5000B04206D924616060211DE86800F0FCF9CB
:104C600008E000200346014600903246204601F04D
:104C7000BFFD38B1E86801680029DAD12969C5E9C2
:104C80000310F8BD502080F31188BFF34F8FBFF39E
:104C90006F8FFEE77400002008484068401C4FF00A
:104CA000500080F3118804D0BFF34F8FBFF36F8F94
:104CB000FEE7BFF34F8FBFF36F8FFEE7AC0000201E
:104CC0000346002012B1994302D070470B42FCD03A
:104CD00001207047074CE068016841B1C0680021BD
:104CE000D0F80000FFF71EFFFFF79EFEF3E701215B
:104CF0000020F7E7740000202DE9F041044600F0A1
:104D0000CFF994F9455004F1240609E0606A48B1EE
:104D1000304601F071FC08B100F0F4FA6D1E6DB27E
:104D2000002DF3DC4FF0FF3684F8456000F0D8F931
:104D300000F0B6F994F9445004F1100709E0206935
:104D400048B1384601F058FC08B100F0DBFA6D1E9E
:104D50006DB2002DF3DC84F84460BDE8F04100F052
:104D6000BFB900002DE9F0410546002700F048FCDE
:104D7000324E306808B9FFF713FD706905424ED115
:104D8000C5B3083568070ED005F00700C0F108006C
:104D90000544680707D0502080F31188BFF34F8F78
:104DA000BFF36F8FFEE72DB37068854237D8234875
:104DB000183001460C6801E020460C466168A942A3
:104DC00002D221680029F7D131688C4227D00768C8
:104DD0002168016060680837411B10290FD96019EC
:104DE000420708D0502080F31188BFF34F8FBFF3E4
:104DF0006F8FFEE713E041606560FFF7C5FD6168F6
:104E00007068401A7060B268904200D2B0607069F9
:104E100001430020C4E90001F068401CF06001F08B
:104E200023FC780707D0502080F31188BFF34F8F01
:104E3000BFF36F8FFEE73846BDE8F0818C0000209D
:104E40000449086818B10868026D521C02650868B8
:104E5000704700003800002010B5040006D000F0B4
:104E60001FF9E46900F03CF9204610BD502080F3A2
:104E70001188BFF34F8FBFF36F8FFEE710B5031F8D
:104E80004FF080741C601B1F21F001011960191F75
:104E9000024B0B60143940380A6010BD994C000871
:104EA000002804D0C16802698068891A08407047E8
:104EB00030B568B161B113004FF0000408D05D1E39
:104EC0002A4205D180E82600C4600461002030BD7C
:104ED0004FF0FF3030BD38B131B1C26803699A423A
:104EE00005D16FF0040070474FF0FF307047036941
:104EF0000268D25C0A7001698268491C1140016134
:104F00000020704710B548B1C2688368521C1A402F
:104F10000369934205D16FF0040010BD4FF0FF30DC
:104F200010BDC46803681955C260002010BDF0B5FB
:104F300016460D46070002D00DB100240BE04FF0DD
:104F4000FF30F0BD295D3846FFF7DCFF10B16FF090
:104F50000400F0BD641CB442F4D30020F0BD000096
:104F600070B50C46064600F09BF8154D2868406D5C
:104F700080B92968012081F858005CB101212046E0
:104F8000FFF7E8FA0F494FF080500860BFF34F8FEA
:104F9000BFF36F8F00F0A4F800F082F82868446D2A
:104FA000002034B116B12968486502E02A68611E04
:104FB0005165296881F8580000F092F8204670BDCC
:104FC0003800002004ED00E0D0E9013201699A6068
:104FD000D0E901235A604A68824201D182684A605E
:104FE000002202610868401E0860086870470000DF
:104FF000044908680A688069D26A0968C2F13802FF
:105000008A61704738000020034B036003F15C00A5
:10501000086080201060704764090020044B036022
:1050200003F15C0008604FF480701060704700006E
:10503000C00B002000F01EBB00F075BB00F10801A2
:105040004FF0FF32C0E90112C1600161002101602F
:10505000704700210161704730B50B685A1C02D0BF
:1050600000F1080202E0026904E022465468256863
:105070009D42FAD953684B6099608A60516008611B
:105080000168491C016030BD42684A6093688B60CA
:1050900093685960916008610168491C016070471C
:1050A000502080F31188BFF34F8FBFF36F8F0A49F1
:1050B0004868401C486001280CD10848006810F07E
:1050C000FF0F07D0502080F31188BFF34F8FBFF33D
:1050D0006F8FFEE770470000AC00002004ED00E099
:1050E0000849486828B1401E486001D180F3118802
:1050F0007047502080F31188BFF34F8FBFF36F8F3D
:10510000FEE70000AC00002070B500282AD0164D44
:10511000A0F1080460686969084207D1502080F353
:105120001188BFF34F8FBFF36F8FFEE722683AB14C
:10513000502080F31188BFF34F8FBFF36F8FFEE7CE
:105140008843606000F05CFA6068696808446860E1
:105150002046FFF719FC2869401C2861BDE8704013
:1051600001F082BA70BD00008C0000204FF0E020FA
:1051700000210161816105494FF47A720968B1FB30
:10518000F2F1491E4161072101617047340000209E
:1051900010B5FAF7FDFF114910280ED300F1E020F9
:1051A00090F8F0030A78904207D2502080F31188DB
:1051B000BFF34F8FBFF36F8FFEE709480068896820
:1051C00000F4E060884207D9502080F31188BFF3D3
:1051D0004F8FBFF36F8FFEE710BD0000AC000020C3
:1051E0000CED00E010B5084B002200BF53F8324030
:1051F0001CB1521C082AF9D310BD43F8321003EB3E
:10520000C201486010BD00004803002010B5040032
:105210000AD000F013F894F8460000280CD120467C
:10522000BDE81040FFF770BF502080F31188BFF336
:105230004F8FBFF36F8FFEE710BD0000084A0021BB
:1052400002EBC1035B68834206D1002042F83100C3
:1052500002EBC10148607047491C0829F0D3704730
:105260004803002070B515460E460446FFF718FFA8
:1052700094F944100020491C01D184F8440094F9A9
:105280004510491C01D184F84500FFF729FFA06BA8
:1052900028B92A46314604F1240000F0A9F8204636
:1052A000BDE87040FFF728BD10B5020014D00F48CC
:1052B000006B38B1502080F31188BFF34F8FBFF3DC
:1052C0006F8FFEE700F09CF900211046FFF742F9CE
:1052D00001F0CAF9002807D105494FF08050086055
:1052E000BFF34F8FBFF36F8F10BD00003800002059
:1052F00004ED00E002490A6A0260C9684160704733
:105300003800002001490120C861704738000020A2
:105310002DE9F0410E46040015D0FFF739FF50206B
:10532000EFF3118580F31188BFF34F8FBFF36F8FB9
:1053300094F85800022184F85810616D491C616589
:10534000012808D031E0502080F31188BFF34F8F3F
:10535000BFF36F8FFEE7A06A38B1502080F3118849
:10536000BFF34F8FBFF36F8FFEE7124F386B18B14B
:1053700004F1180110480DE0201DFFF725FEE06A3A
:105380003969884200D938610C4900EB800001EB93
:105390008000211DFFF778FEE06A3968C96A8842FB
:1053A00003D9012006B13060F86185F31188BDE8AA
:1053B000F081000038000020100800208803002041
:1053C00010B50C4650B1094909681831FFF744FE81
:1053D0002046BDE810400121FFF7BCB8502080F303
:1053E0001188BFF34F8FBFF36F8FFEE738000020A7
:1053F00070B514460D4668B10A4909681831FFF7BF
:1054000043FE0CB14FF0FF3521462846BDE8704001
:10541000FFF7A0B8502080F31188BFF34F8FBFF380
:105420006F8FFEE73800002010B51446030011D03E
:105430001048026BB2B1026841F00041916101680D
:1054400018461831FFF720FE2046BDE81040012124
:10545000FFF780B8502080F31188BFF34F8FBFF360
:105460006F8FFEE7502080F31188BFF34F8FBFF39B
:105470006F8FFEE73800002070B504003ED0226D2B
:10548000A2B1E06C884200D30146E06A884235D080
:10549000012A33D11A4D2A6894420FD1502080F34B
:1054A0001188BFF34F8FBFF36F8FFEE7502080F35B
:1054B0001188BFF34F8FBFF36F8FFEE7E162A269E0
:1054C000002A02DBC1F13801A1610E4E00EB800021
:1054D000616906EB8000814210D1201DFFF774FD49
:1054E000E06A2969884200D9286100EB800006EB58
:1054F0008000211DBDE87040FFF7C6BD70BD0000F3
:10550000380000208803002070B5194D2A6BF2B1D5
:1055100041F000410160C4680CB3FFF755FD201D48
:10552000FFF752FDE06A2969884200D928611149D4
:1055300000EB800001EB8000211DFFF7A5FDE06A74
:105540002968C96A884201D90120E86170BD5020EC
:1055500080F31188BFF34F8FBFF36F8FFEE75020AA
:1055600080F31188BFF34F8FBFF36F8FFEE700000A
:10557000380000208803002030B587B00024039451
:1055800005AA04A903A80494FFF73EFDDDE9030181
:105590000094CDE90110002315A11748059A00F0E9
:1055A00096FE164D0028E8621FD001F0F1F80128A0
:1055B00009D0401C19D1502080F31188BFF34F8FC0
:1055C000BFF36F8FFEE7502080F31188BFF34F8F3A
:1055D000BFF36F8F4FF0FF30A86201206861EC606D
:1055E00007B0BDE8304000F071B907B030BD000031
:1055F00049444C4500000000ED47000838000020F9
:105600000248016B491C016370470000380000200C
:10561000164810B5016B11B10121C16110BD002107
:10562000C1610169124A01E0B9B1491E01EB810370
:1056300052F82330002BF7D001EB810302EB8302F9
:1056400002F1080453685B685360A34201D15B68B0
:105650005360DA680260016110BD502080F3118848
:10566000BFF34F8FBFF36F8FFEE7000038000020BD
:105670008803002070B50E46040009D0300E0FD00C
:10568000502080F31188BFF34F8FBFF36F8FFEE779
:10569000502080F31188BFF34F8FBFF36F8FFEE769
:1056A000FFF7FEFC256825EA06002060FFF718FDDD
:1056B000284670BD0A4601460023014801F0E4B8BF
:1056C0003550000870B52020FFF74CFB040005D0D2
:1056D0000025201D2560FFF7B1FC2577204670BD11
:1056E00038B558B120210446002000912060201DCB
:1056F000FFF7A4FC01202077204638BD502080F31E
:105700001188BFF34F8FBFF36F8FFEE75022EFF387
:10571000118182F31188BFF34F8FBFF36F8F006841
:1057200081F3118870472DE9F04100278846040075
:105730000AD05FEA18600FD0502080F31188BFF3C1
:105740004F8FBFF36F8FFEE7502080F31188BFF3B8
:105750004F8FBFF36F8FFEE7261D04F10C05FFF797
:105760004FFF2168F06841EA0801216017E0D0E9A5
:10577000001601F07F425301236821F07F4102D4DB
:105780000B4203D10AE031EA030307D1D20100D56D
:105790000F43216841F00071FFF7B6FE3046A84282
:1057A000E5D12068B843206000F05EFF2068BDE8C6
:1057B000F081000013460A460146014801F064B832
:1057C000395000082DE9F0479A46DDF820909046C0
:1057D0000D4604004FF0000709D0280E0FD05020CE
:1057E00080F31188BFF34F8FBFF36F8FFEE7502018
:1057F00080F31188BFF34F8FBFF36F8FFEE71DB1AA
:1058000000F006FE40B112E0502080F31188BFF393
:105810004F8FBFF36F8FFEE7B9F1000F07D0502015
:1058200080F31188BFF34F8FBFF36F8FFEE7FFF751
:10583000E7FE2668524629463046FFF741FA30B166
:10584000B8F1000F1AD02068A843206016E0B9F123
:10585000000F13D0B8F1000F01D04FF08077BAF1EC
:10586000000F01D047F0806745EA07014A46201D36
:10587000FFF7DAFD00F0F8FE18B10AE000F0F4FEE0
:105880001FE011494FF080500860BFF34F8FBFF306
:105890006F8FFFF7ADFB0646800110D4FFF700FCC9
:1058A0002668524629463046FFF70AFA28B1B8F171
:1058B000000F02D02068A8432060FFF711FC26F0FB
:1058C0007F463046BDE8F08704ED00E01CB5264970
:1058D00008780190FF20087008788DF800009DF886
:1058E00000009DF8002000F0F000904207D050200A
:1058F00080F31188BFF34F8FBFF36F8FFEE79DF8E2
:1059000000001A4C00F0500020700720A06005E055
:105910009DF8002052008DF80020401E9DF80020C8
:105920001206F5D4A060032807D0502080F3118818
:10593000BFF34F8FBFF36F8FFEE74FF44070A0604F
:10594000019808700A48016841F47001016001681B
:1059500041F070410160FFF709FC00206060FAF738
:10596000E1FB00201CBD000000E400E0AC000020D2
:1059700020ED00E010B5502080F31188BFF34F8F69
:10598000BFF36F8F00F058FD18B104494FF08050FD
:105990000860002080F3118810BD000004ED00E0D5
:1059A00010B50C4648B184420FD9502080F31188BD
:1059B000BFF34F8FBFF36F8FFEE7502080F3118846
:1059C000BFF34F8FBFF36F8FFEE70222002100F07D
:1059D0003CF8002800D0846310BD38B50C4648B1AF
:1059E00084420FD9502080F31188BFF34F8FBFF34B
:1059F0006F8FFEE7502080F31188BFF34F8FBFF306
:105A00006F8FFEE70221134600220091114600F03D
:105A10003DF8002800D0846338BD10B5024600214F
:105A2000012000F012F80446FEF710FF204610BDDA
:105A300038B50B46002200901146012000F026F8F0
:105A40000446FEF703FF204638BDF8B517460E465C
:105A5000050013D005FB06F05030FFF783F9040072
:105A60000AD0002084F8460004F150023B4631463B
:105A700028460094FEF7F6FE2046F8BD502080F33D
:105A80001188BFF34F8FBFF36F8FFEE738B5049DCA
:105A900018B153B1CAB181B120E0502080F3118810
:105AA000BFF34F8FBFF36F8FFEE7502080F3118855
:105AB000BFF34F8FBFF36F8FFEE7502080F3118845
:105AC000BFF34F8FBFF36F8FFEE739B1502080F3E4
:105AD0001188BFF34F8FBFF36F8FFEE750241C4632
