:020000040800F2
:10000000A8350020990100083B220008F71E0008CF
:10001000392200088B02000849280008000000006F
:1000200000000000000000000000000001010008C6
:10003000DF0200080000000045010008BB220008A4
:10004000B3010008B3010008B3010008B3010008C0
:10005000B3010008B3010008B3010008E902000879
:10006000B3010008B3010008B301000891020008C1
:10007000B3010008B30100089D020008A9020008AE
:10008000B3010008B301000829020008B301000809
:10009000B3010008B3010008B3010008B301000870
:1000A000B3010008B3010008B3010008B301000860
:1000B000B3010008B301000851230008B301000890
:1000C000B3010008B3010008B3010008B301000840
:1000D000B30100083D280008B3010008B30100087F
:1000E000E1020008B3010008B3010008DFF80CD0FA
:1000F00000F088F800480047DD280008A8350020F7
:10010000224B19680868B0E8F00F80F30988BFF344
:100110006F8F4FF0000080F311884EF00D0E704786
:100120000000000006480068006880F3088862B696
:1001300061B6BFF34F8FBFF36F8F00DF00BF00BF0B
:1001400008ED00E0EFF30980BFF36F8F0F4B1A68E3
:1001500020E9F00F106008B54FF0500080F31188CF
:10016000BFF34F8FBFF36F8F03F054FD4FF00000CC
:1001700080F31188BDE8084019680868B0E8F00FFE
:1001800080F30988BFF36F8F704700BF38000020ED
:10019000EFF3058070470000064880470648004797
:1001A000FEE7FEE7FEE7FEE7FEE7FEE7FEE7FEE727
:1001B000FEE7FEE74F230008ED00000840EA0103D8
:1001C0009B0703D009E008C9121F08C0042AFAD20D
:1001D00003E011F8013B00F8013B521EF9D27047D1
:1001E000D2B201E000F8012B491EFBD27047002279
:1001F000F6E710B513460A4604461946FFF7F0FF26
:10020000204610BD064C074D06E0E06840F00103B3
:1002100094E8070098471034AC42F6D3FFF76AFF22
:100220007C4900089C490008014800F0E2B8000041
:10023000BC00002070B5044600688168C943C90746
:1002400017D1816821F00101816000F0BFFC0546F3
:100250000AE000BF00F0BAFC401B022804D9206865
:100260008068C043C00706D020688068C043C007CC
:10027000F0D0002070BDA06A40F01000A062E06ADB
:1002800040F00100E062012070BDFEE77047000011
:10029000014800F06BBA0000EC000020014800F0BB
:1002A00065BA0000B0020020014800F05FBA00000B
:1002B0006C02002030B590F840500124AC40C56B72
:1002C0006C60046863604368102B036803D0996016
:1002D0000068C26030BD9A600068C16030BD704780
:1002E0004FF4006000F070BB022000F06DBB72B6EE
:1002F000FEE77047F8B50024009490F824202546C6
:10030000012A12D0012280F824204A681F23072ADC
:100310000DD20668776B521E02EB820293409F4318
:100320000B6893401F43776319E00220F8BD06680D
:100330000D2A0AD2376BD21F02EB820293409F43F1
:100340000B6893401F43376309E0F76A0D3A02EBED
:10035000820293409F430B6893401F43F7620A68F1
:10036000072306680A2A0AD3F7680A3A02EB420210
:1003700093409F438B6893401F43F76008E03769C1
:1003800002EB420293409F438B6893401F433761C7
:100390000A68102A01D0112A20D1124B02689A4211
:1003A00017D193681B0219D4936843F40003936038
:1003B0000968102912D10C490C4A0968B1FBF2F105
:1003C00001EB8101490000E0491E00910029FBD1A9
:1003D00004E0816A41F020018162012480F8245008
:1003E0002046F8BD002401403400002040420F00A8
:1003F000704770B50446006806684568A90625D5AB
:10040000B10723D5A16AC90603D4A16A41F40071DA
:10041000A1628168C1F34241072910D1217B71B9E2
:10042000416821F020014160A06A20F48070A06240
:10043000A06AC00403D4A06A40F00100A062204674
:10044000FFF7D6FF21686FF01200086028062ED54E
:1004500070072CD5A06AC00603D4A06A40F40050EF
:10046000A06220688168C1F30231072909D0416880
:10047000490515D48168C1F34241072910D1217B78
:1004800071B9416821F080014160A06A20F4805078
:10049000A062A06AC00503D4A06A40F00100A06277
:1004A0002046FFF726FF21686FF00C000860680601
:1004B0000CD5F0070AD0A06A40F48030A062204634
:1004C00000F094F821686FF00100086070BD000032
:1004D0002DE9F0414FF0000704003D467ED0A06AB0
:1004E000002628B9E66284F82460204600F080F8EF
:1004F0002046FFF79FFEA16AC90600D420B1A06A7A
:1005000040F01000A06269E0A16A21F4885141F036
:100510000201A1626268E169237B0A4347EA430161
:100520000A43A1684FF48077B94209D0012907D066
:100530005FF0000194F814C0BCF1010F02D00AE092
:100540003946F7E7F3B1A36A43F02003A362E36AF5
:1005500043F00103E3622368D3F804C02CF4694C30
:100560004CEA010CC3F804C021688B68DFF870C046
:1005700003EA0C0313438B60A168B9420BD0012935
:1005800009D00CE0DFF85CC0A3690CEB43330B43EC
:1005900043F40061DFE7218A0D05A5F58015216888
:1005A000CB6A23F470032B43CB62216889680E4B1E
:1005B0001940914208D1E662A16A21F0020141F09E
:1005C0000101A162BDE8F081A06A20F0020040F0C4
:1005D0001000A062E06A40F00100E0620120F1E753
:1005E000FDF7E1FF00E0FFFFFE0E1FFF7047000078
:1005F00070B586B0002506460095019502950395D5
:1006000000681D49884235D11C49886940F4007052
:100610008861886900F400700490886940F00400E3
:1006200088618869694600F0040004900120009008
:1006300003200190124800F0D3F9134C1148C4E98B
:1006400000058020C4E90250400020618000C4E918
:1006500005052046E56100F033F908B1FFF747FED4
:100660003462002205211220666200F049FC12204B
:1006700000F038FC06B070BD0024014000100240BC
:100680000008014008000240EC00002010B590F87E
:1006900021100022022905D00421816380F8202046
:1006A000012010BD01680B6823F00E030B60016888
:1006B0000B6823F001030B6090F84030C46B0121FC
:1006C00001FA03F3636080F8211080F820201046BF
:1006D00010BD000010B590F821100024022903D0AD
:1006E0000421816301243DE001680A6822F00E02C2
:1006F0000A6001680A6822F001020A601A4A016869
:10070000914201D1012121E0174A1432914201D1D5
:1007100010211BE0144A2832914201D1891515E0BD
:10072000114A3C32914201D189140FE00E4A5032F5
:10073000914202D14FF4803108E00B4A6432914279
:1007400002D14FF4801101E04FF08071064A083A5F
:100750005160012180F82110002180F82010416BA8
:1007600001B18847204610BD080002402DE9F05F26
:10077000C16B0C6801680B68D0F840C0042202FA13
:100780000CF2494DDFF824A1494E4A4FDFF828B159
:10079000DFF828E122422CD05A072AD50A689206AF
:1007A00003D40A6822F004020A600168A94201D158
:1007B000042219E0514501D1402215E0B14202D195
:1007C0004FF4806210E0B94202D14FF480420BE056
:1007D000594502D14FF4802206E0714502D14FF411
:1007E000800201E04FF080622F4908394A60C16AF7
:1007F0003BE04FF0020808FA0CF818EA040F4FF03B
:1008000000094FF0010235D05FEA837832D50B68DA
:100810009B0605D40B6823F00A030B6080F82120A7
:100820000168A94201D1022219E0514501D12022DB
:1008300015E0B14202D14FF4007210E0B94202D18A
:100840004FF400520BE0594502D14FF4003206E05C
:10085000714502D14FF4001201E04FF000721249CD
:1008600008394A6080F82090816A00291AD0BDE8D2
:10087000F05F0847082505FA0CF5254212D01B0742
:1008800010D50B6823F00E030B6090F84010C36B7B
:1008900002FA01F15960826380F8212080F82090EB
:1008A000016BE2E7BDE8F09F080002401C00024037
:1008B0003000024044000240580002406C000240F8
:1008C00030B528B308C8134914221944B1FBF2F11A
:1008D0008900C16310498163022141771A6843F698
:1008E000F0718A43D0E900142143D0E902452C433A
:1008F000214304692143446921438469214311430D
:10090000196000214163012242770177084630BD1A
:10091000012030BDF8FFFDBF0000024070B5044665
:1009200090F82000002501280CD0012084F8200038
:1009300094F821600020012E06D084F820000225C2
:10094000284670BD022070BD022684F82160A06395
:100950002068066826F0010606602046FFF7AAFC1C
:10096000E06A00282068016802D041F00E0106E02C
:1009700021F0040101602068016841F00A01016072
:100980002068016841F001010160D9E708B502283B
:1009900002D0B0F5006F11D10020009008486946E0
:1009A000006803F011F80098002807D005494FF0BF
:1009B00080500860BFF34F8FBFF36F8F08BD0000FA
:1009C0001000002004ED00E0044910B50A6802425E
:1009D00002D00860FFF7DAFF10BD000014040140E8
:1009E0002DE9F84FDFF8B8910024A9F1040B234654
:1009F0000F2709F1040AABF1040EC9E00125A54057
:100A00002A40AA427DD1674ED1F804C0ACEB06085B
:100A1000B44532D014DCBCF1030F3AD009DCBCF190
:100A2000000F2AD0BCF1010F1CD0BCF1020F31D154
:100A30001DE0BCF1110F17D0BCF1120F2AD119E043
:100A4000B8F5881F19D006DCB8F5803F15D0B8F589
:100A5000801F1FD111E0B8F5001F0ED0B8F5041F9C
:100A600018D10AE0CB6815E0CB681B1D12E0CB68FB
:100A700008330FE0CB680C330CE08B682BB1012BF3
:100A80004FF0080303D0456104E0042302E0056150
:100A900000E00023FF2A01D8064601E000F1040629
:100AA0004FEA840501D9A5F12005D6F8008007FAA0
:100AB00005FC28EA0C0803FA05F548EA0508C6F81B
:100AC00000804D68ED0062D5374DAE6946F00106F5
:100AD000AE61AD6924F0030605F001050095334DC4
:100AE00006EB050CDCF80850A607360F07FA06F8E7
:100AF00025EA0805DFF8B880404503D14FF000082B
:100B000017E044E0DFF8AC80404502D14FF0010827
:100B10000FE0DFF8A480404502D14FF0020808E062
:100B2000DFF89880404502D14FF0030801E04FF014
:100B3000040808FA06F848EA0508CCF808804D6869
:100B4000D9F80060ED024D4601D5164300E096430A
:100B50002E604D68DAF80060AD02554601D51643A7
:100B600000E096432E604D68DBF80060AD035D4603
:100B700001D5164300E096432E604D68DEF8006014
:100B8000ED03754601D5164300E096432E60641CC4
:100B90000D682A46E5407FF431AFBDE8F88F0000CC
:100BA0000804014000001110001002400000014044
:100BB00000080140000C01400010014000140140F9
:100BC0000AB1016170470904FBE700000148806831
:100BD000704700002800002070B5040025D094F86C
:100BE0003D00002520B984F83C50204600F0B8F8BC
:100BF000242084F83D002068016821F00101016093
:100C00002068016841F4004101602068016821F416
:100C10000041016000F0D2FA4D4A6168914201D86A
:100C20004C4900E04C49884201D2012070BD4B493B
:100C30002368B0FBF1F15E6826F03F060E435E606C
:100C40006368934206D94FF4967359434FF47A730D
:100C5000B1FBF3F12368491C1E6A26F03F063143BD
:100C600019626168914210D84900401EB0FBF1F250
:100C7000521CC2F30B02042A01D2042022E0B0FB72
:100C8000F1F0401CC0F30B001CE0A268F2B301EBD2
:100C9000C10303EB0116431EB3FBF6F35B1C43F4E5
:100CA00080431B0549D092B301EBC10202EB011155
:100CB000401EB0FBF1F0401CC0F30B0040F480403C
:100CC00040F400402168CA694CF6FF739A43104310
:100CD000C861D4E9071001432068026822F0C0020D
:100CE00011430160D4E9030101432068826848F29E
:100CF000FF339A4311438160D4E905010843216819
:100D0000CA6822F0FF021043C86001E00EE016E05E
:100D10002068016841F0010101602564202084F809
:100D20003D00256384F83E50002070BD01EB410674
:100D3000431EB3FBF6F35B1CB3E70120C2E701EBF4
:100D40004101401EB0FBF1F0401CC0F30B00B7E7BF
:100D5000A086010080841E0000093D0040420F0073
:100D600010B586B0002100910191029103910068B5
:100D70001349884222D1134CA06940F00800A061B9
:100D8000A069694600F0080004904FF4407000909C
:100D900012200190032003900B48FFF721FE0B481F
:100DA000416841F0E06141F002014160E06940F4D6
:100DB0000010E061E06900F40010049006B010BD7E
:100DC0000054004000100240000C014000000140AF
:100DD0000248816802781144816070472800002031
:100DE000074810B5016841F010010160032000F0D0
:100DF000A7F80F2000F006F800F050F8002010BD12
:100E00000020024030B505461F4887B0C16941F057
:100E10000401C161C06906A900F00400009001A8A6
:100E200000F0ACF90498B0B100F0C8F940001749DF
:100E3000174AB0FBF1F11748491E0260416040F2C9
:100E4000E7320021C0E903218160816100F054FC98
:100E5000040003D015E000F0B1F9E8E70D4800F018
:100E60008BFC04000DD11E2000F03CF8102D07D2A1
:100E7000002229461E2000F043F80748056000E0E4
:100E8000012407B0204630BD0010024040420F0050
:100E900000080040F40200202C0000200F4808B594
:100EA000816941F001018161816901F001010091D5
:100EB000C16941F08051C161C069002200F08050D9
:100EC00000900F21901E00F01BF80548416821F0AA
:100ED000E06141F00071416008BD00000010024077
:100EE00000000140002809DB00F01F0201219140B1
:100EF0004009800000F1E020C0F8001170470000B8
:100F0000F0B40E4B1B680C46C3F30223C3F1070574
:100F1000042D00D90425191D072901D2002300E062
:100F2000DB1E012606FA05F1491E214099409E402C
:100F3000761E16403143F0BC01F087BC0CED00E09A
:100F4000064900F0070208684FF6FF03184040EA20
:100F50000220034A10430860704700000CED00E0D7
:100F60000000FA052DE9F84305460078354CC00726
:100F700054D0E0690026C00008D4E06940F08050F9
:100F8000E061E069012600F0805000902E48016881
:100F9000C90512D40168804641F480710160FFF7F1
:100FA00015FE074605E000BFFFF710FEC01B6428D2
:100FB00023D8D8F80000C005F6D5206A10F4407098
:100FC00021D0A98801F4407181421CD0206A1F49B8
:100FD000012220F440700A6000220A602062C007EB
:100FE00011D0FFF7F3FD074641F2883808E000BF53
:100FF000FFF7ECFDC11B414502D90320BDE8F88392
:10100000206A8007F4D5206A696820F4407008439C
:1010100020621EB1E06920F08050E06128788007EE
:1010200005D56068A96820F44040084360602878CE
:10103000C00605D56068E96820F480000843606058
:101040000020DBE7001002400070004040044242F4
:101050002DE9F0470F46050061D0434E306800F09F
:101060000700B84209D2306820F0070038433060EA
:10107000306800F00700B84251D128683B4C810726
:1010800012D5400703D5606840F4E06060602878BE
:10109000000703D5606840F4605060606068A9682C
:1010A00020F0F000084360602878C00728D0686806
:1010B000012810D02168022810D0890700292EDAD3
:1010C000616821F0030101436160FFF77FFD804605
:1010D00041F288390DE021688903EFE78901EDE7E6
:1010E000FFF774FDA0EB0801494502D90320BDE8D4
:1010F000F0876068696800F00C00B0EB810FEFD1F9
:10110000306800F00700B8420BD9306820F00700C3
:1011100038433060306800F00700B84201D0012049
:10112000E5E72878400705D56068E96820F4E060C5
:10113000084360602878000706D56068296920F4B4
:10114000605040EAC100606000F058F86168084AE9
:10115000C1F30311515CC8400649086006480068A5
:10116000FFF750FE0020C2E70020024000100240BE
:10117000E6480008340000202C0000200F22026006
:101180000C4A536803F003034360536803F0F00311
:101190008360536803F4E063C36052684FF4E06314
:1011A00003EAD20202610448006800F00700086008
:1011B000704700000010024000200240044805492A
:1011C00000684968044AC1F30221515CC840704775
:1011D0003400002000100240F64800080448054989
:1011E00000684968044AC1F3C221515CC840704795
:1011F0003400002000100240F64800080E4A5168F2
:101200000E4801F00C03042B11D0082B0FD10C4811
:10121000C1F38343C903C05C0AD55168084AC1F3CE
:101220004041921E515C054A5043B0FBF1F07047BB
:1012300004494843704700000010024000127A0041
:10124000D648000800093D002DE9F84F040070D091
:101250002078C04DC00749D06868C0F381000128DC
:1012600007D06868C0F38100022809D16868C0030C
:1012700006D52868800339D560680028E7D035E0B6
:101280006068B0F5803F0BD010B1B0F5A02F11D041
:10129000286820F480302860286820F4802002E04C
:1012A000286840F480302860606890B1FFF78EFCB9
:1012B00006460AE0286840F480202860F0E700BF76
:1012C000FFF784FC801B642873D828688003F7D557
:1012D0000CE0FFF77BFC064605E000BFFFF776FC5D
:1012E000801B6428F0D828688003F7D420789A4EB1
:1012F00080074FF001094FF0000839D5686810F0F9
:101300000C0F07D06868C0F38100022809D1686813
:10131000C00306D42868800714D52069012808D1A5
:1013200010E02069B0B1C6F80090FFF74FFC074607
:1013300005E00AE1FFF74AFCC01B0228C4D8286870
:101340008007F7D52868616920F0F80040EAC100FD
:1013500028600DE0C6F80080FFF738FC074604E07F
:10136000FFF734FCC01B022823D828688007F7D475
:10137000207800072CD57948A169D9B1C0F8009030
:10138000FFF724FC074604E0FFF720FCC01B0228FF
:101390000FD8686A8007F7D571484FF4FA51006892
:1013A000B0FBF1F0009000BF0098411E0091FAD20E
:1013B0000EE080E0C0F80080FFF708FC074604E07C
:1013C000FFF704FCC01B022875D8686A8007F7D4B1
:1013D0002078400760D5E8690027C00008D4E86994
:1013E00040F08050E861E869012700F080500090EB
:1013F0005C480168C90513D40168834641F48071D3
:101400000160FFF7E3FB824606E000BFFFF7DEFB6B
:10141000A0EB0A0064284ED8DBF80000C005F5D523
:10142000E06801280AD008B1052813D0286A20F006
:1014300001002862286A20F0040002E0286A40F0D7
:1014400001002862E06841F2883B98B1FFF7BEFBDB
:1014500082460BE0286A40F004002862EEE700BFF5
:10146000FFF7B4FBA0EB0A0159455AD8286A800758
:10147000F6D50CE0FFF7AAFB824605E0FFF7A6FBD6
:10148000A0EB0A0159454CD8286A8007F6D41FB151
:10149000E86920F08050E861E06988B36968C1F3C9
:1014A0008101022944D00228C6F8608004D0FFF7E9
:1014B0008DFB044638E034E0FFF788FB074604E084
:1014C000FFF784FBC01B02282BD828688001F7D4C3
:1014D000206AB0F5803F05D16868A16820F400302B
:1014E00008436860D4E908010843696821F474116D
:1014F00008436860C6F86090FFF768FB044606E0A2
:1015000025E000BFFFF762FB001B022809D828680E
:101510008001F7D51BE000BFFFF758FB001B022836
:1015200002D90320BDE8F88F28688001F4D40EE0CA
:101530000128F7D06868226A00F48031914204D112
:10154000616A00F47010884201D00120EAE70020AF
:10155000E8E70000001002400000424280044242DE
:10156000340000200070004070B5040009D0606AAB
:10157000002540B125616561A56294F8510040B134
:101580000CE0012070BD6068B0F5827FF4D0E561A9
:10159000F2E784F85050204600F040F8022084F82A
:1015A00051002068016821F040010160A088218974
:1015B00000F4827001F404410843A18901F4006140
:1015C0000843217C01F002010843217D01F0010163
:1015D0000843218B01F400710843217F01F0380199
:1015E000084394F8201001F080010843218D01F494
:1015F0000051084321680860A069042101EA1040F5
:10160000216848602068C16921F40061C161656595
:10161000012084F85100002070BD000030B585B075
:1016200000240094019402940394006814498842B1
:1016300023D11448816941F480518161816901F4A9
:1016400080510491816941F00401816180690E4DEE
:1016500000F004000490A0200090022001900320DC
:10166000039069462846FFF7BBF94020CDE9000406
:10167000694628460294FFF7B3F905B030BD000073
:1016800000300140001002400008014070477047E0
:1016900070B590F83C20012A26D0012480F83C4007
:1016A000022280F83D2003685A689D6822F0700687
:1016B0000A6832435A600D4B02689A4208D0B2F170
:1016C000804F05D00A4B9A4202D00A4B9A4204D16D
:1016D000496825F080031943916080F83D4000215E
:1016E00080F83C10084670BD022070BD002C0140FF
:1016F000000400400008004010B5040003D094F836
:101700003D0010B107E0012010BD002084F83C002E
:10171000204600F01FF8022084F83D00211D2068BB
:1017200000F01CFE012084F8460084F83E0084F896
:101730003F0084F8400084F8410084F8420084F8B7
:10174000430084F8440084F8450084F83D000020FC
:1017500010BD000008B50068B0F1804F08D1054801
:10176000C16941F00101C161C06900F00100009050
:1017700008BD00000010024090F83D10012901D082
:1017800001207047022180F83D100168CA6842F0CC
:101790000102CA6000680B49884208D0B0F1804F4E
:1017A00005D00949884202D00849884204D181689D
:1017B00001F00701062903D0016841F00101016031
:1017C00000207047002C0140000400400008004049
:1017D00070B5044690F83C000025012817D001267A
:1017E00084F83C60022084F83D002068826822F082
:1017F000770222F47F4282600868502838D00DDCDE
:1018000020284FD005DC90B3102811D14AE00220E7
:1018100070BD302846D040280AD13BE060282FD048
:1018200070280DD0B0F5805F03D0B0F5005F12D006
:10183000012584F83D60002084F83C00284670BDF6
:10184000CB68D1E90121206800F0C4FD20688168DF
:1018500041F0770109E0CB68D1E90121206800F06F
:10186000B9FD2068816841F480418160E1E719E0B9
:10187000CA684968206800F0BFFD5021206806E072
:10188000CA684968206800F0C8FD6021206800F03F
:10189000ABFDCEE7CA684968206800F0ADFD402185
:1018A0002068F4E7226801461046F0E770472DE90A
:1018B000F04104460068C66805694FF00007A907B3
:1018C00013D5B10711D5F91E0161012020772068D9
:1018D00080698007204602D0FFF7E8FF04E000F0AF
:1018E0007EF8204600F07CF82777680716D5700749
:1018F00014D521686FF00400086102202077206869
:10190000806910F4407F204602D0FFF7CFFF04E04B
:1019100000F065F8204600F063F82777280715D512
:10192000300713D521686FF0080008610420207784
:101930002068C0698007204602D0FFF7B7FF04E0A7
:1019400000F04DF8204600F04BF82777E80616D552
:10195000F00614D521686FF0100008610820207788
:101960002068C06910F4407F204602D0FFF79EFF38
:1019700004E000F034F8204600F032F82777E8075A
:1019800008D0F00706D021686FF0010008612046FA
:1019900000F028F8280608D5300606D521686FF033
:1019A000800008612046FFF771FE680608D57006C2
:1019B00006D521686FF040000861204600F01CF851
:1019C000A8060AD5B00608D521686FF02000086186
:1019D0002046BDE8F041FFF75ABEBDE8F0817047F0
:1019E0007047000000680349884201D1FFF7F0B951
:1019F0007047000000080040704738B5044690F872
:101A00004200202801D0022038BD51B14AB1012046
:101A1000206300206063204600F08EFE216B0129C8
:101A200001D0012038BD21680A6849680091216809
:101A30000C3151E8002F42F0100241E80023002B46
:101A4000F5D138BD08B50068104A90421DD1002973
:101A50001BD010480A460E49006801F0D5FD8021D0
:101A60000B4800F011FF002000900B486946006809
:101A700001F0AAFF0098002807D008494FF08050D5
:101A80000860BFF34F8FBFF36F8F08BD0038014070
:101A900024310020B80000200800002004ED00E000
:101AA00070470000F8B5016804460868CA684B69C9
:101AB00010F00F0F4FF0000559D003F0010602F4AB
:101AC0009077374365D0C10705D0D10503D5616C48
:101AD00041F001016164410705D5D90703D0616C6C
:101AE00041F002016164810705D5D90703D0616C1B
:101AF00041F004016164010707D502F02001314380
:101B000003D0616C41F008016164616C00293AD036
:101B1000800604D5900602D5204600F050FD2068CE
:101B20004069616CC0F38010090700D460B320469F
:101B300000F010FD20684069400621D5206814306F
:101B400050E8001F21F0400140E80012002AF5D1C2
:101B5000E06BA8B16D494163E06BFEF7BBFD002867
:101B600011D0E06B416B01B0BDE8F040084783063F
:101B70000FD593060DD52046BDE8F84000F01FBDF7
:101B80002046FFF78DFFF8BD2046FFF789FF65640B
:101B9000F8BD266B2023012E7CD1C6067AD5D60649
:101BA00078D508684868009048694FF002064006FA
:101BB00040D5E16B086840680004000CE8D0A28DB5
:101BC0008242E5D9E085886920282DD020680C3034
:101BD00050E8001F21F4807140E80012002AF5D17E
:101BE0002068143050E8001F21F0010140E8001285
:101BF000002AF5D12068143050E8001F21F0400180
:101C000040E80012002AF5D184F8423025632068AC
:101C10000C3050E8001F21F0100140E80012002AAB
:101C2000F5D1E06BFEF732FD6663A08DE18D401AC1
:101C300081B22AE0A08DE18D401A81B2E08D0028AA
:101C4000A6D00029A4D022680C3252E8000F20F45C
:101C5000907042E80007002FF5D12068143050E85A
:101C6000002F22F0010240E80027002FF5D184F870
:101C70004230256320680C3050E8002F22F010021B
:101C800040E80023002BF5D166632046FFF7DAFE1B
:101C9000F8BDFFE705062BD5150629D594F84100B8
:101CA0002128F5D1A068B0F5805F01D12069B0B1DD
:101CB000206A411C2162216800784860E08C401E47
:101CC0000004000CE084E3D12068C16821F08001A9
:101CD000C1602068C16841F04001C160D8E7206A56
:101CE0000088C0F308004860206A801C2062E5E795
:101CF0004006CDD55006CBD5CA68204622F040021A
:101D0000CA6084F8413000F0F5F8C1E757240008B4
:101D100070B5040004D094F84100002510B106E02D
:101D2000012070BD84F84050204600F023F82420A4
:101D300084F841002068C16821F40051C160204648
:101D400000F09EFC2068016921F490410161206847
:101D5000416921F02A0141612068C16841F40051C4
:101D6000C1606564202084F8410084F84200656306
:101D7000002070BDF0B585B00024064600940194A3
:101D80000294039400682D49884254D12C488169FB
:101D900041F480418161816901F48041049181694C
:101DA00041F0040181618069264D00F00400049037
:101DB0004FF40070009002200190032003906946C8
:101DC0002846FEF70DFE2815CDE900046946284691
:101DD0000294FEF705FE1D4D1B488027C5E900044F
:101DE000C5E902472C616C61AC612846EC61FEF7E5
:101DF00067FD08B1FEF77BFAF5636E62134D12487A
:101E00004435143801C5102091C5104845F81049D3
:101E100044306C61AC61EC61FEF752FD08B1FEF735
:101E200066FAB5630022052125206E62FFF768F887
:101E30002520FFF757F805B0F0BD0000003801403D
:101E40000010024000080140580002406C020020CF
:101E5000704770472DE9F843044690F841009846D2
:101E600016460D46202802D00220BDE8F88385B131
:101E70007EB100206064212084F84100FEF7A6FEB8
:101E8000A6848146E684A0682027B0F5805F02D052
:101E900003E00120E9E7206910B12E4600250EE09D
:101EA00000260CE08021204600F08EFCA8B9C6B1C7
:101EB00016F8010B21684860E08C401EE084E08C3D
:101EC0004B464FF00002CDF800800028EAD14FF0D9
:101ED0004001204600F078FC40B184F841700320B6
:101EE000C3E735F8020BC0F30800E3E784F841705C
:101EF0000020BAE77047FEE74FF0FF34214601208B
:101F000001F09AFB142000F002FDF7E73EB5002433
:101F100010480094019402940D4984600160047398
:101F20000475012505614FF460214460C161FEF72D
:101F3000CFFA08B1FEF7DBF9CDE90045694605485F
:101F40000294FEF7D7F9002801D0FEF7D0F93EBD84
:101F500000240140BC000020114808B5416941F04F
:101F6000010141614069002200F00100009005215B
:101F70000B20FEF7C5FF0B20FEF7B4FF0022052162
:101F80000E20FEF7BDFF0E20FEF7ACFF002205215C
:101F90000F20FEF7B5FFBDE808400F20FEF7A2BFF7
:101FA0000010024010B5224800F02EFD214C204ABE
:101FB0000021E0611032012000F05AFD1C4B20622C
:101FC000103B002201211C4800F0F6FD184AA061D8
:101FD000283A1E21042000F0EBFC154A6061DC3A2F
:101FE0000021164800F092FD114A2060B83A002105
:101FF000134800F08BFD0E4A6060943A00211148AE
:1020000000F084FD0A4AA060703A00210E4800F0FA
:102010007DFD074AE0604C3A00210C4800F076FD57
:1020200020610348203000F07FFC606210BD00009A
:10203000A4480008000000208D0200089F2200082C
:10204000B1220008AD22000895220008A92200084C
:1020500070B586B000242B48009401940294039438
:10206000816941F020018161816901F020010491C1
:10207000816941F004018161816901F004010491E9
:10208000816941F00801816180691F4E00F00800FC
:102090000490002208213046FEF792FD0122102113
:1020A0003046FEF78DFD18200125CDE900050320FF
:1020B000CDE9024069463046FEF792FC40F6020048
:1020C00000901248CDE90105114E69463046FEF7F1
:1020D00087FC28038DE8310069463046FEF780FC16
:1020E000002205210720FEF70BFF0720FEF7FAFE6E
:1020F000002205212820FEF703FF2820FEF7F2FE2C
:1021000006B070BD00100240000801400000211020
:10211000000C01400D4810B50B4901600C494160AD
:1021200000214FF480428160C0E903124161816166
:10213000C1610162FEF750FD002803D0BDE81040E8
:10214000FEF7D5B810BD000000540040300100205B
:10215000A08601000F4810B50D4901604FF482714F
:10216000416000218160C1604FF400720161C0E9EB
:102170000512C1610162416281620A21C162FFF7F9
:10218000F3F9002803D0BDE81040FEF7B0B810BD49
:10219000003001408401002010B586B000241748AB
:1021A000009401940294039404944FF080410594A8
:1021B00001604721C0E901144FF6FF71C0E9031423
:1021C00080218161FFF798FA08B1FEF790F84FF48B
:1021D0008050009069460948FFF7FAFA08B1FEF707
:1021E00086F8049404A905480594FFF751FA0028DD
:1021F00001D0FEF77CF806B010BD0000DC01002025
:102200000C4810B50A4901604FF4E13141600021EA
:1022100081600C22C160C0E904128161C161FFF7D5
:1022200077FD002803D0BDE81040FEF760B810BD70
:102230000038014024020020FEE7FEE7134C90B076
:102240004FF480721049206801F08AF9802110480B
:1022500000F01AFB4FF0FF352946012001F0ECF9A0
:102260000CE0402A00D940226946206801F0A2F91A
:102270000100F1D0C822684600F020FB206801F080
:1022800067F90200E8D0ECE724300020B800002015
:102290002431002000F038FC00F07DFCFAE700F06B
:1022A00033FC00F078FCFAE7FFF726BEFFF7C6BF65
:1022B00000F02AFC00F06FFCFAE710B54FF0E020C8
:1022C000006902F099F8012803D0BDE8104001F040
:1022D0004BBD10BD30B593B028216846FDF787FF90
:1022E00014210AA8FDF783FF002501210F95109501
:1022F0000804CDE90010119512950295022404916D
:10230000CDE907404FF4E01009906846FEF79CFFC6
:1023100008B172B6FEE70AA90F2081E831004FF438
:1023200080600D900E9002210AA8FEF791FE08B180
:1023300072B6FEE74FF4804011900F940FA8FEF79D
:1023400011FE002801D072B6FEE713B030BD704711
:102350000148FFF7ACBA0000F4020020F0B50268B3
:10236000194B1A4C1A4D4FF08047984205D0B8428D
:1023700003D0A04201D0A84203D122F070064A68DF
:102380003243984205D0B84203D0A04201D0A842BF
:1023900003D122F44074CA6822434C6922F08002BF
:1023A000224302608A68C2620A688262984201D14E
:1023B00009690163012141610169C90703D001690C
:1023C00021F001010161F0BD002C0140000400403A
:1023D0000008004010B5846842EA032224F47F44D8
:1023E0000A432243826010BD826822F070020A43D1
:1023F00042F007018160704710B5036A046A24F057
:1024000001040462846924F0F00444EA021423F015
:102410000A020A438461026210BD10B5036A046AAD
:1024200024F010040462846923F0A00324F47044AF
:1024300044EA023243EA01118261016210BD10B523
:1024400001F062F8002805D0D0E90021BDE8104075
:102450000846104710BD10B5406A0021C185C184EF
:10246000FFF71EFB10BD70B5446A2068406994F800
:102470004110C0F3C0100025212904D118B1E58412
:10248000204600F08EF82068406994F84210C0F3AE
:102490008010222904D118B1E585204600F05AF8B1
:1024A000606C40F0100060642046FFF7F9FA70BDE0
:1024B00010B50146406A096809684FF000028906B4
:1024C0002ED4C28501680C3151E8003F23F480739B
:1024D00041E80034002CF5D10168143151E8003F87
:1024E00023F0010341E80034002CF5D101681431D8
:1024F00051E8003F23F0400341E80034002CF5D1BF
:10250000202180F84210016B012909D101680C31AA
:1025100051E8003F23F0100341E80034002CF5D1CE
:102520004263016B012902D0FFF792FC10BD818D3F
:10253000FFF788FA10BD10B5406A01214163016BB5
:10254000012902D0FFF785FC10BD818D4908FFF7F6
:1025500079FA10BD01680C3151E8002F22F4907215
:1025600041E80023002BF5D10168143151E8002F18
:1025700022F0010241E80023002BF5D1016B012973
:1025800009D101680C3151E8002F22F0100241E816
:102590000023002BF5D1202180F842100021016397
:1025A000704701680C3151E8002F22F0C00241E869
:1025B0000023002BF5D1202180F84110704708B589
:1025C00090F84210222901D0022008BD82684FF401
:1025D00080539A4201D1016921B1816A9A421BD08C
:1025E0004AB10AE00268816A5268C2F308020A80AE
:1025F000816A891C08E0026972B10268526802F0BF
:102600007F020A70816A491C8162C18D491E0904DA
:10261000090CC18503D01BE002685268F1E701682C
:10262000CA6822F02002CA600168CA6822F4807277
:10263000CA6001684A6922F001024A61202180F8DB
:10264000421000214163026B012A03D0FFF700FC16
:10265000002008BD016301680C3151E8002F22F011
:10266000100241E80023002BF5D101680A68D20668
:1026700002D50A6849680091818DFFF7E3F9E7E721
:1026800070B5044600680169E26821F440511143C5
:1026900001612169A0680843616908432168CA682B
:1026A00041F20C639A430243CA6020684169A269FF
:1026B00021F44071114341611E492068884202D1D2
:1026C000FEF78CFD01E0FEF779FD00EBC00101EBA8
:1026D0000012606864218000B2FBF0F3B3FBF1F3F9
:1026E0006FF018067343B2FBF0F5B2FBF0F605EBA2
:1026F0008305322303EB0515B5FBF1F5B6FBF1F6C7
:1027000005F0F00505EB0615B2FBF0F6B2FBF0F0B4
:10271000B0FBF1F06FF01802504306EB800003EBC2
:102720000010B0FBF1F0216800F00F002844886031
:1027300070BD00000038014038B5816204468285D2
:10274000002013466064222284F84220E56B1B4A75
:10275000AA62E56B1A4AEA62E56B1A4A2A63E26BDF
:1027600050630A462168E06B091DFEF7D7F8206820
:10277000016840680090206948B120680C3050E83A
:10278000001F41F4807140E80012002AF5D1206852
:10279000143050E8001F41F0010140E80012002A07
:1027A000F5D12068143050E8001F41F0400140E8A6
:1027B0000012002AF5D1002038BD0000B124000825
:1027C00037250008672400082DE9F8439846174686
:1027D0000D460446089E24E0701C22D0FEF7F6F950
:1027E000A0EB0800B0421AD8CEB12068C1684907F2
:1027F00017D5802D15D0402D13D00168C943090786
:102800000FD401680025406800902046FFF7A2FE23
:102810000820606484F840500120BDE8F88303205C
:10282000FBE72068006835EA000004D00020B842C9
:10283000D2D00020F1E70120F9E700000148FFF7BE
:1028400031B9000024020020FEE70907090E002824
:1028500004DB00F1E02080F80014704700F00F0066
:1028600000F1E02080F8141D704702E008C8121F34
:1028700008C1002AFAD170477047002001E001C169
:10288000121F002AFBD1704710B548B141B10A466A
:1028900001460948FFF7B1F828B16FF0020010BDFA
:1028A0004FF0FF3010BD0448C06B0068016821F094
:1028B00004010160002010BD2402002089B21346EB
:1028C0000A4610B501460448FFF7C4FA002801D0B3
:1028D0006FF0020010BD000024020020FEF780FA15
:1028E000FFF7F8FCFFF7B4FBFFF736FBFFF712FC2E
:1028F000FFF786FCFFF750FCFFF708FBFFF72AFC09
:1029000000F028F8FFF74EFB00F036F8FEE710B5B0
:10291000EFF3058111B16FF0050403E0002408B165
:1029200001F01EF8204610BD10B54FF00001EFF386
:1029300005826AB948B1D0E902202AB1202807D31C
:10294000104601F0A7F902E010B901F095F901462F
:10295000084610BDEFF3058010B16FF00500704719
:102960000448016811B14FF0FF3070470121016048
:10297000002070478800002010B5EFF3058010B1EB
:102980006FF0050010BD08480168012902D04FF022
:10299000FF3010BD054A002182F8141D022101609C
:1029A00001F09EF8002010BD880000200BE000E040
:1029B000F8B514464FF00005EFF3058212BB08B3DB
:1029C00001B3A4B1D4E9023263B1502A1AD3226907
:1029D000C2B1676900FB01F6B74213D3009501F05D
:1029E0004FFA07E072B9226962B9626952B90022EE
:1029F00001F025FA050005D00CB1216800E00021A6
:102A000000F04CFF2846F8BD70B505464FF00004B5
:102A1000EFF3058050BB0DB1686800E00020C107EE
:102A200001D0012600E0002600071FD46DB1D5E9D2
:102A3000021021B1502819D31EB1042002E020B1A8
:102A400014E0012001F0EEF905E00EB1042000E0F1
:102A5000012001F0DCF9040008D00DB1296800E084
:102A6000002100F01BFF0EB144F00104204670BDB0
:102A7000F8B5144603460E464FF00005EFF3058007
:102A800098BB93B39E423DD84CB1A0680028E06843
:102A900003D0502836D3012002E008B132E00020F4
:102AA000012B05D010B31846A26801F090F920E080
:102AB00040B103200090002211460120A36801F0DC
:102AC000DFF904E003220021012001F0B8F905003C
:102AD00018D086B100231A46194601F049FA012898
:102AE00009D0284600F0EEFE00250BE0184601F064
:102AF00051F9050006D00CB1216800E000212846FC
:102B000000F0CCFE2846F8BD01F070BC2DE9FF4175
:102B10004FEA01034FF00005EFF30581039549BB30
:102B200040B38027182100244AB3166806B1344602
:102B300096691EB13146761E382E02D21679F607F6
:102B400003D0002004B0BDE8F081566906B1B70893
:102B5000D2F808C0BCF1000F0DD0D5685C2D18D399
:102B600012693AB136B18DE806103A46214601F0B5
:102B700012FC03900DE0D6685EB912694AB903AA47
:102B8000CDE90012BAB2214601F0D8FB012800D0ED
:102B900003950398D6E710B5EFF3058111B16FF0F7
:102BA000050403E020B1002400F0DEFF204610BD44
:102BB0006FF00304FAE700002DE9FC471C4690463D
:102BC000894607464FF00006EFF3058058BB57B320
:102BD000082000F02BFC050025D0C5E90078B9F1EC
:102BE000000F12D00122114B002094B1216801B1D5
:102BF0000846A16859B1E4682C2C11D3CDE9003105
:102C00002B46012101F064FD08E00022EBE7E168BA
:102C100031B900932B46012101F040FD060002D19D
:102C2000284600F0CDFD3046BDE8FC873F24000873
:102C30002DE9F041134C0F460546E6682068001D5B
:102C400000F02EFD681C07D137B12168BDE8F041C6
:102C50000D48091D00F074BD20683544B54245603B
:102C6000216805D2A06BBDE8F041091D00F050BD00
:102C7000606B091D00F04CFDA06A854200D2A56280
:102C8000BDE8F081380000202C0800202DE9F0413B
:102C9000054600F061FD2D4CA068401CA060206836
:102CA0002B4F10B1606930B32BE02560A06801287C
:102CB00027D1002606EB860007EB800000F01AFD06
:102CC000761C382EF6D3234800F014FD214814302A
:102CD00000F010FD1F48283000F00CFD1D483C306E
:102CE00000F008FD1B48503000F004FD19486063F7
:102CF0001430A06305E02068E96AC06A884200D801
:102D00002560606A401C60626864E86A21698842E4
:102D100000D9206100EB800007EB8000291D00F046
:102D20000FFD00F039FD606900280CD02068E96AC9
:102D3000C06A884207D208494FF080500860BFF34C
:102D40004F8FBFF36F8FBDE8F08100003800002087
:102D50007C030020DC07002004ED00E038B500F023
:102D6000FBFC104C2068C8B90F4800F0C3FC0E48AB
:102D7000143000F0BFFC0C48E060143020610A4BB6
:102D80000020F03B009003F1500210210A2001F0D6
:102D900077F8206010B105A100F080FDBDE8384053
:102DA00000F0FABC7400002030090020546D72510C
:102DB0000000000030B4026C0B46002A0BD0C16842
:102DC0001144C1608468A14201D30168C16030BC74
:102DD0001846FDF7F3B930BC70472DE9F041856B1B
:102DE000174604460026026C82B1C7B1E068FDF7C1
:102DF000E5F9E168206C091AE1602268914202D28B
:102E0000A168081AE060022F16D017E02068A8B960
:102E1000A06801F069FB06460020A0600EE0606833
:102E2000FDF7CCF9216C606808446060A1688842B5
:102E300004D32068606001E005B16D1E6D1CA563C0
:102E40003046BDE8F08110B5044690F8590058B1FD
:102E500001280CD002280FD0502080F31188BFF336
:102E60004F8FBFF36F8FFEE7206B00F0A9FC204669
:102E7000BDE8104000F0A4BC10BD000010484FF4A5
:102E80000051420706D0C01D0D4920F00700411A2D
:102E9000C1F500510B4A00230144C2E9000308397F
:102EA000183A21F0070111604B600B600B1AC0E962
:102EB000001393604FF00040536050617047000072
:102EC00010100020A4000020144E154CA6F29C47C0
:102ED0004FF08058DFF84C9012E000BF00F03CFC4F
:102EE000F068C568281D00F0DBFBA068401EA060EC
:102EF0006068401E606000F04FFC2846FFF7A3FFAB
:102F000060680028EAD138680128F9D9C9F800803A
:102F1000BFF34F8FBFF36F8FF2E700001808002058
:102F20003800002004ED00E0002807D00021816077
:102F300001600B460A46C16001F01AB870470000F4
:102F400070B51D46049C51B1C4F80020C4E90F01BE
:102F50000121204600F0C8FF84F84C5070BD246069
:102F6000F4E700002DE9F05F8846DDE90B94154693
:102F7000834691009A460A9EA522206BFDF730F900
:102F80006FF00301206B01EB8501084420F0070777
:102F9000780707D0502080F31188BFF34F8FBFF31D
:102FA0006F8FFEE70025B8F1000F0FD05FF0000033
:102FB000221818F8001082F8341018F8001011B117
:102FC000401C1028F4D384F8435001E084F83450B6
:102FD000382E00D33726E662C4E91365201D00F0C1
:102FE00094FB04F1180000F090FB2461C6F1380056
:102FF0006462A061656584F8585052465946384667
:1030000000F094FA2060B9F1000F01D0C9F8004037
:10301000BDE8F09F2DE9F0471E46DDE9089417460C
:103020000D00804615D0002C11D0FFF797FE04F15B
:103030001801C4F8008081E86002201D00F065FBE3
:10304000002F04D014F8280F40F004002070BDE8D1
:10305000F087502080F31188BFF34F8FBFF36F8F3D
:10306000FEE7000030B5114900E011460A688242CF
:10307000FBD34B685C18844203D140681844486015
:10308000084643681C18944209D1084C183C24682F
:10309000A24209D052681A4442600A68126802606B
:1030A000814200D0086030BD0460F9E7A400002030
:1030B00070B5002441600B4D0061914206D8D11AD1
:1030C0008269914206D2011D286907E09A4203D223
:1030D000994201D3012403E0011DE86800F018FBC8
:1030E000204670BD7400002010B5044600F034FB8B
:1030F000A06B28B15FF0000400F04EFB204610BD2D
:103100000124F9E730B589B03C4D6EE00498002801
:1031100006DADDE90601059A90470498002864DB89
:10312000069C606910B1201D00F0BAFA03A800F0F7
:10313000D7F8024604980A2857D2DFE800F00505C0
:10314000052D334A05052D3394F8280040F0010081
:1031500084F828000599A069059B01442046FFF7E3
:10316000A7FF68B3216A2046884794F828004007E3
:103170003BD5002000900598A1690023421819460C
:10318000204601F0EDFAD8B9502080F31188BFF342
:103190004F8FBFF36F8FFEE714F8280F20F0010068
:1031A000207022E094F8280040F0010084F8280004
:1031B0000598A06128B1811813462046FFF778FFD3
:1031C00013E0502080F31188BFF34F8FBFF36F8F50
:1031D000FEE794F82800810703D4204600F0F0FAB7
:1031E00003E020F0010084F82800002204A92868E8
:1031F00000F0CEFF002889D109B030BD7400002056
:103200002DE9FC410F46054600F0FCFC01A800F04A
:1032100067F80446019818B101F0DEF9BDE8FC81B9
:10322000254EAFB130690068D0B30027291B3A465C
:10323000306800F073FB01F0CFF90028EED11F4990
:103240004FF080500860BFF34F8FBFF36F8FE5E7FB
:10325000A542EBD801F0C0F9F0682746C068C46801
:10326000201D00F01DFA94F82800410719D5A06927
:103270002B4641193A462046FFF71AFFA8B1002015
:103280000346014600902A46204601F069FA60B9DB
:10329000502080F31188BFF34F8FBFF36F8FFEE78D
:1032A00007E020F0010084F82800216A20468847C2
:1032B000B4E70127BAE700007400002004ED00E045
:1032C0000648416B096829B1416BC968C9684968FA
:1032D000816270474FF0FF31FAE7000038000020AC
:1032E00070B5054601F096F8064E0446B068844273
:1032F00003D200F009F8012000E0002028602046F9
:10330000B46070BD74000020F8B5194D20E0C068AD
:10331000C4680668201D00F0C3F9216A204688476A
:1033200094F82800400713D5A0693044B04206D96C
:1033300024616060211DE86800F0EAF908E00020DF
:103340000346014600903246204601F009FA38B1A2
:10335000E86801680029DAD12969C5E90310F8BDD8
:10336000502080F31188BFF34F8FBFF36F8FFEE7BC
:103370007400002008484068401C4FF0500080F363
:10338000118804D0BFF34F8FBFF36F8FFEE7BFF3F9
:103390004F8FBFF36F8FFEE7AC000020074CE06853
:1033A000016841B1C0680021D0F80000FFF728FF94
:1033B000FFF7A8FEF3E701210020F7E774000020E3
:1033C0002DE9F041044600F0C7F994F9455004F1A5
:1033D000240609E0606A48B1304601F0C5F808B13A
:1033E00000F0ECFA6D1E6DB2002DF3DC4FF0FF36ED
:1033F00084F8456000F0D0F900F0AEF994F944503B
:1034000004F1100709E0206948B1384601F0ACF832
:1034100008B100F0D3FA6D1E6DB2002DF3DC84F814
:103420004460BDE8F04100F0B7B900002DE9F0417B
:103430000546002700F0E6FB324E306808B9FFF77A
:103440001DFD706905424ED1C5B3083568070ED021
:1034500005F00700C0F108000544680707D05020B8
:1034600080F31188BFF34F8FBFF36F8FFEE72DB34B
:103470007068854237D82348183001460C6801E04F
:1034800020460C466168A94202D221680029F7D182
:1034900031688C4227D0076821680160606808376E
:1034A000411B10290FD96019420708D0502080F322
:1034B0001188BFF34F8FBFF36F8FFEE713E04160BA
:1034C0006560FFF7CFFD61687068401A7060B26890
:1034D000904200D2B060706901430020C4E900014D
:1034E000F068401CF06001F077F8780707D05020B2
:1034F00080F31188BFF34F8FBFF36F8FFEE738461D
:10350000BDE8F0818C00002010B5040006D000F06A
:1035100023F9E46900F040F9204610BD502080F303
:103520001188BFF34F8FBFF36F8FFEE710B5031FF6
:103530004FF080741C601B1F21F001011960191FDE
:10354000024B0B60143940380A6010BD7533000817
:10355000002804D0C16802698068891A0840704751
:1035600030B568B161B113004FF0000408D05D1EA2
:103570002A4205D180E82600C4600461002030BDE5
:103580004FF0FF3030BD38B131B1C26803699A42A3
:1035900005D16FF0040070474FF0FF3070470369AA
:1035A0000268D25C0A7001698268491C114001619D
:1035B00000207047F0B516460D46070002D00DB149
:1035C000002402E00020F0BD641CB44205D2291999
:1035D0003846FFF7D8FF0028F6D02046F0BD10B5DA
:1035E00048B1C2688368521C1A400369934205D1EE
:1035F0006FF0040010BD4FF0FF3010BDC4680368C9
:103600001955C260002010BDF0B516460D460700E2
:1036100002D00DB100240BE04FF0FF30F0BD295D6A
:103620003846FFF7DCFF10B16FF00400F0BD641CFA
:10363000B442F4D30020F0BD70B50C46064600F04D
:103640008BF8154D2868406D80B92968012081F8F4
:1036500058005CB101212046FFF7EAFA0F494FF00C
:1036600080500860BFF34F8FBFF36F8F00F094F866
:1036700000F072F82868446D002034B116B1296852
:10368000486502E02A68611E5165296881F8580082
:1036900000F082F8204670BD3800002004ED00E004
:1036A000D0E9013201699A60D0E901235A604A6881
:1036B000824201D182684A60002202610868401E8D
:1036C0000860086870470000034B036003F15C006A
:1036D000086080201060704758090020044B036088
:1036E00003F15C0008604FF48070106070470000C8
:1036F000B40B002000F108014FF0FF32C0E90112C5
:10370000C1600161002101607047002101617047C3
:1037100030B50B685A1C02D000F1080202E00269C1
:1037200004E02246546825689D42FAD953684B60EC
:1037300099608A60516008610168491C016030BD70
:1037400042684A6093688B60936859609160086131
:103750000168491C01607047502080F31188BFF355
:103760004F8FBFF36F8F0A494868401C486001289B
:103770000CD10848006810F0FF0F07D0502080F3EC
:103780001188BFF34F8FBFF36F8FFEE770470000C4
:10379000AC00002004ED00E00849486828B1401E54
:1037A000486001D180F311887047502080F3118860
:1037B000BFF34F8FBFF36F8FFEE70000AC00002018
:1037C00070B500282AD0164DA0F108046068696918
:1037D000084207D1502080F31188BFF34F8FBFF309
:1037E0006F8FFEE722683AB1502080F31188BFF353
:1037F0004F8FBFF36F8FFEE78843606000F002FADF
:1038000060686968084468602046FFF72BFC2869F7
:10381000401C2861BDE8704000F0DEBE70BD0000B5
:103820008C0000204FF0E0200021016181610549FA
:103830004FF47A720968B1FBF2F1491E4161072128
:10384000016170473400002010B5FCF7A1FC11495C
:1038500010280ED300F1E02090F8F0030A7890428F
:1038600007D2502080F31188BFF34F8FBFF36F8FC3
:10387000FEE709480068896800F4E060884207D9DB
:10388000502080F31188BFF34F8FBFF36F8FFEE797
:1038900010BD0000AC0000200CED00E010B5084B9E
:1038A000002200BF53F832401CB1521C082AF9D341
:1038B00010BD43F8321003EBC201486010BD000098
:1038C0003C03002010B504000AD000F013F894F86F
:1038D000460000280CD12046BDE81040FFF770BF1D
:1038E000502080F31188BFF34F8FBFF36F8FFEE737
:1038F00010BD0000084A002102EBC1035B6883424F
:1039000006D1002042F8310002EBC1014860704747
:10391000491C0829F0D370473C03002070B51546B8
:103920000E460446FFF718FF94F944100020491C86
:1039300001D184F8440094F94510491C01D184F860
:103940004500FFF729FFA06B28B92A46314604F14C
:10395000240000F0A9F82046BDE87040FFF730BD14
:1039600010B5020014D00F48006B38B1502080F31E
:103970001188BFF34F8FBFF36F8FFEE700F042F95E
:1039800000211046FFF754F900F026FE002807D169
:1039900005494FF080500860BFF34F8FBFF36F8F22
:1039A00010BD00003800002004ED00E002490A6A62
:1039B0000260C96841607047380000200149012059
:1039C000C8617047380000202DE9F0410E46040020
:1039D00015D0FFF739FF5020EFF3118580F31188E0
:1039E000BFF34F8FBFF36F8F94F85800022184F814
:1039F0005810616D491C6165012808D031E05020E4
:103A000080F31188BFF34F8FBFF36F8FFEE7A06A7B
:103A100038B1502080F31188BFF34F8FBFF36F8F01
:103A2000FEE7124F386B18B104F1180110480DE091
:103A3000201DFFF735FEE06A3969884200D93861F8
:103A40000C4900EB800001EB8000211DFFF778FEA0
:103A5000E06A3968C96A884203D9012006B130603A
:103A6000F86185F31188BDE8F0810000380000207E
:103A7000040800207C03002010B50C4650B1094911
:103A800009681831FFF744FE2046BDE810400121C7
:103A9000FFF7CEB8502080F31188BFF34F8FBFF3EC
:103AA0006F8FFEE73800002070B514460D4668B1F0
:103AB0000A4909681831FFF743FE0CB14FF0FF3592
:103AC00021462846BDE87040FFF7B2B8502080F389
:103AD0001188BFF34F8FBFF36F8FFEE738000020D0
:103AE00030B587B00024039405AA04A903A8049460
:103AF000FFF7EAFDDDE903010094CDE901100023A1
:103B000015A11748059A00F046FC164D0028E862FA
:103B10001FD000F0F5FD012809D0401C19D150201C
:103B200080F31188BFF34F8FBFF36F8FFEE75020F4
:103B300080F31188BFF34F8FBFF36F8F4FF0FF30CB
:103B4000A86201206861EC6007B0BDE8304000F079
:103B5000B7B807B030BD000049444C450000000034
:103B6000C92E00083800002070B50446FFF7F4FDA8
:103B7000214D04B92C68201DFFF792FDA06A18B1F1
:103B800004F11800FFF78CFD211D1C48FFF7D8FD3C
:103B900094F858000026012801D184F85860FFF7F6
:103BA000FBFD686928B1FFF7D7FDFFF789FBFFF739
:103BB000F3FD2868844213D1686990B1286B38B14D
:103BC000502080F31188BFF34F8FBFF36F8FFEE754
:103BD0000B494FF080500860BFF34F8FBFF36F8FDA
:103BE00070BD06480068A968884201D12E6070BD8A
:103BF000BDE8704000F00EB8380000202C0800200E
:103C000004ED00E00248016B491C016370470000AD
:103C100038000020164810B5016B11B10121C161B7
:103C200010BD0021C1610169124A01E0B9B1491E0C
:103C300001EB810352F82330002BF7D001EB810315
:103C400002EB830202F1080453685B685360A342ED
:103C500001D15B685360DA680260016110BD5020D9
:103C600080F31188BFF34F8FBFF36F8FFEE7000023
:103C7000380000207C03002070B52020FFF7D6FB21
:103C8000040005D00025201D2560FFF733FD2577B2
:103C9000204670BD38B558B120210446002000915F
:103CA0002060201DFFF726FD01202077204638BD2B
:103CB000502080F31188BFF34F8FBFF36F8FFEE763
:103CC0001CB5264908780190FF20087008788DF807
:103CD00000009DF800009DF8002000F0F0009042E8
:103CE00007D0502080F31188BFF34F8FBFF36F8F41
:103CF000FEE79DF800001A4C00F0500020700720ED
:103D0000A06005E09DF8002052008DF80020401EC4
:103D10009DF800201206F5D4A060032807D050209B
:103D200080F31188BFF34F8FBFF36F8FFEE74FF41F
:103D30004070A060019808700A48016841F4700161
:103D40000160016841F070410160FFF76BFD0020E8
:103D50006060FCF7E7F900201CBD000000E400E013
:103D6000AC00002020ED00E010B5502080F3118859
:103D7000BFF34F8FBFF36F8F00F052FB18B10449B0
:103D80004FF080500860002080F3118810BD0000C3
:103D900004ED00E010B50C4648B184420FD9502024
:103DA00080F31188BFF34F8FBFF36F8FFEE7502072
:103DB00080F31188BFF34F8FBFF36F8FFEE70222AE
:103DC000002100F03CF8002800D0846310BD38B515
:103DD0000C4648B184420FD9502080F31188BFF3BC
:103DE0004F8FBFF36F8FFEE7502080F31188BFF332
:103DF0004F8FBFF36F8FFEE7022113460022009121
:103E0000114600F03DF8002800D0846338BD10B59D
:103E100002460021012000F012F80446FFF784F862
:103E2000204610BD38B50B460022009011460120F7
:103E300000F026F80446FFF777F8204638BDF8B5BD
:103E400017460E46050013D005FB06F05030FFF76D
:103E5000EDFA04000AD0002084F8460004F1500274
:103E60003B46314628460094FFF76AF82046F8BDE5
:103E7000502080F31188BFF34F8FBFF36F8FFEE7A1
:103E800038B5049D18B153B1CAB181B120E05020BA
:103E900080F31188BFF34F8FBFF36F8FFEE7502081
:103EA00080F31188BFF34F8FBFF36F8FFEE7502071
:103EB00080F31188BFF34F8FBFF36F8FFEE739B1E7
:103EC000502080F31188BFF34F8FBFF36F8FFEE751
:103ED00050241C46012384F846302B460094FFF7FB
:103EE0002FF8204638BD000070B50D46040025D0DF
:103EF000FFF732FCD4E90F20216802FB0011A1601A
:103F00000021A163216861600A46D4E90F01401EC7
:103F100000FB0121E16021464FF0FF3001F8440F22
:103F2000487004F110008DB1FFF7E4FB04F12400A8
:103F3000FFF7E0FBFFF730FC012070BD502080F35D
:103F40001188BFF34F8FBFF36F8FFEE72169002900
:103F5000F0D000F009FB0028ECD004494FF080506D
:103F60000860BFF34F8FBFF36F8FE3E704ED00E00E
:103F70002DE9FF4782B01D468A464FF00008040035
:103F800003D0BAF1000F08D011E0502080F311885F
:103F9000BFF34F8FBFF36F8FFEE7206C38B1502017
:103FA00080F31188BFF34F8FBFF36F8FFEE7022DB1
:103FB0000AD1E06B012807D0502080F31188BFF3AD
:103FC0004F8FBFF36F8FFEE700F016FA3F4F4FF0B1
:103FD00000094FF0805648B9049838B1502080F35A
:103FE0001188BFF34F8FBFF36F8FFEE7FFF7B4FB6E
:103FF000A06BE16B884207D3022D05D00498D0B1A5
:10400000B8F1000F1AD01EE02A4651462046FEF7AE
:10401000E4FE616A19B104F1240000F0A5FA20B1B0
:104020003E60BFF34F8FBFF36F8FFFF7B5FB0120EB
:1040300006B0BDE8F087FFF7AFFB22E06846FFF768
:10404000B5FC4FF00108FFF7A7FBFFF7DBFDFFF71B
:1040500083FB94F94400401C01D184F8449094F906
:104060004500401C01D184F84590FFF795FB04A959
:10407000684600F029F930B12046FFF7A1F900F0B9
:10408000ABFA0020D4E7FFF767FBA06BE16B884237
:1040900013D1FFF781FB04F110000499FFF7ECFC4A
:1040A0002046FFF78DF900F097FA00289ED13E6078
:1040B000BFF34F8FBFF36F8F98E7FFF76DFB20467D
:1040C000FFF77EF900F088FA90E7000004ED00E0C9
:1040D0002DE9F0471F4690468946040003D0B9F108
:1040E000000F08D011E0502080F31188BFF34F8FEC
:1040F000BFF36F8FFEE7206C38B1502080F311883A
:10410000BFF34F8FBFF36F8FFEE7022F0AD1E06B33
:10411000012807D0502080F31188BFF34F8FBFF3E1
:104120006F8FFEE7FFF790FB5020EFF3118680F3CF
:104130001188BFF34F8FBFF36F8FA06BE16B884285
:1041400006D3022F04D0002086F31188BDE8F08743
:1041500094F94550A06B3A4649462046FEF73DFE8D
:10416000681C04D06D1C84F845500120ECE7606A9F
:104170000028FAD004F1240000F0F6F90028F4D069
:10418000B8F1000FF1D00121C8F80010EDE70000F0
:104190002DE9F747002683B08A46040003D0BAF120
:1041A000000F08D011E0502080F31188BFF34F8F2B
:1041B000BFF36F8FFEE7206C38B1502080F3118879
:1041C000BFF34F8FBFF36F8FFEE700F015F9DFF8F5
:1041D000F4804FF000094FF0805748B9059838B186
:1041E000502080F31188BFF34F8FBFF36F8FFEE72E
:1041F000FFF7B2FAA56BC5B151462046FEF7DAFDCE
:104200006D1EA563206950B104F1100000F0ACF9F7
:1042100028B1C8F80070BFF34F8FBFF36F8FFFF75F
:10422000BBFA012006B0BDE8F087059808B11EB1C1
:1042300006E0FFF7B1FA27E06846FFF7B7FB012673
:10424000FFF7AAFAFFF7DEFCFFF786FA94F94400BD
:10425000401C01D184F8449094F94500401C01D1E0
:1042600084F84590FFF798FA05A9684600F02CF805
:10427000002820460AD0FFF7A3F800F0ADF9204649
:10428000FEF732FF0028B3D00020CBE7FEF72CFF6B
:1042900090B104F124000599FFF7EEFB2046FFF7EB
:1042A0008FF800F099F90028A2D1C8F80070BFF388
:1042B0004F8FBFF36F8F9BE72046FFF781F800F029
:1042C0008BF995E704ED00E02DE9F0410C4605007F
:1042D00011D0C4B1FFF740FA174BDA686E68206856
:1042E000911B471C17D02F681B6A9F4219D096421A
:1042F00017D8012410E0502080F31188BFF34F8FAE
:10430000BFF36F8FFEE7502080F31188BFF34F8F0C
:10431000BFF36F8FFEE70024FFF73EFA2046BDE8AB
:10432000F081884205D9401A20602846FFF73EFBFD
:10433000F1E700202060DCE7380000202DE9FF5F76
:104340008346DDE90E87994616468A469000FFF7B8
:104350006DF805001CD05C20FFF768F8040014D04D
:104360000020256384F85900CDE90240CDE900879B
:104370004B46324651465846FEF7F4FD2046FEF7BE
:1043800085FC012004B0BDE8F09F2846FFF718FA2D
:104390004FF0FF30F6E7F0B585B0DDE90B640A9D1C
:1043A000A6B1DCB15C2700972663022684F8596029
:1043B000002604AFCDE90246CDE90057FEF7D2FD55
:1043C0002046FEF763FC049805B0F0BD502080F352
:1043D0001188BFF34F8FBFF36F8FFEE7502080F33C
:1043E0001188BFF34F8FBFF36F8FFEE7014800685E
:1043F00070470000380000200548416919B1006B82
:1044000018B100207047012070470220704700005B
:10441000380000200148C0687047000038000020C4
:104420002DE9F0412E4C0027206B28B1A069401CDB
:10443000A0613846BDE8F081E668761CE66013D1DD
:10444000606B006838B1502080F31188BFF34F8F44
:10445000BFF36F8FFEE7606BA16B6163A063206A9F
:10446000401C2062FEF72CFFA06ADFF878808642AD
:1044700009D3606B0068A0B1606BC068C5686868EC
:10448000864211D2A0622068C06A00EB800158F811
:104490002100012800D90127E0690028C9D001279F
:1044A000C7E74FF0FF30EDE7281DFFF7F9F8A86ADE
:1044B00018B105F11800FFF7F3F8E86A216988429E
:1044C00000D9206100EB800108EB8100291DFFF776
:1044D00037F9E86A2168C96A8842CAD30127C8E760
:1044E000380000207C03002070B504004FF000016C
:1044F00033D01B4D2868844207D0502080F31188A8
:10450000BFF34F8FBFF36F8FFEE7206D38B1401EB2
:104510002065E36CE26A9A421FD040B11DE0502052
:1045200080F31188BFF34F8FBFF36F8FFEE7201D1D
:10453000FFF7B6F8E06CE062C0F13800A061E06A15
:104540002969884200D92861064900EB800001EB07
:104550008000211DFFF7F4F80121084670BD00001E
:10456000380000207C03002070B5C068C46854B1D6
:1045700004F118000646FFF793F8144D286B50B16C
:104580003146134815E0502080F31188BFF34F8F58
:10459000BFF36F8FFEE7201DFFF782F8E06A2969FD
:1045A000884200D928610B4900EB800001EB8000B4
:1045B000211DFFF7C5F8E06A2968C96A884202D957
:1045C0000120E86170BD002070BD000038000020AF
:1045D000040800207C0300202DE9F0472C4D002426
:1045E0002746286B38B1FFF7B7F8286B401E2863C1
:1045F000286B40B146E0502080F31188BFF34F8F05
:10460000BFF36F8FFEE7A968224E0120D1B3A6F554
:10461000916980463068E0B1F068C46804F1180020
:10462000FFF73EF8201DFFF73BF8E06A2969884252
:1046300000D9286100EB800109EB8100211DFFF703
:104640007FF8E06A2968C96A8842E3D3C5F81C800C
:10465000E0E70CB1FEF734FEAC694CB14FEA080656
:10466000FFF7DEFE00B1EE61641EF9D10020A86103
:10467000E86938B10849012738070860BFF34F8F50
:10468000BFF36F8FFFF788F83846BDE8F08700006A
:10469000380000200408002004ED00E02DE9FC476C
:1046A00081461E46174688462C200A9DFEF7BEFE10
:1046B00004000AD0002084F82800CDE900543346D5
:1046C0003A4641464846FEF7A5FC2046BDE8FC8731
:1046D0007CB52C26DDE90654009644B1022684F808
:1046E0002860CDE90054FEF795FC20467CBD5020A3
:1046F00080F31188BFF34F8FBFF36F8FFEE7000089
:1047000010B586B0FEF72AFB114C2068B8B1002026
:104710000390049005AA04A903A8FEF7DFFFDDE9D2
:10472000032102208DE8070000230AA10B48059A07
:10473000FFF731FE606010B106B0012010BD5020BF
:1047400080F31188BFF34F8FBFF36F8FFEE7000038
:1047500074000020546D7220537663009D3300086E
:104760002DE9FF411E46134602000A9D4FF000004E
:1047700016D0144C2768002F0FD0CDE900130292F9
:10478000062917DAFFF738FE02284FF000030FD092
:10479000002269462068FFF7EBFB04B0BDE8F0811A
:1047A000502080F31188BFF34F8FBFF36F8FFEE768
:1047B0002A46EEE70023324669463846FFF788FC72
:1047C000EBE7000074000020304900080000000002
:1047D00000000000000000000000000000020000D7
:1047E0001800000000000000000000003C49000824
:1047F00000000000000000000000000000000000B9
:10480000000400000800000000000000000000009C
:10481000184900080000000000000000000000002F
:10482000000000000004000008000000000000007C
:104830000000000024490008000000000000000003
:10484000000000000000000000020000190000004D
:1048500000000000000000004849000800000000BF
:104860000000000000000000000000000002000046
:104870000800000000000000000000000C490008D3
:104880000000000000000000000000000000000028
:104890000000000060490008000000000000000067
:1048A00000000000004900080000000000000000B7
:1048B0000000000050490008000000000000000057
:1048C0000000000070490008000000000000000027
:1048D00000000000010202030405060708090A0B94
:1048E0000C0D0E0F1010000000000000000001026F
:1048F0000304060708090000000001020304000089
:104900006D794D7574657830310000004C6F6751DA
:10491000756575650000000053657269616C5461CE
:10492000736B0000416C61726D5461736B00000029
:10493000436F6C6C6563745461736B0053686F777D
:104940005461736B000000004B65795461736B0018
:1049500041444342696E61727953656D0000000005
:10496000436F6C6C65637454696D65720000000080
:10497000416C61726D4576656E7400009C4900085B
:1049800000000020BC0000006A280008584A000807
:10499000BC000020EC3400007A2800080000000071
:1049A0000000000000000000000000000000000007
:1049B00000000000000000000000000000000000F7
:1049C00000000000010000001000000000000000D6
:1049D00000127A000000000000000000000000004B
:1049E00000000000000000000000000000000000C7
:1049F00000000000000000000000000000000000B7
:104A000000000000000000000000000000000000A6
:104A10000000000000000000000000000000000096
:104A20000000000000000000000000000000000086
:104A30000000000000000000000000000000000076
:104A4000000000000000000000000000AAAAAAAABE
:084A50000000000010300020FE
:04000005080000ED02
:00000001FF
